{"contracts/test/TestMath.sol":{"TestMath":{"abi":[{"inputs":[{"internalType":"uint256","name":"value","type":"uint256"},{"internalType":"uint256","name":"bps","type":"uint256"}],"name":"applyBasisPoints","outputs":[{"internalType":"uint256","name":"","type":"uint256"}],"stateMutability":"pure","type":"function"},{"inputs":[{"internalType":"uint256","name":"currentBalance","type":"uint256"},{"internalType":"uint256","name":"highWaterMark","type":"uint256"}],"name":"calculateDrawdown","outputs":[{"internalType":"uint256","name":"","type":"uint256"}],"stateMutability":"pure","type":"function"},{"inputs":[{"internalType":"uint256","name":"entryPrice","type":"uint256"},{"internalType":"uint256","name":"leverage","type":"uint256"},{"internalType":"bool","name":"isLong","type":"bool"}],"name":"calculateLiquidationPrice","outputs":[{"internalType":"uint256","name":"","type":"uint256"}],"stateMutability":"pure","type":"function"},{"inputs":[{"internalType":"uint256","name":"oldValue","type":"uint256"},{"internalType":"uint256","name":"newValue","type":"uint256"}],"name":"calculatePercentageChange","outputs":[{"internalType":"uint256","name":"","type":"uint256"}],"stateMutability":"pure","type":"function"},{"inputs":[{"internalType":"uint256","name":"entryPrice","type":"uint256"},{"internalType":"uint256","name":"exitPrice","type":"uint256"},{"internalType":"uint256","name":"size","type":"uint256"},{"internalType":"bool","name":"isLong","type":"bool"}],"name":"calculatePnL","outputs":[{"internalType":"int256","name":"","type":"int256"}],"stateMutability":"pure","type":"function"},{"inputs":[{"internalType":"uint256","name":"size","type":"uint256"},{"internalType":"uint256","name":"leverage","type":"uint256"},{"internalType":"uint256","name":"price","type":"uint256"}],"name":"calculateRequiredMargin","outputs":[{"internalType":"uint256","name":"","type":"uint256"}],"stateMutability":"pure","type":"function"},{"inputs":[{"internalType":"uint256[]","name":"prices","type":"uint256[]"},{"internalType":"uint256[]","name":"timestamps","type":"uint256[]"},{"internalType":"uint256","name":"period","type":"uint256"}],"name":"calculateTWAP","outputs":[{"internalType":"uint256","name":"","type":"uint256"}],"stateMutability":"view","type":"function"},{"inputs":[],"name":"getBpsDenominator","outputs":[{"internalType":"uint256","name":"","type":"uint256"}],"stateMutability":"pure","type":"function"},{"inputs":[{"internalType":"uint256","name":"oldValue","type":"uint256"},{"internalType":"uint256","name":"newValue","type":"uint256"},{"internalType":"uint256","name":"maxDeviationBps","type":"uint256"}],"name":"isWithinDeviation","outputs":[{"internalType":"bool","name":"","type":"bool"}],"stateMutability":"pure","type":"function"},{"inputs":[{"internalType":"uint256","name":"totalProfit","type":"uint256"},{"internalType":"uint256","name":"traderShareBps","type":"uint256"}],"name":"splitProfit","outputs":[{"internalType":"uint256","name":"traderAmount","type":"uint256"},{"internalType":"uint256","name":"firmAmount","type":"uint256"}],"stateMutability":"pure","type":"function"}],"evm":{"bytecode":{"linkReferences":{},"object":"608060405234801561001057600080fd5b50610d60806100206000396000f3fe608060405234801561001057600080fd5b506004361061009e5760003560e01c80636947a628116100665780636947a6281461010a5780636a89ae61146101325780637e102ffb14610145578063e2c6157814610158578063ead7b2a31461017b57600080fd5b8063068d9903146100a35780630732126e146100c95780630a74adeb146100dc5780635a003134146100ef5780636328b25c146100f7575b600080fd5b6100b66100b1366004610929565b61018e565b6040519081526020015b60405180910390f35b6100b66100d7366004610968565b6101a5565b6100b66100ea366004610a45565b6101bc565b6127106100b6565b6100b6610105366004610ab2565b6101c9565b61011d610118366004610ab2565b6101de565b604080519283526020830191909152016100c0565b6100b6610140366004610ad4565b6101f6565b6100b6610153366004610ab2565b610203565b61016b610166366004610968565b61020f565b60405190151581526020016100c0565b6100b6610189366004610ab2565b61021c565b600061019c85858585610228565b95945050505050565b60006101b2848484610354565b90505b9392505050565b60006101b2848484610412565b60006101d58383610674565b90505b92915050565b6000806101eb8484610701565b915091509250929050565b60006101b284848461076b565b60006101d58383610838565b60006101b2848484610851565b60006101d5838361087b565b600080851161027a5760405162461bcd60e51b81526020600482015260196024820152784d6174683a20496e76616c696420656e74727920707269636560381b60448201526064015b60405180910390fd5b600084116102ca5760405162461bcd60e51b815260206004820152601860248201527f4d6174683a20496e76616c6964206578697420707269636500000000000000006044820152606401610271565b6000831161030f5760405162461bcd60e51b81526020600482015260126024820152714d6174683a20496e76616c69642073697a6560701b6044820152606401610271565b60008215610328576103218686610b1f565b9050610335565b6103328587610b1f565b90505b856103408583610b46565b61034a9190610b8c565b9695505050505050565b600080831161039e5760405162461bcd60e51b81526020600482015260166024820152754d6174683a20496e76616c6964206c6576657261676560501b6044820152606401610271565b600082116103e45760405162461bcd60e51b81526020600482015260136024820152724d6174683a20496e76616c696420707269636560681b6044820152606401610271565b60006103f26008600a610c9e565b6103fc8487610caa565b6104069190610cc1565b905061019c8482610cc1565b600082518451146104655760405162461bcd60e51b815260206004820152601b60248201527f4d6174683a204172726179206c656e677468206d69736d6174636800000000006044820152606401610271565b6002845110156104b75760405162461bcd60e51b815260206004820152601e60248201527f4d6174683a20496e73756666696369656e74206461746120706f696e747300006044820152606401610271565b600082116104fe5760405162461bcd60e51b815260206004820152601460248201527313585d1a0e88125b9d985b1a59081c195c9a5bd960621b6044820152606401610271565b42600061050b8483610cd5565b905060008060005b600189516105219190610cd5565b81101561060d578388828151811061053b5761053b610ce8565b60200260200101511015801561056957508488828151811061055f5761055f610ce8565b6020026020010151105b156105fb57600088828151811061058257610582610ce8565b6020026020010151898360016105989190610cfe565b815181106105a8576105a8610ce8565b60200260200101516105ba9190610cd5565b9050808a83815181106105cf576105cf610ce8565b60200260200101516105e19190610caa565b6105eb9085610cfe565b93506105f78184610cfe565b9250505b8061060581610d11565b915050610513565b506000811161065e5760405162461bcd60e51b815260206004820152601760248201527f4d6174683a204e6f206461746120696e20706572696f640000000000000000006044820152606401610271565b6106688183610cc1565b98975050505050505050565b60008082116106c55760405162461bcd60e51b815260206004820152601d60248201527f4d6174683a20496e76616c69642068696768207761746572206d61726b0000006044820152606401610271565b8183106106d4575060006101d8565b60006106e08484610cd5565b9050826106ef61271083610caa565b6106f99190610cc1565b949350505050565b60008061271083111561074c5760405162461bcd60e51b81526020600482015260136024820152724d6174683a20496e76616c696420736861726560681b6044820152606401610271565b6107568484610838565b91506107628285610cd5565b90509250929050565b60008084116107b85760405162461bcd60e51b81526020600482015260196024820152784d6174683a20496e76616c696420656e74727920707269636560381b6044820152606401610271565b600083116108015760405162461bcd60e51b81526020600482015260166024820152754d6174683a20496e76616c6964206c6576657261676560501b6044820152606401610271565b600061080d8486610cc1565b905082156108265761081f8186610cd5565b9150610830565b61019c8186610cfe565b509392505050565b60006127106108478385610caa565b6101d59190610cc1565b600083600003610863575060006101b5565b600061086f858561087b565b90921015949350505050565b60008083116108cc5760405162461bcd60e51b815260206004820152601e60248201527f4d6174683a204f6c642076616c75652063616e6e6f74206265207a65726f00006044820152606401610271565b8282106108fc57826127106108e18285610cd5565b6108eb9190610caa565b6108f59190610cc1565b90506101d8565b8261271061090a8483610cd5565b6108479190610caa565b8035801515811461092457600080fd5b919050565b6000806000806080858703121561093f57600080fd5b84359350602085013592506040850135915061095d60608601610914565b905092959194509250565b60008060006060848603121561097d57600080fd5b505081359360208301359350604090920135919050565b634e487b7160e01b600052604160045260246000fd5b600082601f8301126109bb57600080fd5b8135602067ffffffffffffffff808311156109d8576109d8610994565b8260051b604051601f19603f830116810181811084821117156109fd576109fd610994565b604052938452858101830193838101925087851115610a1b57600080fd5b83870191505b84821015610a3a57813583529183019190830190610a21565b979650505050505050565b600080600060608486031215610a5a57600080fd5b833567ffffffffffffffff80821115610a7257600080fd5b610a7e878388016109aa565b94506020860135915080821115610a9457600080fd5b50610aa1868287016109aa565b925050604084013590509250925092565b60008060408385031215610ac557600080fd5b50508035926020909101359150565b600080600060608486031215610ae957600080fd5b8335925060208401359150610b0060408501610914565b90509250925092565b634e487b7160e01b600052601160045260246000fd5b8181036000831280158383131683831282161715610b3f57610b3f610b09565b5092915050565b80820260008212600160ff1b84141615610b6257610b62610b09565b81810583148215176101d8576101d8610b09565b634e487b7160e01b600052601260045260246000fd5b600082610b9b57610b9b610b76565b600160ff1b821460001984141615610bb557610bb5610b09565b500590565b600181815b80851115610bf5578160001904821115610bdb57610bdb610b09565b80851615610be857918102915b93841c9390800290610bbf565b509250929050565b600082610c0c575060016101d8565b81610c19575060006101d8565b8160018114610c2f5760028114610c3957610c55565b60019150506101d8565b60ff841115610c4a57610c4a610b09565b50506001821b6101d8565b5060208310610133831016604e8410600b8410161715610c78575081810a6101d8565b610c828383610bba565b8060001904821115610c9657610c96610b09565b029392505050565b60006101d58383610bfd565b80820281158282048414176101d8576101d8610b09565b600082610cd057610cd0610b76565b500490565b818103818111156101d8576101d8610b09565b634e487b7160e01b600052603260045260246000fd5b808201808211156101d8576101d8610b09565b600060018201610d2357610d23610b09565b506001019056fea2646970667358221220e663e6ac8e416b561e76c541e2dab346e93aeaacc6a0aa3ea7f51164c88f894664736f6c63430008140033","opcodes":"PUSH1 0x80 PUSH1 0x40 MSTORE CALLVALUE DUP1 ISZERO PUSH2 0x10 JUMPI PUSH1 0x0 DUP1 REVERT JUMPDEST POP PUSH2 0xD60 DUP1 PUSH2 0x20 PUSH1 0x0 CODECOPY PUSH1 0x0 RETURN INVALID PUSH1 0x80 PUSH1 0x40 MSTORE CALLVALUE DUP1 ISZERO PUSH2 0x10 JUMPI PUSH1 0x0 DUP1 REVERT JUMPDEST POP PUSH1 0x4 CALLDATASIZE LT PUSH2 0x9E JUMPI PUSH1 0x0 CALLDATALOAD PUSH1 0xE0 SHR DUP1 PUSH4 0x6947A628 GT PUSH2 0x66 JUMPI DUP1 PUSH4 0x6947A628 EQ PUSH2 0x10A JUMPI DUP1 PUSH4 0x6A89AE61 EQ PUSH2 0x132 JUMPI DUP1 PUSH4 0x7E102FFB EQ PUSH2 0x145 JUMPI DUP1 PUSH4 0xE2C61578 EQ PUSH2 0x158 JUMPI DUP1 PUSH4 0xEAD7B2A3 EQ PUSH2 0x17B JUMPI PUSH1 0x0 DUP1 REVERT JUMPDEST DUP1 PUSH4 0x68D9903 EQ PUSH2 0xA3 JUMPI DUP1 PUSH4 0x732126E EQ PUSH2 0xC9 JUMPI DUP1 PUSH4 0xA74ADEB EQ PUSH2 0xDC JUMPI DUP1 PUSH4 0x5A003134 EQ PUSH2 0xEF JUMPI DUP1 PUSH4 0x6328B25C EQ PUSH2 0xF7 JUMPI JUMPDEST PUSH1 0x0 DUP1 REVERT JUMPDEST PUSH2 0xB6 PUSH2 0xB1 CALLDATASIZE PUSH1 0x4 PUSH2 0x929 JUMP JUMPDEST PUSH2 0x18E JUMP JUMPDEST PUSH1 0x40 MLOAD SWAP1 DUP2 MSTORE PUSH1 0x20 ADD JUMPDEST PUSH1 0x40 MLOAD DUP1 SWAP2 SUB SWAP1 RETURN JUMPDEST PUSH2 0xB6 PUSH2 0xD7 CALLDATASIZE PUSH1 0x4 PUSH2 0x968 JUMP JUMPDEST PUSH2 0x1A5 JUMP JUMPDEST PUSH2 0xB6 PUSH2 0xEA CALLDATASIZE PUSH1 0x4 PUSH2 0xA45 JUMP JUMPDEST PUSH2 0x1BC JUMP JUMPDEST PUSH2 0x2710 PUSH2 0xB6 JUMP JUMPDEST PUSH2 0xB6 PUSH2 0x105 CALLDATASIZE PUSH1 0x4 PUSH2 0xAB2 JUMP JUMPDEST PUSH2 0x1C9 JUMP JUMPDEST PUSH2 0x11D PUSH2 0x118 CALLDATASIZE PUSH1 0x4 PUSH2 0xAB2 JUMP JUMPDEST PUSH2 0x1DE JUMP JUMPDEST PUSH1 0x40 DUP1 MLOAD SWAP3 DUP4 MSTORE PUSH1 0x20 DUP4 ADD SWAP2 SWAP1 SWAP2 MSTORE ADD PUSH2 0xC0 JUMP JUMPDEST PUSH2 0xB6 PUSH2 0x140 CALLDATASIZE PUSH1 0x4 PUSH2 0xAD4 JUMP JUMPDEST PUSH2 0x1F6 JUMP JUMPDEST PUSH2 0xB6 PUSH2 0x153 CALLDATASIZE PUSH1 0x4 PUSH2 0xAB2 JUMP JUMPDEST PUSH2 0x203 JUMP JUMPDEST PUSH2 0x16B PUSH2 0x166 CALLDATASIZE PUSH1 0x4 PUSH2 0x968 JUMP JUMPDEST PUSH2 0x20F JUMP JUMPDEST PUSH1 0x40 MLOAD SWAP1 ISZERO ISZERO DUP2 MSTORE PUSH1 0x20 ADD PUSH2 0xC0 JUMP JUMPDEST PUSH2 0xB6 PUSH2 0x189 CALLDATASIZE PUSH1 0x4 PUSH2 0xAB2 JUMP JUMPDEST PUSH2 0x21C JUMP JUMPDEST PUSH1 0x0 PUSH2 0x19C DUP6 DUP6 DUP6 DUP6 PUSH2 0x228 JUMP JUMPDEST SWAP6 SWAP5 POP POP POP POP POP JUMP JUMPDEST PUSH1 0x0 PUSH2 0x1B2 DUP5 DUP5 DUP5 PUSH2 0x354 JUMP JUMPDEST SWAP1 POP JUMPDEST SWAP4 SWAP3 POP POP POP JUMP JUMPDEST PUSH1 0x0 PUSH2 0x1B2 DUP5 DUP5 DUP5 PUSH2 0x412 JUMP JUMPDEST PUSH1 0x0 PUSH2 0x1D5 DUP4 DUP4 PUSH2 0x674 JUMP JUMPDEST SWAP1 POP JUMPDEST SWAP3 SWAP2 POP POP JUMP JUMPDEST PUSH1 0x0 DUP1 PUSH2 0x1EB DUP5 DUP5 PUSH2 0x701 JUMP JUMPDEST SWAP2 POP SWAP2 POP SWAP3 POP SWAP3 SWAP1 POP JUMP JUMPDEST PUSH1 0x0 PUSH2 0x1B2 DUP5 DUP5 DUP5 PUSH2 0x76B JUMP JUMPDEST PUSH1 0x0 PUSH2 0x1D5 DUP4 DUP4 PUSH2 0x838 JUMP JUMPDEST PUSH1 0x0 PUSH2 0x1B2 DUP5 DUP5 DUP5 PUSH2 0x851 JUMP JUMPDEST PUSH1 0x0 PUSH2 0x1D5 DUP4 DUP4 PUSH2 0x87B JUMP JUMPDEST PUSH1 0x0 DUP1 DUP6 GT PUSH2 0x27A JUMPI PUSH1 0x40 MLOAD PUSH3 0x461BCD PUSH1 0xE5 SHL DUP2 MSTORE PUSH1 0x20 PUSH1 0x4 DUP3 ADD MSTORE PUSH1 0x19 PUSH1 0x24 DUP3 ADD MSTORE PUSH25 0x4D6174683A20496E76616C696420656E747279207072696365 PUSH1 0x38 SHL PUSH1 0x44 DUP3 ADD MSTORE PUSH1 0x64 ADD JUMPDEST PUSH1 0x40 MLOAD DUP1 SWAP2 SUB SWAP1 REVERT JUMPDEST PUSH1 0x0 DUP5 GT PUSH2 0x2CA JUMPI PUSH1 0x40 MLOAD PUSH3 0x461BCD PUSH1 0xE5 SHL DUP2 MSTORE PUSH1 0x20 PUSH1 0x4 DUP3 ADD MSTORE PUSH1 0x18 PUSH1 0x24 DUP3 ADD MSTORE PUSH32 0x4D6174683A20496E76616C696420657869742070726963650000000000000000 PUSH1 0x44 DUP3 ADD MSTORE PUSH1 0x64 ADD PUSH2 0x271 JUMP JUMPDEST PUSH1 0x0 DUP4 GT PUSH2 0x30F JUMPI PUSH1 0x40 MLOAD PUSH3 0x461BCD PUSH1 0xE5 SHL DUP2 MSTORE PUSH1 0x20 PUSH1 0x4 DUP3 ADD MSTORE PUSH1 0x12 PUSH1 0x24 DUP3 ADD MSTORE PUSH18 0x4D6174683A20496E76616C69642073697A65 PUSH1 0x70 SHL PUSH1 0x44 DUP3 ADD MSTORE PUSH1 0x64 ADD PUSH2 0x271 JUMP JUMPDEST PUSH1 0x0 DUP3 ISZERO PUSH2 0x328 JUMPI PUSH2 0x321 DUP7 DUP7 PUSH2 0xB1F JUMP JUMPDEST SWAP1 POP PUSH2 0x335 JUMP JUMPDEST PUSH2 0x332 DUP6 DUP8 PUSH2 0xB1F JUMP JUMPDEST SWAP1 POP JUMPDEST DUP6 PUSH2 0x340 DUP6 DUP4 PUSH2 0xB46 JUMP JUMPDEST PUSH2 0x34A SWAP2 SWAP1 PUSH2 0xB8C JUMP JUMPDEST SWAP7 SWAP6 POP POP POP POP POP POP JUMP JUMPDEST PUSH1 0x0 DUP1 DUP4 GT PUSH2 0x39E JUMPI PUSH1 0x40 MLOAD PUSH3 0x461BCD PUSH1 0xE5 SHL DUP2 MSTORE PUSH1 0x20 PUSH1 0x4 DUP3 ADD MSTORE PUSH1 0x16 PUSH1 0x24 DUP3 ADD MSTORE PUSH22 0x4D6174683A20496E76616C6964206C65766572616765 PUSH1 0x50 SHL PUSH1 0x44 DUP3 ADD MSTORE PUSH1 0x64 ADD PUSH2 0x271 JUMP JUMPDEST PUSH1 0x0 DUP3 GT PUSH2 0x3E4 JUMPI PUSH1 0x40 MLOAD PUSH3 0x461BCD PUSH1 0xE5 SHL DUP2 MSTORE PUSH1 0x20 PUSH1 0x4 DUP3 ADD MSTORE PUSH1 0x13 PUSH1 0x24 DUP3 ADD MSTORE PUSH19 0x4D6174683A20496E76616C6964207072696365 PUSH1 0x68 SHL PUSH1 0x44 DUP3 ADD MSTORE PUSH1 0x64 ADD PUSH2 0x271 JUMP JUMPDEST PUSH1 0x0 PUSH2 0x3F2 PUSH1 0x8 PUSH1 0xA PUSH2 0xC9E JUMP JUMPDEST PUSH2 0x3FC DUP5 DUP8 PUSH2 0xCAA JUMP JUMPDEST PUSH2 0x406 SWAP2 SWAP1 PUSH2 0xCC1 JUMP JUMPDEST SWAP1 POP PUSH2 0x19C DUP5 DUP3 PUSH2 0xCC1 JUMP JUMPDEST PUSH1 0x0 DUP3 MLOAD DUP5 MLOAD EQ PUSH2 0x465 JUMPI PUSH1 0x40 MLOAD PUSH3 0x461BCD PUSH1 0xE5 SHL DUP2 MSTORE PUSH1 0x20 PUSH1 0x4 DUP3 ADD MSTORE PUSH1 0x1B PUSH1 0x24 DUP3 ADD MSTORE PUSH32 0x4D6174683A204172726179206C656E677468206D69736D617463680000000000 PUSH1 0x44 DUP3 ADD MSTORE PUSH1 0x64 ADD PUSH2 0x271 JUMP JUMPDEST PUSH1 0x2 DUP5 MLOAD LT ISZERO PUSH2 0x4B7 JUMPI PUSH1 0x40 MLOAD PUSH3 0x461BCD PUSH1 0xE5 SHL DUP2 MSTORE PUSH1 0x20 PUSH1 0x4 DUP3 ADD MSTORE PUSH1 0x1E PUSH1 0x24 DUP3 ADD MSTORE PUSH32 0x4D6174683A20496E73756666696369656E74206461746120706F696E74730000 PUSH1 0x44 DUP3 ADD MSTORE PUSH1 0x64 ADD PUSH2 0x271 JUMP JUMPDEST PUSH1 0x0 DUP3 GT PUSH2 0x4FE JUMPI PUSH1 0x40 MLOAD PUSH3 0x461BCD PUSH1 0xE5 SHL DUP2 MSTORE PUSH1 0x20 PUSH1 0x4 DUP3 ADD MSTORE PUSH1 0x14 PUSH1 0x24 DUP3 ADD MSTORE PUSH20 0x13585D1A0E88125B9D985B1A59081C195C9A5BD9 PUSH1 0x62 SHL PUSH1 0x44 DUP3 ADD MSTORE PUSH1 0x64 ADD PUSH2 0x271 JUMP JUMPDEST TIMESTAMP PUSH1 0x0 PUSH2 0x50B DUP5 DUP4 PUSH2 0xCD5 JUMP JUMPDEST SWAP1 POP PUSH1 0x0 DUP1 PUSH1 0x0 JUMPDEST PUSH1 0x1 DUP10 MLOAD PUSH2 0x521 SWAP2 SWAP1 PUSH2 0xCD5 JUMP JUMPDEST DUP2 LT ISZERO PUSH2 0x60D JUMPI DUP4 DUP9 DUP3 DUP2 MLOAD DUP2 LT PUSH2 0x53B JUMPI PUSH2 0x53B PUSH2 0xCE8 JUMP JUMPDEST PUSH1 0x20 MUL PUSH1 0x20 ADD ADD MLOAD LT ISZERO DUP1 ISZERO PUSH2 0x569 JUMPI POP DUP5 DUP9 DUP3 DUP2 MLOAD DUP2 LT PUSH2 0x55F JUMPI PUSH2 0x55F PUSH2 0xCE8 JUMP JUMPDEST PUSH1 0x20 MUL PUSH1 0x20 ADD ADD MLOAD LT JUMPDEST ISZERO PUSH2 0x5FB JUMPI PUSH1 0x0 DUP9 DUP3 DUP2 MLOAD DUP2 LT PUSH2 0x582 JUMPI PUSH2 0x582 PUSH2 0xCE8 JUMP JUMPDEST PUSH1 0x20 MUL PUSH1 0x20 ADD ADD MLOAD DUP10 DUP4 PUSH1 0x1 PUSH2 0x598 SWAP2 SWAP1 PUSH2 0xCFE JUMP JUMPDEST DUP2 MLOAD DUP2 LT PUSH2 0x5A8 JUMPI PUSH2 0x5A8 PUSH2 0xCE8 JUMP JUMPDEST PUSH1 0x20 MUL PUSH1 0x20 ADD ADD MLOAD PUSH2 0x5BA SWAP2 SWAP1 PUSH2 0xCD5 JUMP JUMPDEST SWAP1 POP DUP1 DUP11 DUP4 DUP2 MLOAD DUP2 LT PUSH2 0x5CF JUMPI PUSH2 0x5CF PUSH2 0xCE8 JUMP JUMPDEST PUSH1 0x20 MUL PUSH1 0x20 ADD ADD MLOAD PUSH2 0x5E1 SWAP2 SWAP1 PUSH2 0xCAA JUMP JUMPDEST PUSH2 0x5EB SWAP1 DUP6 PUSH2 0xCFE JUMP JUMPDEST SWAP4 POP PUSH2 0x5F7 DUP2 DUP5 PUSH2 0xCFE JUMP JUMPDEST SWAP3 POP POP JUMPDEST DUP1 PUSH2 0x605 DUP2 PUSH2 0xD11 JUMP JUMPDEST SWAP2 POP POP PUSH2 0x513 JUMP JUMPDEST POP PUSH1 0x0 DUP2 GT PUSH2 0x65E JUMPI PUSH1 0x40 MLOAD PUSH3 0x461BCD PUSH1 0xE5 SHL DUP2 MSTORE PUSH1 0x20 PUSH1 0x4 DUP3 ADD MSTORE PUSH1 0x17 PUSH1 0x24 DUP3 ADD MSTORE PUSH32 0x4D6174683A204E6F206461746120696E20706572696F64000000000000000000 PUSH1 0x44 DUP3 ADD MSTORE PUSH1 0x64 ADD PUSH2 0x271 JUMP JUMPDEST PUSH2 0x668 DUP2 DUP4 PUSH2 0xCC1 JUMP JUMPDEST SWAP9 SWAP8 POP POP POP POP POP POP POP POP JUMP JUMPDEST PUSH1 0x0 DUP1 DUP3 GT PUSH2 0x6C5 JUMPI PUSH1 0x40 MLOAD PUSH3 0x461BCD PUSH1 0xE5 SHL DUP2 MSTORE PUSH1 0x20 PUSH1 0x4 DUP3 ADD MSTORE PUSH1 0x1D PUSH1 0x24 DUP3 ADD MSTORE PUSH32 0x4D6174683A20496E76616C69642068696768207761746572206D61726B000000 PUSH1 0x44 DUP3 ADD MSTORE PUSH1 0x64 ADD PUSH2 0x271 JUMP JUMPDEST DUP2 DUP4 LT PUSH2 0x6D4 JUMPI POP PUSH1 0x0 PUSH2 0x1D8 JUMP JUMPDEST PUSH1 0x0 PUSH2 0x6E0 DUP5 DUP5 PUSH2 0xCD5 JUMP JUMPDEST SWAP1 POP DUP3 PUSH2 0x6EF PUSH2 0x2710 DUP4 PUSH2 0xCAA JUMP JUMPDEST PUSH2 0x6F9 SWAP2 SWAP1 PUSH2 0xCC1 JUMP JUMPDEST SWAP5 SWAP4 POP POP POP POP JUMP JUMPDEST PUSH1 0x0 DUP1 PUSH2 0x2710 DUP4 GT ISZERO PUSH2 0x74C JUMPI PUSH1 0x40 MLOAD PUSH3 0x461BCD PUSH1 0xE5 SHL DUP2 MSTORE PUSH1 0x20 PUSH1 0x4 DUP3 ADD MSTORE PUSH1 0x13 PUSH1 0x24 DUP3 ADD MSTORE PUSH19 0x4D6174683A20496E76616C6964207368617265 PUSH1 0x68 SHL PUSH1 0x44 DUP3 ADD MSTORE PUSH1 0x64 ADD PUSH2 0x271 JUMP JUMPDEST PUSH2 0x756 DUP5 DUP5 PUSH2 0x838 JUMP JUMPDEST SWAP2 POP PUSH2 0x762 DUP3 DUP6 PUSH2 0xCD5 JUMP JUMPDEST SWAP1 POP SWAP3 POP SWAP3 SWAP1 POP JUMP JUMPDEST PUSH1 0x0 DUP1 DUP5 GT PUSH2 0x7B8 JUMPI PUSH1 0x40 MLOAD PUSH3 0x461BCD PUSH1 0xE5 SHL DUP2 MSTORE PUSH1 0x20 PUSH1 0x4 DUP3 ADD MSTORE PUSH1 0x19 PUSH1 0x24 DUP3 ADD MSTORE PUSH25 0x4D6174683A20496E76616C696420656E747279207072696365 PUSH1 0x38 SHL PUSH1 0x44 DUP3 ADD MSTORE PUSH1 0x64 ADD PUSH2 0x271 JUMP JUMPDEST PUSH1 0x0 DUP4 GT PUSH2 0x801 JUMPI PUSH1 0x40 MLOAD PUSH3 0x461BCD PUSH1 0xE5 SHL DUP2 MSTORE PUSH1 0x20 PUSH1 0x4 DUP3 ADD MSTORE PUSH1 0x16 PUSH1 0x24 DUP3 ADD MSTORE PUSH22 0x4D6174683A20496E76616C6964206C65766572616765 PUSH1 0x50 SHL PUSH1 0x44 DUP3 ADD MSTORE PUSH1 0x64 ADD PUSH2 0x271 JUMP JUMPDEST PUSH1 0x0 PUSH2 0x80D DUP5 DUP7 PUSH2 0xCC1 JUMP JUMPDEST SWAP1 POP DUP3 ISZERO PUSH2 0x826 JUMPI PUSH2 0x81F DUP2 DUP7 PUSH2 0xCD5 JUMP JUMPDEST SWAP2 POP PUSH2 0x830 JUMP JUMPDEST PUSH2 0x19C DUP2 DUP7 PUSH2 0xCFE JUMP JUMPDEST POP SWAP4 SWAP3 POP POP POP JUMP JUMPDEST PUSH1 0x0 PUSH2 0x2710 PUSH2 0x847 DUP4 DUP6 PUSH2 0xCAA JUMP JUMPDEST PUSH2 0x1D5 SWAP2 SWAP1 PUSH2 0xCC1 JUMP JUMPDEST PUSH1 0x0 DUP4 PUSH1 0x0 SUB PUSH2 0x863 JUMPI POP PUSH1 0x0 PUSH2 0x1B5 JUMP JUMPDEST PUSH1 0x0 PUSH2 0x86F DUP6 DUP6 PUSH2 0x87B JUMP JUMPDEST SWAP1 SWAP3 LT ISZERO SWAP5 SWAP4 POP POP POP POP JUMP JUMPDEST PUSH1 0x0 DUP1 DUP4 GT PUSH2 0x8CC JUMPI PUSH1 0x40 MLOAD PUSH3 0x461BCD PUSH1 0xE5 SHL DUP2 MSTORE PUSH1 0x20 PUSH1 0x4 DUP3 ADD MSTORE PUSH1 0x1E PUSH1 0x24 DUP3 ADD MSTORE PUSH32 0x4D6174683A204F6C642076616C75652063616E6E6F74206265207A65726F0000 PUSH1 0x44 DUP3 ADD MSTORE PUSH1 0x64 ADD PUSH2 0x271 JUMP JUMPDEST DUP3 DUP3 LT PUSH2 0x8FC JUMPI DUP3 PUSH2 0x2710 PUSH2 0x8E1 DUP3 DUP6 PUSH2 0xCD5 JUMP JUMPDEST PUSH2 0x8EB SWAP2 SWAP1 PUSH2 0xCAA JUMP JUMPDEST PUSH2 0x8F5 SWAP2 SWAP1 PUSH2 0xCC1 JUMP JUMPDEST SWAP1 POP PUSH2 0x1D8 JUMP JUMPDEST DUP3 PUSH2 0x2710 PUSH2 0x90A DUP5 DUP4 PUSH2 0xCD5 JUMP JUMPDEST PUSH2 0x847 SWAP2 SWAP1 PUSH2 0xCAA JUMP JUMPDEST DUP1 CALLDATALOAD DUP1 ISZERO ISZERO DUP2 EQ PUSH2 0x924 JUMPI PUSH1 0x0 DUP1 REVERT JUMPDEST SWAP2 SWAP1 POP JUMP JUMPDEST PUSH1 0x0 DUP1 PUSH1 0x0 DUP1 PUSH1 0x80 DUP6 DUP8 SUB SLT ISZERO PUSH2 0x93F JUMPI PUSH1 0x0 DUP1 REVERT JUMPDEST DUP5 CALLDATALOAD SWAP4 POP PUSH1 0x20 DUP6 ADD CALLDATALOAD SWAP3 POP PUSH1 0x40 DUP6 ADD CALLDATALOAD SWAP2 POP PUSH2 0x95D PUSH1 0x60 DUP7 ADD PUSH2 0x914 JUMP JUMPDEST SWAP1 POP SWAP3 SWAP6 SWAP2 SWAP5 POP SWAP3 POP JUMP JUMPDEST PUSH1 0x0 DUP1 PUSH1 0x0 PUSH1 0x60 DUP5 DUP7 SUB SLT ISZERO PUSH2 0x97D JUMPI PUSH1 0x0 DUP1 REVERT JUMPDEST POP POP DUP2 CALLDATALOAD SWAP4 PUSH1 0x20 DUP4 ADD CALLDATALOAD SWAP4 POP PUSH1 0x40 SWAP1 SWAP3 ADD CALLDATALOAD SWAP2 SWAP1 POP JUMP JUMPDEST PUSH4 0x4E487B71 PUSH1 0xE0 SHL PUSH1 0x0 MSTORE PUSH1 0x41 PUSH1 0x4 MSTORE PUSH1 0x24 PUSH1 0x0 REVERT JUMPDEST PUSH1 0x0 DUP3 PUSH1 0x1F DUP4 ADD SLT PUSH2 0x9BB JUMPI PUSH1 0x0 DUP1 REVERT JUMPDEST DUP2 CALLDATALOAD PUSH1 0x20 PUSH8 0xFFFFFFFFFFFFFFFF DUP1 DUP4 GT ISZERO PUSH2 0x9D8 JUMPI PUSH2 0x9D8 PUSH2 0x994 JUMP JUMPDEST DUP3 PUSH1 0x5 SHL PUSH1 0x40 MLOAD PUSH1 0x1F NOT PUSH1 0x3F DUP4 ADD AND DUP2 ADD DUP2 DUP2 LT DUP5 DUP3 GT OR ISZERO PUSH2 0x9FD JUMPI PUSH2 0x9FD PUSH2 0x994 JUMP JUMPDEST PUSH1 0x40 MSTORE SWAP4 DUP5 MSTORE DUP6 DUP2 ADD DUP4 ADD SWAP4 DUP4 DUP2 ADD SWAP3 POP DUP8 DUP6 GT ISZERO PUSH2 0xA1B JUMPI PUSH1 0x0 DUP1 REVERT JUMPDEST DUP4 DUP8 ADD SWAP2 POP JUMPDEST DUP5 DUP3 LT ISZERO PUSH2 0xA3A JUMPI DUP2 CALLDATALOAD DUP4 MSTORE SWAP2 DUP4 ADD SWAP2 SWAP1 DUP4 ADD SWAP1 PUSH2 0xA21 JUMP JUMPDEST SWAP8 SWAP7 POP POP POP POP POP POP POP JUMP JUMPDEST PUSH1 0x0 DUP1 PUSH1 0x0 PUSH1 0x60 DUP5 DUP7 SUB SLT ISZERO PUSH2 0xA5A JUMPI PUSH1 0x0 DUP1 REVERT JUMPDEST DUP4 CALLDATALOAD PUSH8 0xFFFFFFFFFFFFFFFF DUP1 DUP3 GT ISZERO PUSH2 0xA72 JUMPI PUSH1 0x0 DUP1 REVERT JUMPDEST PUSH2 0xA7E DUP8 DUP4 DUP9 ADD PUSH2 0x9AA JUMP JUMPDEST SWAP5 POP PUSH1 0x20 DUP7 ADD CALLDATALOAD SWAP2 POP DUP1 DUP3 GT ISZERO PUSH2 0xA94 JUMPI PUSH1 0x0 DUP1 REVERT JUMPDEST POP PUSH2 0xAA1 DUP7 DUP3 DUP8 ADD PUSH2 0x9AA JUMP JUMPDEST SWAP3 POP POP PUSH1 0x40 DUP5 ADD CALLDATALOAD SWAP1 POP SWAP3 POP SWAP3 POP SWAP3 JUMP JUMPDEST PUSH1 0x0 DUP1 PUSH1 0x40 DUP4 DUP6 SUB SLT ISZERO PUSH2 0xAC5 JUMPI PUSH1 0x0 DUP1 REVERT JUMPDEST POP POP DUP1 CALLDATALOAD SWAP3 PUSH1 0x20 SWAP1 SWAP2 ADD CALLDATALOAD SWAP2 POP JUMP JUMPDEST PUSH1 0x0 DUP1 PUSH1 0x0 PUSH1 0x60 DUP5 DUP7 SUB SLT ISZERO PUSH2 0xAE9 JUMPI PUSH1 0x0 DUP1 REVERT JUMPDEST DUP4 CALLDATALOAD SWAP3 POP PUSH1 0x20 DUP5 ADD CALLDATALOAD SWAP2 POP PUSH2 0xB00 PUSH1 0x40 DUP6 ADD PUSH2 0x914 JUMP JUMPDEST SWAP1 POP SWAP3 POP SWAP3 POP SWAP3 JUMP JUMPDEST PUSH4 0x4E487B71 PUSH1 0xE0 SHL PUSH1 0x0 MSTORE PUSH1 0x11 PUSH1 0x4 MSTORE PUSH1 0x24 PUSH1 0x0 REVERT JUMPDEST DUP2 DUP2 SUB PUSH1 0x0 DUP4 SLT DUP1 ISZERO DUP4 DUP4 SGT AND DUP4 DUP4 SLT DUP3 AND OR ISZERO PUSH2 0xB3F JUMPI PUSH2 0xB3F PUSH2 0xB09 JUMP JUMPDEST POP SWAP3 SWAP2 POP POP JUMP JUMPDEST DUP1 DUP3 MUL PUSH1 0x0 DUP3 SLT PUSH1 0x1 PUSH1 0xFF SHL DUP5 EQ AND ISZERO PUSH2 0xB62 JUMPI PUSH2 0xB62 PUSH2 0xB09 JUMP JUMPDEST DUP2 DUP2 SDIV DUP4 EQ DUP3 ISZERO OR PUSH2 0x1D8 JUMPI PUSH2 0x1D8 PUSH2 0xB09 JUMP JUMPDEST PUSH4 0x4E487B71 PUSH1 0xE0 SHL PUSH1 0x0 MSTORE PUSH1 0x12 PUSH1 0x4 MSTORE PUSH1 0x24 PUSH1 0x0 REVERT JUMPDEST PUSH1 0x0 DUP3 PUSH2 0xB9B JUMPI PUSH2 0xB9B PUSH2 0xB76 JUMP JUMPDEST PUSH1 0x1 PUSH1 0xFF SHL DUP3 EQ PUSH1 0x0 NOT DUP5 EQ AND ISZERO PUSH2 0xBB5 JUMPI PUSH2 0xBB5 PUSH2 0xB09 JUMP JUMPDEST POP SDIV SWAP1 JUMP JUMPDEST PUSH1 0x1 DUP2 DUP2 JUMPDEST DUP1 DUP6 GT ISZERO PUSH2 0xBF5 JUMPI DUP2 PUSH1 0x0 NOT DIV DUP3 GT ISZERO PUSH2 0xBDB JUMPI PUSH2 0xBDB PUSH2 0xB09 JUMP JUMPDEST DUP1 DUP6 AND ISZERO PUSH2 0xBE8 JUMPI SWAP2 DUP2 MUL SWAP2 JUMPDEST SWAP4 DUP5 SHR SWAP4 SWAP1 DUP1 MUL SWAP1 PUSH2 0xBBF JUMP JUMPDEST POP SWAP3 POP SWAP3 SWAP1 POP JUMP JUMPDEST PUSH1 0x0 DUP3 PUSH2 0xC0C JUMPI POP PUSH1 0x1 PUSH2 0x1D8 JUMP JUMPDEST DUP2 PUSH2 0xC19 JUMPI POP PUSH1 0x0 PUSH2 0x1D8 JUMP JUMPDEST DUP2 PUSH1 0x1 DUP2 EQ PUSH2 0xC2F JUMPI PUSH1 0x2 DUP2 EQ PUSH2 0xC39 JUMPI PUSH2 0xC55 JUMP JUMPDEST PUSH1 0x1 SWAP2 POP POP PUSH2 0x1D8 JUMP JUMPDEST PUSH1 0xFF DUP5 GT ISZERO PUSH2 0xC4A JUMPI PUSH2 0xC4A PUSH2 0xB09 JUMP JUMPDEST POP POP PUSH1 0x1 DUP3 SHL PUSH2 0x1D8 JUMP JUMPDEST POP PUSH1 0x20 DUP4 LT PUSH2 0x133 DUP4 LT AND PUSH1 0x4E DUP5 LT PUSH1 0xB DUP5 LT AND OR ISZERO PUSH2 0xC78 JUMPI POP DUP2 DUP2 EXP PUSH2 0x1D8 JUMP JUMPDEST PUSH2 0xC82 DUP4 DUP4 PUSH2 0xBBA JUMP JUMPDEST DUP1 PUSH1 0x0 NOT DIV DUP3 GT ISZERO PUSH2 0xC96 JUMPI PUSH2 0xC96 PUSH2 0xB09 JUMP JUMPDEST MUL SWAP4 SWAP3 POP POP POP JUMP JUMPDEST PUSH1 0x0 PUSH2 0x1D5 DUP4 DUP4 PUSH2 0xBFD JUMP JUMPDEST DUP1 DUP3 MUL DUP2 ISZERO DUP3 DUP3 DIV DUP5 EQ OR PUSH2 0x1D8 JUMPI PUSH2 0x1D8 PUSH2 0xB09 JUMP JUMPDEST PUSH1 0x0 DUP3 PUSH2 0xCD0 JUMPI PUSH2 0xCD0 PUSH2 0xB76 JUMP JUMPDEST POP DIV SWAP1 JUMP JUMPDEST DUP2 DUP2 SUB DUP2 DUP2 GT ISZERO PUSH2 0x1D8 JUMPI PUSH2 0x1D8 PUSH2 0xB09 JUMP JUMPDEST PUSH4 0x4E487B71 PUSH1 0xE0 SHL PUSH1 0x0 MSTORE PUSH1 0x32 PUSH1 0x4 MSTORE PUSH1 0x24 PUSH1 0x0 REVERT JUMPDEST DUP1 DUP3 ADD DUP1 DUP3 GT ISZERO PUSH2 0x1D8 JUMPI PUSH2 0x1D8 PUSH2 0xB09 JUMP JUMPDEST PUSH1 0x0 PUSH1 0x1 DUP3 ADD PUSH2 0xD23 JUMPI PUSH2 0xD23 PUSH2 0xB09 JUMP JUMPDEST POP PUSH1 0x1 ADD SWAP1 JUMP INVALID LOG2 PUSH5 0x6970667358 0x22 SLT KECCAK256 0xE6 PUSH4 0xE6AC8E41 PUSH12 0x561E76C541E2DAB346E93AEA 0xAC 0xC6 LOG0 0xAA RETURNDATACOPY 0xA7 CREATE2 GT PUSH5 0xC88F894664 PUSH20 0x6F6C634300081400330000000000000000000000 "},"methodIdentifiers":{"applyBasisPoints(uint256,uint256)":"7e102ffb","calculateDrawdown(uint256,uint256)":"6328b25c","calculateLiquidationPrice(uint256,uint256,bool)":"6a89ae61","calculatePercentageChange(uint256,uint256)":"ead7b2a3","calculatePnL(uint256,uint256,uint256,bool)":"068d9903","calculateRequiredMargin(uint256,uint256,uint256)":"0732126e","calculateTWAP(uint256[],uint256[],uint256)":"0a74adeb","getBpsDenominator()":"5a003134","isWithinDeviation(uint256,uint256,uint256)":"e2c61578","splitProfit(uint256,uint256)":"6947a628"}},"storageLayout":{"storage":[],"types":null}}}}