{
  "_format": "hh-sol-artifact-1",
  "contractName": "PriceOracle",
  "sourceName": "contracts/synthetics/PriceOracle.sol",
  "abi": [
    {
      "inputs": [
        {
          "internalType": "string",
          "name": "_symbol",
          "type": "string"
        },
        {
          "internalType": "uint256",
          "name": "_initialPrice",
          "type": "uint256"
        },
        {
          "internalType": "address",
          "name": "_initialOwner",
          "type": "address"
        }
      ],
      "stateMutability": "nonpayable",
      "type": "constructor"
    },
    {
      "inputs": [],
      "name": "EnforcedPause",
      "type": "error"
    },
    {
      "inputs": [],
      "name": "ExpectedPause",
      "type": "error"
    },
    {
      "inputs": [
        {
          "internalType": "address",
          "name": "owner",
          "type": "address"
        }
      ],
      "name": "OwnableInvalidOwner",
      "type": "error"
    },
    {
      "inputs": [
        {
          "internalType": "address",
          "name": "account",
          "type": "address"
        }
      ],
      "name": "OwnableUnauthorizedAccount",
      "type": "error"
    },
    {
      "anonymous": false,
      "inputs": [
        {
          "indexed": true,
          "internalType": "address",
          "name": "feeder",
          "type": "address"
        },
        {
          "indexed": false,
          "internalType": "bool",
          "name": "authorized",
          "type": "bool"
        }
      ],
      "name": "FeederAuthorized",
      "type": "event"
    },
    {
      "anonymous": false,
      "inputs": [
        {
          "indexed": false,
          "internalType": "uint256",
          "name": "oldTimeout",
          "type": "uint256"
        },
        {
          "indexed": false,
          "internalType": "uint256",
          "name": "newTimeout",
          "type": "uint256"
        }
      ],
      "name": "HeartbeatUpdated",
      "type": "event"
    },
    {
      "anonymous": false,
      "inputs": [
        {
          "indexed": false,
          "internalType": "uint256",
          "name": "oldDeviation",
          "type": "uint256"
        },
        {
          "indexed": false,
          "internalType": "uint256",
          "name": "newDeviation",
          "type": "uint256"
        }
      ],
      "name": "MaxDeviationUpdated",
      "type": "event"
    },
    {
      "anonymous": false,
      "inputs": [
        {
          "indexed": true,
          "internalType": "address",
          "name": "previousOwner",
          "type": "address"
        },
        {
          "indexed": true,
          "internalType": "address",
          "name": "newOwner",
          "type": "address"
        }
      ],
      "name": "OwnershipTransferred",
      "type": "event"
    },
    {
      "anonymous": false,
      "inputs": [
        {
          "indexed": false,
          "internalType": "address",
          "name": "account",
          "type": "address"
        }
      ],
      "name": "Paused",
      "type": "event"
    },
    {
      "anonymous": false,
      "inputs": [
        {
          "indexed": true,
          "internalType": "uint256",
          "name": "roundId",
          "type": "uint256"
        },
        {
          "indexed": false,
          "internalType": "uint256",
          "name": "price",
          "type": "uint256"
        },
        {
          "indexed": false,
          "internalType": "uint256",
          "name": "timestamp",
          "type": "uint256"
        },
        {
          "indexed": true,
          "internalType": "address",
          "name": "feeder",
          "type": "address"
        }
      ],
      "name": "PriceUpdated",
      "type": "event"
    },
    {
      "anonymous": false,
      "inputs": [
        {
          "indexed": false,
          "internalType": "uint256",
          "name": "timestamp",
          "type": "uint256"
        }
      ],
      "name": "PricesFrozen",
      "type": "event"
    },
    {
      "anonymous": false,
      "inputs": [
        {
          "indexed": false,
          "internalType": "address",
          "name": "account",
          "type": "address"
        }
      ],
      "name": "Unpaused",
      "type": "event"
    },
    {
      "inputs": [],
      "name": "MAX_HISTORY_LENGTH",
      "outputs": [
        {
          "internalType": "uint256",
          "name": "",
          "type": "uint256"
        }
      ],
      "stateMutability": "view",
      "type": "function"
    },
    {
      "inputs": [
        {
          "internalType": "address",
          "name": "",
          "type": "address"
        }
      ],
      "name": "authorizedFeeders",
      "outputs": [
        {
          "internalType": "bool",
          "name": "",
          "type": "bool"
        }
      ],
      "stateMutability": "view",
      "type": "function"
    },
    {
      "inputs": [],
      "name": "freezePrices",
      "outputs": [],
      "stateMutability": "nonpayable",
      "type": "function"
    },
    {
      "inputs": [],
      "name": "getHistoryLength",
      "outputs": [
        {
          "internalType": "uint256",
          "name": "",
          "type": "uint256"
        }
      ],
      "stateMutability": "view",
      "type": "function"
    },
    {
      "inputs": [],
      "name": "getLatestPrice",
      "outputs": [
        {
          "internalType": "uint256",
          "name": "price",
          "type": "uint256"
        },
        {
          "internalType": "uint256",
          "name": "timestamp",
          "type": "uint256"
        }
      ],
      "stateMutability": "view",
      "type": "function"
    },
    {
      "inputs": [
        {
          "internalType": "uint256",
          "name": "roundId",
          "type": "uint256"
        }
      ],
      "name": "getPriceAtRound",
      "outputs": [
        {
          "internalType": "uint256",
          "name": "price",
          "type": "uint256"
        },
        {
          "internalType": "uint256",
          "name": "timestamp",
          "type": "uint256"
        }
      ],
      "stateMutability": "view",
      "type": "function"
    },
    {
      "inputs": [
        {
          "internalType": "uint256",
          "name": "period",
          "type": "uint256"
        }
      ],
      "name": "getTWAP",
      "outputs": [
        {
          "internalType": "uint256",
          "name": "twap",
          "type": "uint256"
        }
      ],
      "stateMutability": "view",
      "type": "function"
    },
    {
      "inputs": [],
      "name": "heartbeatTimeout",
      "outputs": [
        {
          "internalType": "uint256",
          "name": "",
          "type": "uint256"
        }
      ],
      "stateMutability": "view",
      "type": "function"
    },
    {
      "inputs": [],
      "name": "isPriceStale",
      "outputs": [
        {
          "internalType": "bool",
          "name": "",
          "type": "bool"
        }
      ],
      "stateMutability": "view",
      "type": "function"
    },
    {
      "inputs": [],
      "name": "lastUpdateTime",
      "outputs": [
        {
          "internalType": "uint256",
          "name": "",
          "type": "uint256"
        }
      ],
      "stateMutability": "view",
      "type": "function"
    },
    {
      "inputs": [],
      "name": "latestPrice",
      "outputs": [
        {
          "internalType": "uint256",
          "name": "price",
          "type": "uint256"
        },
        {
          "internalType": "uint256",
          "name": "timestamp",
          "type": "uint256"
        },
        {
          "internalType": "uint256",
          "name": "roundId",
          "type": "uint256"
        }
      ],
      "stateMutability": "view",
      "type": "function"
    },
    {
      "inputs": [],
      "name": "maxPriceDeviation",
      "outputs": [
        {
          "internalType": "uint256",
          "name": "",
          "type": "uint256"
        }
      ],
      "stateMutability": "view",
      "type": "function"
    },
    {
      "inputs": [],
      "name": "minUpdateInterval",
      "outputs": [
        {
          "internalType": "uint256",
          "name": "",
          "type": "uint256"
        }
      ],
      "stateMutability": "view",
      "type": "function"
    },
    {
      "inputs": [],
      "name": "owner",
      "outputs": [
        {
          "internalType": "address",
          "name": "",
          "type": "address"
        }
      ],
      "stateMutability": "view",
      "type": "function"
    },
    {
      "inputs": [],
      "name": "paused",
      "outputs": [
        {
          "internalType": "bool",
          "name": "",
          "type": "bool"
        }
      ],
      "stateMutability": "view",
      "type": "function"
    },
    {
      "inputs": [
        {
          "internalType": "uint256",
          "name": "",
          "type": "uint256"
        }
      ],
      "name": "priceHistory",
      "outputs": [
        {
          "internalType": "uint256",
          "name": "price",
          "type": "uint256"
        },
        {
          "internalType": "uint256",
          "name": "timestamp",
          "type": "uint256"
        },
        {
          "internalType": "uint256",
          "name": "roundId",
          "type": "uint256"
        }
      ],
      "stateMutability": "view",
      "type": "function"
    },
    {
      "inputs": [],
      "name": "renounceOwnership",
      "outputs": [],
      "stateMutability": "nonpayable",
      "type": "function"
    },
    {
      "inputs": [
        {
          "internalType": "address",
          "name": "feeder",
          "type": "address"
        },
        {
          "internalType": "bool",
          "name": "authorized",
          "type": "bool"
        }
      ],
      "name": "setAuthorizedFeeder",
      "outputs": [],
      "stateMutability": "nonpayable",
      "type": "function"
    },
    {
      "inputs": [
        {
          "internalType": "uint256",
          "name": "_heartbeatTimeout",
          "type": "uint256"
        }
      ],
      "name": "setHeartbeatTimeout",
      "outputs": [],
      "stateMutability": "nonpayable",
      "type": "function"
    },
    {
      "inputs": [
        {
          "internalType": "uint256",
          "name": "_maxPriceDeviation",
          "type": "uint256"
        }
      ],
      "name": "setMaxDeviation",
      "outputs": [],
      "stateMutability": "nonpayable",
      "type": "function"
    },
    {
      "inputs": [
        {
          "internalType": "uint256",
          "name": "_minUpdateInterval",
          "type": "uint256"
        }
      ],
      "name": "setMinUpdateInterval",
      "outputs": [],
      "stateMutability": "nonpayable",
      "type": "function"
    },
    {
      "inputs": [],
      "name": "symbol",
      "outputs": [
        {
          "internalType": "string",
          "name": "",
          "type": "string"
        }
      ],
      "stateMutability": "view",
      "type": "function"
    },
    {
      "inputs": [
        {
          "internalType": "address",
          "name": "newOwner",
          "type": "address"
        }
      ],
      "name": "transferOwnership",
      "outputs": [],
      "stateMutability": "nonpayable",
      "type": "function"
    },
    {
      "inputs": [],
      "name": "unfreezePrices",
      "outputs": [],
      "stateMutability": "nonpayable",
      "type": "function"
    },
    {
      "inputs": [
        {
          "internalType": "uint256",
          "name": "newPrice",
          "type": "uint256"
        }
      ],
      "name": "updatePrice",
      "outputs": [],
      "stateMutability": "nonpayable",
      "type": "function"
    }
  ],
  "bytecode": "0x60806040523480156200001157600080fd5b5060405162001a7238038062001a728339810160408190526200003491620002b2565b806001600160a01b0381166200006557604051631e4fbdf760e01b8152600060048201526024015b60405180910390fd5b62000070816200022f565b506000835111620000c45760405162461bcd60e51b815260206004820152601b60248201527f50726963654f7261636c653a20496e76616c69642073796d626f6c000000000060448201526064016200005c565b60008211620001165760405162461bcd60e51b815260206004820152601a60248201527f50726963654f7261636c653a20496e76616c696420707269636500000000000060448201526064016200005c565b600162000124848262000432565b506101f4600755603c6008556001600981905560408051606081018252848152426020820181905290820183905260028590556003818155600484815560058054808701825560009190915282027f036b6384b5eca791c62761152d0c79bb0604c104a5fb6f4eb0703f3154bb3db0810188905591547f036b6384b5eca791c62761152d0c79bb0604c104a5fb6f4eb0703f3154bb3db1830155547f036b6384b5eca791c62761152d0c79bb0604c104a5fb6f4eb0703f3154bb3db29091015590513392917f4f0aa5fab7aa20059cc56368985fcf440c02c1d0229156bcfefad462cae1893d916200021e91878252602082015260400190565b60405180910390a3505050620004fe565b600080546001600160a01b038381166001600160a01b0319831681178455604051919092169283917f8be0079c531659141344cd1fd0a4f28419497f9722a3daafe3b4186f6b6457e09190a35050565b634e487b7160e01b600052604160045260246000fd5b80516001600160a01b0381168114620002ad57600080fd5b919050565b600080600060608486031215620002c857600080fd5b83516001600160401b0380821115620002e057600080fd5b818601915086601f830112620002f557600080fd5b8151818111156200030a576200030a6200027f565b604051601f8201601f19908116603f011681019083821181831017156200033557620003356200027f565b816040528281526020935089848487010111156200035257600080fd5b600091505b8282101562000376578482018401518183018501529083019062000357565b600084848301015280975050505080860151935050506200039a6040850162000295565b90509250925092565b600181811c90821680620003b857607f821691505b602082108103620003d957634e487b7160e01b600052602260045260246000fd5b50919050565b601f8211156200042d57600081815260208120601f850160051c81016020861015620004085750805b601f850160051c820191505b81811015620004295782815560010162000414565b5050505b505050565b81516001600160401b038111156200044e576200044e6200027f565b62000466816200045f8454620003a3565b84620003df565b602080601f8311600181146200049e5760008415620004855750858301515b600019600386901b1c1916600185901b17855562000429565b600085815260208120601f198616915b82811015620004cf57888601518255948401946001909101908401620004ae565b5085821015620004ee5787850151600019600388901b60f8161c191681555b5050505050600190811b01905550565b611564806200050e6000396000f3fe608060405234801561001057600080fd5b50600436106101735760003560e01c80638da5cb5b116100de578063c8f33c9111610097578063dddbc04911610071578063dddbc0491461030a578063e72fa6ee1461031d578063f2fde38b14610325578063f30d3d1b1461033857600080fd5b8063c8f33c91146102cb578063d5ed6e95146102d4578063dae69dbe146102f757600080fd5b80638da5cb5b1461024a5780638e15f4731461026557806395d89b411461026d578063975b866214610282578063a3e6ba941461028b578063b27a0484146102b857600080fd5b80635c975abb116101305780635c975abb146101f9578063635a5d7b1461020b578063715018a61461021e5780637bca38be1461022657806381360e7a1461022f5780638d6cc56d1461023757600080fd5b80630747ef26146101785780630964ff26146101825780632f5df7251461019e578063394946c7146101b65780634e14a583146101de5780635478f468146101f1575b600080fd5b61018061034b565b005b61018b60095481565b6040519081526020015b60405180910390f35b6101a661035d565b6040519015158152602001610195565b6101c96101c4366004611333565b610375565b60408051928352602083019190915201610195565b6101806101ec366004611333565b6104dc565b60055461018b565b600054600160a01b900460ff166101a6565b610180610219366004611333565b6104e9565b610180610587565b61018b60085481565b61018b606481565b610180610245366004611333565b610599565b6000546040516001600160a01b039091168152602001610195565b6101c96107cc565b6102756107e3565b604051610195919061134c565b61018b60075481565b60025460035460045461029d92919083565b60408051938452602084019290925290820152606001610195565b61029d6102c6366004611333565b610871565b61018b600a5481565b6101a66102e23660046113b6565b60066020526000908152604090205460ff1681565b6101806103053660046113d1565b6108a4565b610180610318366004611333565b610961565b610180610a05565b6101806103333660046113b6565b610a4b565b61018b610346366004611333565b610a89565b610353610c9a565b61035b610cc7565b565b6000610370600260010154600854610d17565b905090565b60008060008311801561038a57506004548311155b6103db5760405162461bcd60e51b815260206004820152601a60248201527f50726963654f7261636c653a20496e76616c696420726f756e6400000000000060448201526064015b60405180910390fd5b6005545b8015610493578360056103f3600184611423565b8154811061040357610403611436565b90600052602060002090600302016002015403610481576005610427600183611423565b8154811061043757610437611436565b60009182526020909120600390910201546005610455600184611423565b8154811061046557610465611436565b9060005260206000209060030201600101549250925050915091565b8061048b8161144c565b9150506103df565b5060405162461bcd60e51b815260206004820152601c60248201527f50726963654f7261636c653a20526f756e64206e6f7420666f756e640000000060448201526064016103d2565b6104e4610c9a565b600955565b6104f1610c9a565b600081116105415760405162461bcd60e51b815260206004820152601c60248201527f50726963654f7261636c653a20496e76616c69642074696d656f75740000000060448201526064016103d2565b600880549082905560408051828152602081018490527fe452a27d3b098a57cdda646c96c15e5e8e1ba64ee911f09e4af4036611fe679291015b60405180910390a15050565b61058f610c9a565b61035b6000610d3e565b6105a1610d8e565b3360009081526006602052604090205460ff166106005760405162461bcd60e51b815260206004820152601b60248201527f50726963654f7261636c653a204e6f7420617574686f72697a6564000000000060448201526064016103d2565b600081116106505760405162461bcd60e51b815260206004820152601a60248201527f50726963654f7261636c653a20496e76616c696420707269636500000000000060448201526064016103d2565b600954600a546106609190611463565b4210156106af5760405162461bcd60e51b815260206004820152601960248201527f50726963654f7261636c653a20546f6f206672657175656e740000000000000060448201526064016103d2565b60025415610724576106c960026000015482600754610db9565b6107245760405162461bcd60e51b815260206004820152602660248201527f50726963654f7261636c653a20507269636520646576696174696f6e20746f6f604482015265206c6172676560d01b60648201526084016103d2565b600454600090610735906001611463565b6040805160608082018352858252426020808401829052928401859052600287905560038190556004859055835191820184528682529181019190915290810182905290915061078490610de0565b42600a819055604080518481526020810192909252339183917f4f0aa5fab7aa20059cc56368985fcf440c02c1d0229156bcfefad462cae1893d910160405180910390a35050565b6000806107d7610f42565b50506002546003549091565b600180546107f090611476565b80601f016020809104026020016040519081016040528092919081815260200182805461081c90611476565b80156108695780601f1061083e57610100808354040283529160200191610869565b820191906000526020600020905b81548152906001019060200180831161084c57829003601f168201915b505050505081565b6005818154811061088157600080fd5b600091825260209091206003909102018054600182015460029092015490925083565b6108ac610c9a565b6001600160a01b0382166109025760405162461bcd60e51b815260206004820152601b60248201527f50726963654f7261636c653a20496e76616c696420666565646572000000000060448201526064016103d2565b6001600160a01b038216600081815260066020908152604091829020805460ff191685151590811790915591519182527f89be28419b031099956a270b9a5a112af208625e5fe34cfeb38040412eb7c74e910160405180910390a25050565b610969610c9a565b60008111801561097b57506127108111155b6109c75760405162461bcd60e51b815260206004820152601e60248201527f50726963654f7261636c653a20496e76616c696420646576696174696f6e000060448201526064016103d2565b600780549082905560408051828152602081018490527fea7b0359048504e79474eaaa05294b49265fc4e7b0a0c3737aaa22412e90f16e910161057b565b610a0d610c9a565b610a15610f97565b6040514281527f37dc9e3f428579056362debb381d5b802ad26e303b9e8f6ecb06b27ca526cd2c906020015b60405180910390a1565b610a53610c9a565b6001600160a01b038116610a7d57604051631e4fbdf760e01b8152600060048201526024016103d2565b610a8681610d3e565b50565b6000808211610ada5760405162461bcd60e51b815260206004820152601b60248201527f50726963654f7261636c653a20496e76616c696420706572696f64000000000060448201526064016103d2565b60055460021115610b2d5760405162461bcd60e51b815260206004820152601e60248201527f50726963654f7261636c653a20496e73756666696369656e742064617461000060448201526064016103d2565b426000838211610b3e576000610b48565b610b488483611423565b60055490915060009067ffffffffffffffff811115610b6957610b696114b0565b604051908082528060200260200182016040528015610b92578160200160208202803683370190505b5060055490915060009067ffffffffffffffff811115610bb457610bb46114b0565b604051908082528060200260200182016040528015610bdd578160200160208202803683370190505b50905060005b600554811015610c845760058181548110610c0057610c00611436565b906000526020600020906003020160000154838281518110610c2457610c24611436565b60200260200101818152505060058181548110610c4357610c43611436565b906000526020600020906003020160010154828281518110610c6757610c67611436565b602090810291909101015280610c7c816114c6565b915050610be3565b50610c90828288610fda565b9695505050505050565b6000546001600160a01b0316331461035b5760405163118cdaa760e01b81523360048201526024016103d2565b610ccf61123c565b6000805460ff60a01b191690557f5db9ee0a495bf2e6ff9c91a7834c1ba4fdd244a5e8aa4e537bd38aeae4b073aa335b6040516001600160a01b039091168152602001610a41565b600081600003610d2957506000610d38565b81610d348442611423565b1190505b92915050565b600080546001600160a01b038381166001600160a01b0319831681178455604051919092169283917f8be0079c531659141344cd1fd0a4f28419497f9722a3daafe3b4186f6b6457e09190a35050565b600054600160a01b900460ff161561035b5760405163d93c066560e01b815260040160405180910390fd5b600083600003610dcb57506001610dd9565b610dd6848484611266565b90505b9392505050565b60058054600181018255600082905282517f036b6384b5eca791c62761152d0c79bb0604c104a5fb6f4eb0703f3154bb3db060039092029182015560208301517f036b6384b5eca791c62761152d0c79bb0604c104a5fb6f4eb0703f3154bb3db182015560408301517f036b6384b5eca791c62761152d0c79bb0604c104a5fb6f4eb0703f3154bb3db2909101555460641015610a865760005b600554610e8990600190611423565b811015610f08576005610e9d826001611463565b81548110610ead57610ead611436565b906000526020600020906003020160058281548110610ece57610ece611436565b6000918252602090912082546003909202019081556001808301549082015560029182015491015580610f00816114c6565b915050610e7a565b506005805480610f1a57610f1a6114df565b6000828152602081206003600019909301928302018181556001810182905560020155905550565b610f4a61035d565b1561035b5760405162461bcd60e51b815260206004820152601b60248201527f50726963654f7261636c653a205072696365206973207374616c65000000000060448201526064016103d2565b610f9f610d8e565b6000805460ff60a01b1916600160a01b1790557f62e78cea01bee320cd4e420270b5ea74000d11b0c9f74754ebdbfc544b05a258610cff3390565b6000825184511461102d5760405162461bcd60e51b815260206004820152601b60248201527f4d6174683a204172726179206c656e677468206d69736d61746368000000000060448201526064016103d2565b60028451101561107f5760405162461bcd60e51b815260206004820152601e60248201527f4d6174683a20496e73756666696369656e74206461746120706f696e7473000060448201526064016103d2565b600082116110c65760405162461bcd60e51b815260206004820152601460248201527313585d1a0e88125b9d985b1a59081c195c9a5bd960621b60448201526064016103d2565b4260006110d38483611423565b905060008060005b600189516110e99190611423565b8110156111d5578388828151811061110357611103611436565b60200260200101511015801561113157508488828151811061112757611127611436565b6020026020010151105b156111c357600088828151811061114a5761114a611436565b6020026020010151898360016111609190611463565b8151811061117057611170611436565b60200260200101516111829190611423565b9050808a838151811061119757611197611436565b60200260200101516111a991906114f5565b6111b39085611463565b93506111bf8184611463565b9250505b806111cd816114c6565b9150506110db565b50600081116112265760405162461bcd60e51b815260206004820152601760248201527f4d6174683a204e6f206461746120696e20706572696f6400000000000000000060448201526064016103d2565b611230818361150c565b98975050505050505050565b600054600160a01b900460ff1661035b57604051638dfc202b60e01b815260040160405180910390fd5b60008360000361127857506000610dd9565b60006112848585611290565b90921015949350505050565b60008083116112e15760405162461bcd60e51b815260206004820152601e60248201527f4d6174683a204f6c642076616c75652063616e6e6f74206265207a65726f000060448201526064016103d2565b82821061131157826127106112f68285611423565b61130091906114f5565b61130a919061150c565b9050610d38565b8261271061131f8483611423565b61132991906114f5565b610dd9919061150c565b60006020828403121561134557600080fd5b5035919050565b600060208083528351808285015260005b818110156113795785810183015185820160400152820161135d565b506000604082860101526040601f19601f8301168501019250505092915050565b80356001600160a01b03811681146113b157600080fd5b919050565b6000602082840312156113c857600080fd5b610dd98261139a565b600080604083850312156113e457600080fd5b6113ed8361139a565b91506020830135801515811461140257600080fd5b809150509250929050565b634e487b7160e01b600052601160045260246000fd5b81810381811115610d3857610d3861140d565b634e487b7160e01b600052603260045260246000fd5b60008161145b5761145b61140d565b506000190190565b80820180821115610d3857610d3861140d565b600181811c9082168061148a57607f821691505b6020821081036114aa57634e487b7160e01b600052602260045260246000fd5b50919050565b634e487b7160e01b600052604160045260246000fd5b6000600182016114d8576114d861140d565b5060010190565b634e487b7160e01b600052603160045260246000fd5b8082028115828204841417610d3857610d3861140d565b60008261152957634e487b7160e01b600052601260045260246000fd5b50049056fea26469706673582212208dc5535ecf3175e89ff26b0f1a954c2707d948014fcf33b9b55ad8c345a9ebf764736f6c63430008140033",
  "linkReferences": {},
  "deployedLinkReferences": {}
}