{
  "_format": "hh-sol-artifact-1",
  "contractName": "EvaluationManager",
  "sourceName": "contracts/core/EvaluationManager.sol",
  "abi": [
    {
      "inputs": [
        {
          "internalType": "address",
          "name": "_collateralToken",
          "type": "address"
        },
        {
          "internalType": "address",
          "name": "_oracleRegistry",
          "type": "address"
        },
        {
          "internalType": "address",
          "name": "_reputationNFT",
          "type": "address"
        },
        {
          "internalType": "address",
          "name": "_initialOwner",
          "type": "address"
        }
      ],
      "stateMutability": "nonpayable",
      "type": "constructor"
    },
    {
      "inputs": [],
      "name": "EnforcedPause",
      "type": "error"
    },
    {
      "inputs": [],
      "name": "ExpectedPause",
      "type": "error"
    },
    {
      "inputs": [
        {
          "internalType": "address",
          "name": "owner",
          "type": "address"
        }
      ],
      "name": "OwnableInvalidOwner",
      "type": "error"
    },
    {
      "inputs": [
        {
          "internalType": "address",
          "name": "account",
          "type": "address"
        }
      ],
      "name": "OwnableUnauthorizedAccount",
      "type": "error"
    },
    {
      "inputs": [],
      "name": "ReentrancyGuardReentrantCall",
      "type": "error"
    },
    {
      "inputs": [
        {
          "internalType": "address",
          "name": "token",
          "type": "address"
        }
      ],
      "name": "SafeERC20FailedOperation",
      "type": "error"
    },
    {
      "anonymous": false,
      "inputs": [
        {
          "indexed": true,
          "internalType": "address",
          "name": "trader",
          "type": "address"
        },
        {
          "indexed": true,
          "internalType": "uint256",
          "name": "evaluationId",
          "type": "uint256"
        },
        {
          "indexed": false,
          "internalType": "string",
          "name": "reason",
          "type": "string"
        },
        {
          "indexed": false,
          "internalType": "uint256",
          "name": "finalBalance",
          "type": "uint256"
        }
      ],
      "name": "EvaluationFailed",
      "type": "event"
    },
    {
      "anonymous": false,
      "inputs": [
        {
          "indexed": true,
          "internalType": "address",
          "name": "trader",
          "type": "address"
        },
        {
          "indexed": true,
          "internalType": "uint256",
          "name": "evaluationId",
          "type": "uint256"
        },
        {
          "indexed": false,
          "internalType": "uint256",
          "name": "finalBalance",
          "type": "uint256"
        },
        {
          "indexed": false,
          "internalType": "uint256",
          "name": "profitAchieved",
          "type": "uint256"
        }
      ],
      "name": "EvaluationPassed",
      "type": "event"
    },
    {
      "anonymous": false,
      "inputs": [
        {
          "indexed": true,
          "internalType": "address",
          "name": "trader",
          "type": "address"
        },
        {
          "indexed": true,
          "internalType": "uint256",
          "name": "evaluationId",
          "type": "uint256"
        },
        {
          "indexed": false,
          "internalType": "uint256",
          "name": "virtualBalance",
          "type": "uint256"
        },
        {
          "indexed": false,
          "internalType": "uint256",
          "name": "timestamp",
          "type": "uint256"
        }
      ],
      "name": "EvaluationStarted",
      "type": "event"
    },
    {
      "anonymous": false,
      "inputs": [
        {
          "indexed": true,
          "internalType": "address",
          "name": "previousOwner",
          "type": "address"
        },
        {
          "indexed": true,
          "internalType": "address",
          "name": "newOwner",
          "type": "address"
        }
      ],
      "name": "OwnershipTransferred",
      "type": "event"
    },
    {
      "anonymous": false,
      "inputs": [
        {
          "indexed": false,
          "internalType": "address",
          "name": "account",
          "type": "address"
        }
      ],
      "name": "Paused",
      "type": "event"
    },
    {
      "anonymous": false,
      "inputs": [
        {
          "indexed": false,
          "internalType": "uint256",
          "name": "virtualBalance",
          "type": "uint256"
        },
        {
          "indexed": false,
          "internalType": "uint256",
          "name": "profitTarget",
          "type": "uint256"
        },
        {
          "indexed": false,
          "internalType": "uint256",
          "name": "maxDrawdown",
          "type": "uint256"
        },
        {
          "indexed": false,
          "internalType": "uint256",
          "name": "minTrades",
          "type": "uint256"
        }
      ],
      "name": "RulesUpdated",
      "type": "event"
    },
    {
      "anonymous": false,
      "inputs": [
        {
          "indexed": false,
          "internalType": "address",
          "name": "account",
          "type": "address"
        }
      ],
      "name": "Unpaused",
      "type": "event"
    },
    {
      "anonymous": false,
      "inputs": [
        {
          "indexed": true,
          "internalType": "address",
          "name": "trader",
          "type": "address"
        },
        {
          "indexed": true,
          "internalType": "uint256",
          "name": "positionId",
          "type": "uint256"
        },
        {
          "indexed": false,
          "internalType": "uint256",
          "name": "exitPrice",
          "type": "uint256"
        },
        {
          "indexed": false,
          "internalType": "int256",
          "name": "pnl",
          "type": "int256"
        },
        {
          "indexed": false,
          "internalType": "uint256",
          "name": "newBalance",
          "type": "uint256"
        }
      ],
      "name": "VirtualTradeClosed",
      "type": "event"
    },
    {
      "anonymous": false,
      "inputs": [
        {
          "indexed": true,
          "internalType": "address",
          "name": "trader",
          "type": "address"
        },
        {
          "indexed": true,
          "internalType": "uint256",
          "name": "positionId",
          "type": "uint256"
        },
        {
          "indexed": false,
          "internalType": "string",
          "name": "symbol",
          "type": "string"
        },
        {
          "indexed": false,
          "internalType": "uint256",
          "name": "size",
          "type": "uint256"
        },
        {
          "indexed": false,
          "internalType": "bool",
          "name": "isLong",
          "type": "bool"
        },
        {
          "indexed": false,
          "internalType": "uint256",
          "name": "entryPrice",
          "type": "uint256"
        }
      ],
      "name": "VirtualTradeExecuted",
      "type": "event"
    },
    {
      "inputs": [
        {
          "internalType": "address",
          "name": "trader",
          "type": "address"
        },
        {
          "internalType": "uint256",
          "name": "positionId",
          "type": "uint256"
        }
      ],
      "name": "calculateCurrentPnL",
      "outputs": [
        {
          "internalType": "int256",
          "name": "pnl",
          "type": "int256"
        }
      ],
      "stateMutability": "view",
      "type": "function"
    },
    {
      "inputs": [
        {
          "internalType": "uint256",
          "name": "positionId",
          "type": "uint256"
        }
      ],
      "name": "closeVirtualTrade",
      "outputs": [],
      "stateMutability": "nonpayable",
      "type": "function"
    },
    {
      "inputs": [],
      "name": "collateralToken",
      "outputs": [
        {
          "internalType": "contract IERC20",
          "name": "",
          "type": "address"
        }
      ],
      "stateMutability": "view",
      "type": "function"
    },
    {
      "inputs": [
        {
          "internalType": "address",
          "name": "trader",
          "type": "address"
        },
        {
          "internalType": "string",
          "name": "reason",
          "type": "string"
        }
      ],
      "name": "emergencyStopEvaluation",
      "outputs": [],
      "stateMutability": "nonpayable",
      "type": "function"
    },
    {
      "inputs": [],
      "name": "evaluationCounter",
      "outputs": [
        {
          "internalType": "uint256",
          "name": "",
          "type": "uint256"
        }
      ],
      "stateMutability": "view",
      "type": "function"
    },
    {
      "inputs": [
        {
          "internalType": "address",
          "name": "",
          "type": "address"
        }
      ],
      "name": "evaluations",
      "outputs": [
        {
          "internalType": "address",
          "name": "trader",
          "type": "address"
        },
        {
          "internalType": "uint256",
          "name": "startTime",
          "type": "uint256"
        },
        {
          "internalType": "uint256",
          "name": "virtualBalance",
          "type": "uint256"
        },
        {
          "internalType": "uint256",
          "name": "highWaterMark",
          "type": "uint256"
        },
        {
          "internalType": "uint256",
          "name": "currentDrawdown",
          "type": "uint256"
        },
        {
          "internalType": "uint256",
          "name": "tradeCount",
          "type": "uint256"
        },
        {
          "internalType": "bool",
          "name": "isActive",
          "type": "bool"
        },
        {
          "internalType": "bool",
          "name": "passed",
          "type": "bool"
        },
        {
          "internalType": "bool",
          "name": "failed",
          "type": "bool"
        },
        {
          "internalType": "uint256",
          "name": "evaluationId",
          "type": "uint256"
        }
      ],
      "stateMutability": "view",
      "type": "function"
    },
    {
      "inputs": [
        {
          "internalType": "string",
          "name": "symbol",
          "type": "string"
        },
        {
          "internalType": "uint256",
          "name": "size",
          "type": "uint256"
        },
        {
          "internalType": "bool",
          "name": "isLong",
          "type": "bool"
        }
      ],
      "name": "executeVirtualTrade",
      "outputs": [],
      "stateMutability": "nonpayable",
      "type": "function"
    },
    {
      "inputs": [],
      "name": "feeCollector",
      "outputs": [
        {
          "internalType": "address",
          "name": "",
          "type": "address"
        }
      ],
      "stateMutability": "view",
      "type": "function"
    },
    {
      "inputs": [
        {
          "internalType": "address",
          "name": "trader",
          "type": "address"
        }
      ],
      "name": "getEvaluation",
      "outputs": [
        {
          "components": [
            {
              "internalType": "address",
              "name": "trader",
              "type": "address"
            },
            {
              "internalType": "uint256",
              "name": "startTime",
              "type": "uint256"
            },
            {
              "internalType": "uint256",
              "name": "virtualBalance",
              "type": "uint256"
            },
            {
              "internalType": "uint256",
              "name": "highWaterMark",
              "type": "uint256"
            },
            {
              "internalType": "uint256",
              "name": "currentDrawdown",
              "type": "uint256"
            },
            {
              "internalType": "uint256",
              "name": "tradeCount",
              "type": "uint256"
            },
            {
              "internalType": "bool",
              "name": "isActive",
              "type": "bool"
            },
            {
              "internalType": "bool",
              "name": "passed",
              "type": "bool"
            },
            {
              "internalType": "bool",
              "name": "failed",
              "type": "bool"
            },
            {
              "internalType": "uint256",
              "name": "evaluationId",
              "type": "uint256"
            }
          ],
          "internalType": "struct EvaluationManager.Evaluation",
          "name": "",
          "type": "tuple"
        }
      ],
      "stateMutability": "view",
      "type": "function"
    },
    {
      "inputs": [
        {
          "internalType": "address",
          "name": "trader",
          "type": "address"
        },
        {
          "internalType": "uint256",
          "name": "positionId",
          "type": "uint256"
        }
      ],
      "name": "getPosition",
      "outputs": [
        {
          "components": [
            {
              "internalType": "uint256",
              "name": "positionId",
              "type": "uint256"
            },
            {
              "internalType": "string",
              "name": "symbol",
              "type": "string"
            },
            {
              "internalType": "uint256",
              "name": "entryPrice",
              "type": "uint256"
            },
            {
              "internalType": "uint256",
              "name": "size",
              "type": "uint256"
            },
            {
              "internalType": "bool",
              "name": "isLong",
              "type": "bool"
            },
            {
              "internalType": "uint256",
              "name": "collateral",
              "type": "uint256"
            },
            {
              "internalType": "uint256",
              "name": "openTime",
              "type": "uint256"
            }
          ],
          "internalType": "struct EvaluationManager.VirtualPosition",
          "name": "",
          "type": "tuple"
        }
      ],
      "stateMutability": "view",
      "type": "function"
    },
    {
      "inputs": [],
      "name": "oracleRegistry",
      "outputs": [
        {
          "internalType": "contract OracleRegistry",
          "name": "",
          "type": "address"
        }
      ],
      "stateMutability": "view",
      "type": "function"
    },
    {
      "inputs": [],
      "name": "owner",
      "outputs": [
        {
          "internalType": "address",
          "name": "",
          "type": "address"
        }
      ],
      "stateMutability": "view",
      "type": "function"
    },
    {
      "inputs": [],
      "name": "pause",
      "outputs": [],
      "stateMutability": "nonpayable",
      "type": "function"
    },
    {
      "inputs": [],
      "name": "paused",
      "outputs": [
        {
          "internalType": "bool",
          "name": "",
          "type": "bool"
        }
      ],
      "stateMutability": "view",
      "type": "function"
    },
    {
      "inputs": [
        {
          "internalType": "address",
          "name": "",
          "type": "address"
        }
      ],
      "name": "positionCounter",
      "outputs": [
        {
          "internalType": "uint256",
          "name": "",
          "type": "uint256"
        }
      ],
      "stateMutability": "view",
      "type": "function"
    },
    {
      "inputs": [
        {
          "internalType": "address",
          "name": "",
          "type": "address"
        },
        {
          "internalType": "uint256",
          "name": "",
          "type": "uint256"
        }
      ],
      "name": "positions",
      "outputs": [
        {
          "internalType": "uint256",
          "name": "positionId",
          "type": "uint256"
        },
        {
          "internalType": "string",
          "name": "symbol",
          "type": "string"
        },
        {
          "internalType": "uint256",
          "name": "entryPrice",
          "type": "uint256"
        },
        {
          "internalType": "uint256",
          "name": "size",
          "type": "uint256"
        },
        {
          "internalType": "bool",
          "name": "isLong",
          "type": "bool"
        },
        {
          "internalType": "uint256",
          "name": "collateral",
          "type": "uint256"
        },
        {
          "internalType": "uint256",
          "name": "openTime",
          "type": "uint256"
        }
      ],
      "stateMutability": "view",
      "type": "function"
    },
    {
      "inputs": [],
      "name": "renounceOwnership",
      "outputs": [],
      "stateMutability": "nonpayable",
      "type": "function"
    },
    {
      "inputs": [],
      "name": "reputationNFT",
      "outputs": [
        {
          "internalType": "contract ReputationNFT",
          "name": "",
          "type": "address"
        }
      ],
      "stateMutability": "view",
      "type": "function"
    },
    {
      "inputs": [],
      "name": "rules",
      "outputs": [
        {
          "internalType": "uint256",
          "name": "virtualBalance",
          "type": "uint256"
        },
        {
          "internalType": "uint256",
          "name": "profitTargetBps",
          "type": "uint256"
        },
        {
          "internalType": "uint256",
          "name": "maxDrawdownBps",
          "type": "uint256"
        },
        {
          "internalType": "uint256",
          "name": "minTrades",
          "type": "uint256"
        },
        {
          "internalType": "uint256",
          "name": "evaluationPeriod",
          "type": "uint256"
        },
        {
          "internalType": "uint256",
          "name": "evaluationFee",
          "type": "uint256"
        }
      ],
      "stateMutability": "view",
      "type": "function"
    },
    {
      "inputs": [
        {
          "internalType": "uint256",
          "name": "_virtualBalance",
          "type": "uint256"
        },
        {
          "internalType": "uint256",
          "name": "_profitTargetBps",
          "type": "uint256"
        },
        {
          "internalType": "uint256",
          "name": "_maxDrawdownBps",
          "type": "uint256"
        },
        {
          "internalType": "uint256",
          "name": "_minTrades",
          "type": "uint256"
        },
        {
          "internalType": "uint256",
          "name": "_evaluationPeriod",
          "type": "uint256"
        },
        {
          "internalType": "uint256",
          "name": "_evaluationFee",
          "type": "uint256"
        }
      ],
      "name": "setEvaluationRules",
      "outputs": [],
      "stateMutability": "nonpayable",
      "type": "function"
    },
    {
      "inputs": [
        {
          "internalType": "address",
          "name": "_feeCollector",
          "type": "address"
        }
      ],
      "name": "setFeeCollector",
      "outputs": [],
      "stateMutability": "nonpayable",
      "type": "function"
    },
    {
      "inputs": [],
      "name": "startEvaluation",
      "outputs": [],
      "stateMutability": "nonpayable",
      "type": "function"
    },
    {
      "inputs": [
        {
          "internalType": "address",
          "name": "newOwner",
          "type": "address"
        }
      ],
      "name": "transferOwnership",
      "outputs": [],
      "stateMutability": "nonpayable",
      "type": "function"
    },
    {
      "inputs": [],
      "name": "unpause",
      "outputs": [],
      "stateMutability": "nonpayable",
      "type": "function"
    }
  ],
  "bytecode": "0x60a06040523480156200001157600080fd5b5060405162002a7738038062002a778339810160408190526200003491620002a7565b806001600160a01b0381166200006557604051631e4fbdf760e01b8152600060048201526024015b60405180910390fd5b62000070816200023a565b50600180556001600160a01b038416620000cd5760405162461bcd60e51b815260206004820181905260248201527f4576616c756174696f6e4d616e616765723a20496e76616c696420746f6b656e60448201526064016200005c565b6001600160a01b038316620001315760405162461bcd60e51b815260206004820152602360248201527f4576616c756174696f6e4d616e616765723a20496e76616c696420726567697360448201526274727960e81b60648201526084016200005c565b6001600160a01b038216620001895760405162461bcd60e51b815260206004820152601e60248201527f4576616c756174696f6e4d616e616765723a20496e76616c6964204e4654000060448201526064016200005c565b6001600160a01b039384166080908152600280549486166001600160a01b03199586161790556003805493861693851693909317909255600e8054919094169216919091179091556040805160c0810182526402540be4008082526103e8602083018190526101f493830184905260056060840181905262278d009584018690526305f5e10060a0909401849052600492909255815560069290925560079190915560089190915560095562000304565b600080546001600160a01b038381166001600160a01b0319831681178455604051919092169283917f8be0079c531659141344cd1fd0a4f28419497f9722a3daafe3b4186f6b6457e09190a35050565b80516001600160a01b0381168114620002a257600080fd5b919050565b60008060008060808587031215620002be57600080fd5b620002c9856200028a565b9350620002d9602086016200028a565b9250620002e9604086016200028a565b9150620002f9606086016200028a565b905092959194509250565b60805161275062000327600039600081816103910152610c3701526127506000f3fe608060405234801561001057600080fd5b50600436106101585760003560e01c80638456cb59116100c3578063c1be66771161007c578063c1be6677146103d3578063c415b95c146103f9578063e68f2c431461040c578063ed8268681461041f578063f2fde38b1461043f578063fa4886491461045257600080fd5b80638456cb59146102925780638da5cb5b1461029a578063a42dce80146102ab578063a492e71a146102be578063b2016bd41461038c578063c04eb675146103b357600080fd5b80634bb93ab1116101155780634bb93ab1146101d157806352f6747a146101fc5780635c975abb146102475780635da25b3114610264578063715018a61461027757806382ea7ac31461027f57600080fd5b806325b2564a1461015d578063264ba67d146101795780632d09bdf21461018e5780633adbb5af146101a15780633f4ba83a146101c1578063403f700a146101c9575b600080fd5b610166600a5481565b6040519081526020015b60405180910390f35b61018c610187366004611efb565b610465565b005b61016661019c366004611f30565b610794565b6101b46101af366004611f30565b610972565b6040516101709190611fa0565b61018c610aba565b61018c610acc565b6002546101e4906001600160a01b031681565b6040516001600160a01b039091168152602001610170565b60045460055460065460075460085460095461021a95949392919086565b604080519687526020870195909552938501929092526060840152608083015260a082015260c001610170565b600054600160a01b900460ff166040519015158152602001610170565b61018c610272366004612050565b610e30565b61018c610eb8565b61018c61028d3660046120a3565b610eca565b61018c61101e565b6000546001600160a01b03166101e4565b61018c6102b93660046120e6565b61102e565b6103326102cc3660046120e6565b600b60205260009081526040902080546001820154600283015460038401546004850154600586015460068701546007909701546001600160a01b03909616969495939492939192909160ff80831692610100810482169262010000909104909116908a565b604080516001600160a01b03909b168b5260208b0199909952978901969096526060880194909452608087019290925260a0860152151560c0850152151560e0840152151561010083015261012082015261014001610170565b6101e47f000000000000000000000000000000000000000000000000000000000000000081565b6101666103c13660046120e6565b600d6020526000908152604090205481565b6103e66103e1366004611f30565b6110b9565b6040516101709796959493929190612101565b600e546101e4906001600160a01b031681565b61018c61041a366004612152565b61118b565b61043261042d3660046120e6565b6115a1565b60405161017091906121b1565b61018c61044d3660046120e6565b6116a5565b6003546101e4906001600160a01b031681565b61046d6116e0565b61047561170a565b336000908152600b60205260409020600681015460ff166104b15760405162461bcd60e51b81526004016104a89061223c565b60405180910390fd5b336000908152600c60209081526040808320858452909152812080549091036104ec5760405162461bcd60e51b81526004016104a890612283565b60025460405163f66a1b7160e01b81526000916001600160a01b03169063f66a1b7190610520906001860190600401612302565b6040805180830381865afa15801561053c573d6000803e3d6000fd5b505050506040513d601f19601f82011682018060405250810190610560919061238d565b509050600081116105835760405162461bcd60e51b81526004016104a8906123b1565b600482015460009060ff16156105ce5760008360020154836105a591906123fc565b905083600201548460030154826105bc9190612423565b6105c69190612469565b915050610605565b60008284600201546105e091906123fc565b905083600201548460030154826105f79190612423565b6106019190612469565b9150505b6005830154600082131561063b5761061d8282612497565b8560020160008282546106309190612497565b909155506106949050565b6000610646836124aa565b905081811061066f5760008660020160008282546106649190612497565b909155506106929050565b61067981836124c6565b86600201600082825461068c9190612497565b90915550505b505b8460030154856002015411156106af57600285015460038601555b6106c185600201548660030154611735565b60048601556005850180549060006106d8836124d9565b9091555050336000908152600c602090815260408083208984529091528120818155906107086001830182611ead565b50600060028281018290556003830182905560048301805460ff191690556005830182905560069092015585015460408051858152602081018590528082019290925251879133917fd7cac9dba477024c610326eaea94527b43e254330a25a534f8bb73a08865e18c9181900360600190a3610783336117c2565b505050505061079160018055565b50565b6001600160a01b0382166000908152600c602090815260408083208484528252808320815160e08101909252805482526001810180548594840191906107d9906122c8565b80601f0160208091040260200160405190810160405280929190818152602001828054610805906122c8565b80156108525780601f1061082757610100808354040283529160200191610852565b820191906000526020600020905b81548152906001019060200180831161083557829003601f168201915b50505091835250506002820154602082015260038201546040820152600482015460ff16151560608201526005820154608082015260069091015460a09091015280519091506000036108b75760405162461bcd60e51b81526004016104a890612283565b600254602082015160405163f66a1b7160e01b81526000926001600160a01b03169163f66a1b71916108ec91906004016124f2565b6040805180830381865afa158015610908573d6000803e3d6000fd5b505050506040513d601f19601f8201168201806040525081019061092c919061238d565b5090506000811161094f5760405162461bcd60e51b81526004016104a8906123b1565b61096782604001518284606001518560800151611935565b925050505b92915050565b6109b46040518060e001604052806000815260200160608152602001600081526020016000815260200160001515815260200160008152602001600081525090565b6001600160a01b0383166000908152600c60209081526040808320858452825291829020825160e081019093528054835260018101805491928401916109f9906122c8565b80601f0160208091040260200160405190810160405280929190818152602001828054610a25906122c8565b8015610a725780601f10610a4757610100808354040283529160200191610a72565b820191906000526020600020905b815481529060010190602001808311610a5557829003601f168201915b50505091835250506002820154602082015260038201546040820152600482015460ff16151560608201526005820154608082015260069091015460a0909101529392505050565b610ac2611a60565b610aca611a8d565b565b610ad46116e0565b610adc61170a565b336000908152600b602052604090206006015460ff1615610b505760405162461bcd60e51b815260206004820152602860248201527f4576616c756174696f6e4d616e616765723a20416c726561647920696e20657660448201526730b63ab0ba34b7b760c11b60648201526084016104a8565b600354604051633071dcfd60e21b81523360048201526001600160a01b039091169063c1c773f490602401602060405180830381865afa158015610b98573d6000803e3d6000fd5b505050506040513d601f19601f82011682018060405250810190610bbc9190612505565b15610c1b5760405162461bcd60e51b815260206004820152602960248201527f4576616c756174696f6e4d616e616765723a20416c72656164792068617320636044820152681c9959195b9d1a585b60ba1b60648201526084016104a8565b60095415610c6557600e54600954610c65916001600160a01b037f000000000000000000000000000000000000000000000000000000000000000081169233929190911690611ae2565b600a8054906000610c75836124d9565b9190505550604051806101400160405280336001600160a01b03168152602001428152602001600460000154815260200160046000015481526020016000815260200160008152602001600115158152602001600015158152602001600015158152602001600a54815250600b6000336001600160a01b03166001600160a01b0316815260200190815260200160002060008201518160000160006101000a8154816001600160a01b0302191690836001600160a01b031602179055506020820151816001015560408201518160020155606082015181600301556080820151816004015560a0820151816005015560c08201518160060160006101000a81548160ff02191690831515021790555060e08201518160060160016101000a81548160ff0219169083151502179055506101008201518160060160026101000a81548160ff0219169083151502179055506101208201518160070155905050600a54336001600160a01b03167f81fe1a3b78a3d4ae2c1fdf0ab8eadae44a2c2b18e59b320719235f56a62d9bf460046000015442604051610e1f929190918252602082015260400190565b60405180910390a3610aca60018055565b610e38611a60565b6001600160a01b0383166000908152600b602052604090206006015460ff16610e735760405162461bcd60e51b81526004016104a89061223c565b610eb38383838080601f016020809104026020016040519081016040528093929190818152602001838380828437600092019190915250611b3c92505050565b505050565b610ec0611a60565b610aca6000611bb6565b610ed2611a60565b60008611610f2d5760405162461bcd60e51b815260206004820152602260248201527f4576616c756174696f6e4d616e616765723a20496e76616c69642062616c616e604482015261636560f01b60648201526084016104a8565b610f378585611c06565b610f835760405162461bcd60e51b815260206004820181905260248201527f4576616c756174696f6e4d616e616765723a20496e76616c69642072756c657360448201526064016104a8565b6040805160c08101825287815260208082018890528183018790526060808301879052608080840187905260a090930185905260048a90556005899055600688905560078790556008869055600985905583518a81529182018990529281018790529182018590527fdad712da962031e896bced5db232366e07b6c944dc76a84700a911b4d021ca42910160405180910390a1505050505050565b611026611a60565b610aca611c48565b611036611a60565b6001600160a01b0381166110975760405162461bcd60e51b815260206004820152602260248201527f4576616c756174696f6e4d616e616765723a20496e76616c6964206164647265604482015261737360f01b60648201526084016104a8565b600e80546001600160a01b0319166001600160a01b0392909216919091179055565b600c602090815260009283526040808420909152908252902080546001820180549192916110e6906122c8565b80601f0160208091040260200160405190810160405280929190818152602001828054611112906122c8565b801561115f5780601f106111345761010080835404028352916020019161115f565b820191906000526020600020905b81548152906001019060200180831161114257829003601f168201915b50505060028401546003850154600486015460058701546006909701549596929591945060ff16925087565b6111936116e0565b61119b61170a565b336000908152600b60205260409020600681015460ff166111ce5760405162461bcd60e51b81526004016104a89061223c565b604080516101408101825282546001600160a01b03168152600183015460208201526002830154918101919091526003820154606082015260048201546080820152600582015460a0820152600682015460ff808216151560c08401526101008083048216151560e08501526201000090920416151590820152600782015461012082015261125c90611c8b565b156112b75760405162461bcd60e51b815260206004820152602560248201527f4576616c756174696f6e4d616e616765723a204576616c756174696f6e2065786044820152641c1a5c995960da1b60648201526084016104a8565b600083116113075760405162461bcd60e51b815260206004820152601f60248201527f4576616c756174696f6e4d616e616765723a20496e76616c69642073697a650060448201526064016104a8565b60025460405163f66a1b7160e01b81526000916001600160a01b03169063f66a1b719061133a908990899060040161254b565b6040805180830381865afa158015611356573d6000803e3d6000fd5b505050506040513d601f19601f8201168201806040525081019061137a919061238d565b5090506000811161139d5760405162461bcd60e51b81526004016104a8906123b1565b600a60006113ab828761255f565b905083600201548111156114195760405162461bcd60e51b815260206004820152602f60248201527f4576616c756174696f6e4d616e616765723a20496e73756666696369656e742060448201526e7669727475616c2062616c616e636560881b60648201526084016104a8565b336000908152600d60205260408120805491611434836124d9565b9091555050336000908152600d602090815260409182902054825160e0810184528181528351601f8c018490048402810184019094528a84529092909182810191908c908c90819084018382808284376000920182905250938552505050602080830188905260408084018c90528a15156060850152608084018790524260a090940193909352338252600c81528282208583528152919020825181559082015160018201906114e490826125d7565b50604082015181600201556060820151816003015560808201518160040160006101000a81548160ff02191690831515021790555060a0820151816005015560c082015181600601559050508185600201600082825461154491906124c6565b9091555050604051819033907fcb2831b745cdc56b7f2c336a3fb7cdbadcc2ba63a6a1ad91632b0a695b86316a90611585908d908d908d908d908c90612697565b60405180910390a3505050505061159b60018055565b50505050565b61160660405180610140016040528060006001600160a01b031681526020016000815260200160008152602001600081526020016000815260200160008152602001600015158152602001600015158152602001600015158152602001600081525090565b506001600160a01b039081166000908152600b6020908152604091829020825161014081018452815490941684526001810154918401919091526002810154918301919091526003810154606083015260048101546080830152600581015460a0830152600681015460ff808216151560c08501526101008083048216151560e086015262010000909204161515908301526007015461012082015290565b6116ad611a60565b6001600160a01b0381166116d757604051631e4fbdf760e01b8152600060048201526024016104a8565b61079181611bb6565b60026001540361170357604051633ee5aeb560e01b815260040160405180910390fd5b6002600155565b600054600160a01b900460ff1615610aca5760405163d93c066560e01b815260040160405180910390fd5b60008082116117865760405162461bcd60e51b815260206004820152601d60248201527f4d6174683a20496e76616c69642068696768207761746572206d61726b00000060448201526064016104a8565b8183106117955750600061096c565b60006117a184846124c6565b9050826117b0612710836126c8565b6117ba919061255f565b949350505050565b6001600160a01b038082166000908152600b6020908152604091829020825161014081018452815490941684526001810154918401919091526002810154918301919091526003810154606083015260048101546080830152600581015460a0830152600681015460ff808216151560c08501526101008083048216151560e0860152620100009092041615159083015260078101546101208301529061186890611c8b565b1561189f5761189b826040518060400160405280600c81526020016b151a5b5948195e1c1a5c995960a21b815250611b3c565b5050565b600654600482015411156118ec5761189b826040518060400160405280601781526020017f44726177646f776e206c696d6974206578636565646564000000000000000000815250611b3c565b6004546005546000916118fe91611ca7565b60045461190b9190612497565b9050808260020154101580156119275750600754600583015410155b15610eb357610eb383611cc7565b60008085116119865760405162461bcd60e51b815260206004820152601960248201527f4d6174683a20496e76616c696420656e7472792070726963650000000000000060448201526064016104a8565b600084116119d65760405162461bcd60e51b815260206004820152601860248201527f4d6174683a20496e76616c69642065786974207072696365000000000000000060448201526064016104a8565b60008311611a1b5760405162461bcd60e51b81526020600482015260126024820152714d6174683a20496e76616c69642073697a6560701b60448201526064016104a8565b60008215611a3457611a2d86866123fc565b9050611a41565b611a3e85876123fc565b90505b85611a4c8583612423565b611a569190612469565b9695505050505050565b6000546001600160a01b03163314610aca5760405163118cdaa760e01b81523360048201526024016104a8565b611a95611e12565b6000805460ff60a01b191690557f5db9ee0a495bf2e6ff9c91a7834c1ba4fdd244a5e8aa4e537bd38aeae4b073aa335b6040516001600160a01b03909116815260200160405180910390a1565b604080516001600160a01b0385811660248301528416604482015260648082018490528251808303909101815260849091019091526020810180516001600160e01b03166323b872dd60e01b17905261159b908590611e3c565b6001600160a01b0382166000818152600b60205260409081902060068101805462ff00ff1916620100001790556007810154600282015492519193909290917f33f20b0476ebe69799d23930706dc7d5506dd1857f0c31c8ffb7b9a38e85c9d791611ba9918791906126df565b60405180910390a3505050565b600080546001600160a01b038381166001600160a01b0319831681178455604051919092169283917f8be0079c531659141344cd1fd0a4f28419497f9722a3daafe3b4186f6b6457e09190a35050565b6000821580611c16575061271083115b15611c235750600061096c565b811580611c3257506127108210155b15611c3f5750600061096c565b50600192915050565b611c5061170a565b6000805460ff60a01b1916600160a01b1790557f62e78cea01bee320cd4e420270b5ea74000d11b0c9f74754ebdbfc544b05a258611ac53390565b6008546020820151600091611c9f91612497565b421192915050565b6000612710611cb683856126c8565b611cc0919061255f565b9392505050565b6001600160a01b0381166000908152600b6020526040812060068101805461ffff19166101001790556004546002820154919291611d0591906124c6565b600354600784015460028501546004808701546005880154604051637ddfffbf60e01b81526001600160a01b038b8116948201949094526024810195909552604485019390935260648401869052608484015260a483019190915261138860c4830181905293945090911690637ddfffbf9060e4016020604051808303816000875af1158015611d99573d6000803e3d6000fd5b505050506040513d601f19601f82011682018060405250810190611dbd9190612701565b506007830154600284015460408051918252602082018590526001600160a01b038716917f1943f925cde6edb9d1544d816a78c4c67546266083da4c2a1086ca2ce1b3574e910160405180910390a350505050565b600054600160a01b900460ff16610aca57604051638dfc202b60e01b815260040160405180910390fd5b600080602060008451602086016000885af180611e5f576040513d6000823e3d81fd5b50506000513d91508115611e77578060011415611e84565b6001600160a01b0384163b155b1561159b57604051635274afe760e01b81526001600160a01b03851660048201526024016104a8565b508054611eb9906122c8565b6000825580601f10611ec9575050565b601f01602090049060005260206000209081019061079191905b80821115611ef75760008155600101611ee3565b5090565b600060208284031215611f0d57600080fd5b5035919050565b80356001600160a01b0381168114611f2b57600080fd5b919050565b60008060408385031215611f4357600080fd5b611f4c83611f14565b946020939093013593505050565b6000815180845260005b81811015611f8057602081850181015186830182015201611f64565b506000602082860101526020601f19601f83011685010191505092915050565b60208152815160208201526000602083015160e06040840152611fc7610100840182611f5a565b905060408401516060840152606084015160808401526080840151151560a084015260a084015160c084015260c084015160e08401528091505092915050565b60008083601f84011261201957600080fd5b50813567ffffffffffffffff81111561203157600080fd5b60208301915083602082850101111561204957600080fd5b9250929050565b60008060006040848603121561206557600080fd5b61206e84611f14565b9250602084013567ffffffffffffffff81111561208a57600080fd5b61209686828701612007565b9497909650939450505050565b60008060008060008060c087890312156120bc57600080fd5b505084359660208601359650604086013595606081013595506080810135945060a0013592509050565b6000602082840312156120f857600080fd5b611cc082611f14565b87815260e06020820152600061211a60e0830189611f5a565b6040830197909752506060810194909452911515608084015260a083015260c09091015292915050565b801515811461079157600080fd5b6000806000806060858703121561216857600080fd5b843567ffffffffffffffff81111561217f57600080fd5b61218b87828801612007565b9095509350506020850135915060408501356121a681612144565b939692955090935050565b81516001600160a01b0316815261014081016020830151602083015260408301516040830152606083015160608301526080830151608083015260a083015160a083015260c083015161220860c084018215159052565b5060e083015161221c60e084018215159052565b506101008381015180151584830152505061012092830151919092015290565b60208082526027908201527f4576616c756174696f6e4d616e616765723a204e6f2061637469766520657661604082015266363ab0ba34b7b760c91b606082015260800190565b60208082526025908201527f4576616c756174696f6e4d616e616765723a20506f736974696f6e206e6f7420604082015264199bdd5b9960da1b606082015260800190565b600181811c908216806122dc57607f821691505b6020821081036122fc57634e487b7160e01b600052602260045260246000fd5b50919050565b6000602080835260008454612316816122c8565b8084870152604060018084166000811461233757600181146123515761237f565b60ff1985168984015283151560051b89018301955061237f565b896000528660002060005b858110156123775781548b820186015290830190880161235c565b8a0184019650505b509398975050505050505050565b600080604083850312156123a057600080fd5b505080516020909101519092909150565b6020808252818101527f4576616c756174696f6e4d616e616765723a20496e76616c6964207072696365604082015260600190565b634e487b7160e01b600052601160045260246000fd5b818103600083128015838313168383128216171561241c5761241c6123e6565b5092915050565b80820260008212600160ff1b8414161561243f5761243f6123e6565b818105831482151761096c5761096c6123e6565b634e487b7160e01b600052601260045260246000fd5b60008261247857612478612453565b600160ff1b821460001984141615612492576124926123e6565b500590565b8082018082111561096c5761096c6123e6565b6000600160ff1b82016124bf576124bf6123e6565b5060000390565b8181038181111561096c5761096c6123e6565b6000600182016124eb576124eb6123e6565b5060010190565b602081526000611cc06020830184611f5a565b60006020828403121561251757600080fd5b8151611cc081612144565b81835281816020850137506000828201602090810191909152601f909101601f19169091010190565b6020815260006117ba602083018486612522565b60008261256e5761256e612453565b500490565b634e487b7160e01b600052604160045260246000fd5b601f821115610eb357600081815260208120601f850160051c810160208610156125b05750805b601f850160051c820191505b818110156125cf578281556001016125bc565b505050505050565b815167ffffffffffffffff8111156125f1576125f1612573565b612605816125ff84546122c8565b84612589565b602080601f83116001811461263a57600084156126225750858301515b600019600386901b1c1916600185901b1785556125cf565b600085815260208120601f198616915b828110156126695788860151825594840194600190910190840161264a565b50858210156126875787850151600019600388901b60f8161c191681555b5050505050600190811b01905550565b6080815260006126ab608083018789612522565b602083019590955250911515604083015260609091015292915050565b808202811582820484141761096c5761096c6123e6565b6040815260006126f26040830185611f5a565b90508260208301529392505050565b60006020828403121561271357600080fd5b505191905056fea2646970667358221220017e440cbae921a89959d3eb38ceed52151551ba00d2fbc07294b4a68e778fcf64736f6c63430008140033",
  "linkReferences": {},
  "deployedLinkReferences": {}
}