{
  "_format": "hh-sol-artifact-1",
  "contractName": "TreasuryManager",
  "sourceName": "contracts/governance/TreasuryManager.sol",
  "abi": [
    {
      "inputs": [
        {
          "internalType": "address",
          "name": "_collateralToken",
          "type": "address"
        },
        {
          "internalType": "address",
          "name": "_initialOwner",
          "type": "address"
        }
      ],
      "stateMutability": "nonpayable",
      "type": "constructor"
    },
    {
      "inputs": [],
      "name": "EnforcedPause",
      "type": "error"
    },
    {
      "inputs": [],
      "name": "ExpectedPause",
      "type": "error"
    },
    {
      "inputs": [
        {
          "internalType": "address",
          "name": "owner",
          "type": "address"
        }
      ],
      "name": "OwnableInvalidOwner",
      "type": "error"
    },
    {
      "inputs": [
        {
          "internalType": "address",
          "name": "account",
          "type": "address"
        }
      ],
      "name": "OwnableUnauthorizedAccount",
      "type": "error"
    },
    {
      "inputs": [],
      "name": "ReentrancyGuardReentrantCall",
      "type": "error"
    },
    {
      "inputs": [
        {
          "internalType": "address",
          "name": "token",
          "type": "address"
        }
      ],
      "name": "SafeERC20FailedOperation",
      "type": "error"
    },
    {
      "anonymous": false,
      "inputs": [
        {
          "indexed": true,
          "internalType": "address",
          "name": "allocator",
          "type": "address"
        },
        {
          "indexed": false,
          "internalType": "bool",
          "name": "authorized",
          "type": "bool"
        }
      ],
      "name": "AllocatorAuthorized",
      "type": "event"
    },
    {
      "anonymous": false,
      "inputs": [
        {
          "indexed": true,
          "internalType": "address",
          "name": "vault",
          "type": "address"
        },
        {
          "indexed": false,
          "internalType": "uint256",
          "name": "amount",
          "type": "uint256"
        }
      ],
      "name": "CapitalAllocated",
      "type": "event"
    },
    {
      "anonymous": false,
      "inputs": [
        {
          "indexed": true,
          "internalType": "address",
          "name": "depositor",
          "type": "address"
        },
        {
          "indexed": false,
          "internalType": "uint256",
          "name": "amount",
          "type": "uint256"
        }
      ],
      "name": "CapitalDeposited",
      "type": "event"
    },
    {
      "anonymous": false,
      "inputs": [
        {
          "indexed": true,
          "internalType": "address",
          "name": "recipient",
          "type": "address"
        },
        {
          "indexed": false,
          "internalType": "uint256",
          "name": "amount",
          "type": "uint256"
        }
      ],
      "name": "CapitalWithdrawn",
      "type": "event"
    },
    {
      "anonymous": false,
      "inputs": [
        {
          "indexed": true,
          "internalType": "address",
          "name": "previousOwner",
          "type": "address"
        },
        {
          "indexed": true,
          "internalType": "address",
          "name": "newOwner",
          "type": "address"
        }
      ],
      "name": "OwnershipTransferred",
      "type": "event"
    },
    {
      "anonymous": false,
      "inputs": [
        {
          "indexed": false,
          "internalType": "address",
          "name": "account",
          "type": "address"
        }
      ],
      "name": "Paused",
      "type": "event"
    },
    {
      "anonymous": false,
      "inputs": [
        {
          "indexed": true,
          "internalType": "address",
          "name": "vault",
          "type": "address"
        },
        {
          "indexed": false,
          "internalType": "uint256",
          "name": "amount",
          "type": "uint256"
        }
      ],
      "name": "ProfitReceived",
      "type": "event"
    },
    {
      "anonymous": false,
      "inputs": [
        {
          "indexed": false,
          "internalType": "address",
          "name": "account",
          "type": "address"
        }
      ],
      "name": "Unpaused",
      "type": "event"
    },
    {
      "anonymous": false,
      "inputs": [
        {
          "indexed": true,
          "internalType": "address",
          "name": "oldFactory",
          "type": "address"
        },
        {
          "indexed": true,
          "internalType": "address",
          "name": "newFactory",
          "type": "address"
        }
      ],
      "name": "VaultFactoryUpdated",
      "type": "event"
    },
    {
      "inputs": [
        {
          "internalType": "address",
          "name": "vault",
          "type": "address"
        },
        {
          "internalType": "uint256",
          "name": "amount",
          "type": "uint256"
        }
      ],
      "name": "allocateToVault",
      "outputs": [],
      "stateMutability": "nonpayable",
      "type": "function"
    },
    {
      "inputs": [
        {
          "internalType": "address",
          "name": "",
          "type": "address"
        }
      ],
      "name": "authorizedAllocators",
      "outputs": [
        {
          "internalType": "bool",
          "name": "",
          "type": "bool"
        }
      ],
      "stateMutability": "view",
      "type": "function"
    },
    {
      "inputs": [],
      "name": "collateralToken",
      "outputs": [
        {
          "internalType": "contract IERC20",
          "name": "",
          "type": "address"
        }
      ],
      "stateMutability": "view",
      "type": "function"
    },
    {
      "inputs": [
        {
          "internalType": "address",
          "name": "vault",
          "type": "address"
        },
        {
          "internalType": "uint256",
          "name": "amount",
          "type": "uint256"
        }
      ],
      "name": "deallocateFromVault",
      "outputs": [],
      "stateMutability": "nonpayable",
      "type": "function"
    },
    {
      "inputs": [
        {
          "internalType": "uint256",
          "name": "amount",
          "type": "uint256"
        }
      ],
      "name": "depositCapital",
      "outputs": [],
      "stateMutability": "nonpayable",
      "type": "function"
    },
    {
      "inputs": [
        {
          "internalType": "address",
          "name": "recipient",
          "type": "address"
        }
      ],
      "name": "emergencyWithdraw",
      "outputs": [],
      "stateMutability": "nonpayable",
      "type": "function"
    },
    {
      "inputs": [],
      "name": "getAvailableBalance",
      "outputs": [
        {
          "internalType": "uint256",
          "name": "",
          "type": "uint256"
        }
      ],
      "stateMutability": "view",
      "type": "function"
    },
    {
      "inputs": [],
      "name": "getTreasuryBalance",
      "outputs": [
        {
          "internalType": "uint256",
          "name": "",
          "type": "uint256"
        }
      ],
      "stateMutability": "view",
      "type": "function"
    },
    {
      "inputs": [
        {
          "internalType": "address",
          "name": "vault",
          "type": "address"
        }
      ],
      "name": "getVaultAllocation",
      "outputs": [
        {
          "internalType": "uint256",
          "name": "",
          "type": "uint256"
        }
      ],
      "stateMutability": "view",
      "type": "function"
    },
    {
      "inputs": [],
      "name": "owner",
      "outputs": [
        {
          "internalType": "address",
          "name": "",
          "type": "address"
        }
      ],
      "stateMutability": "view",
      "type": "function"
    },
    {
      "inputs": [],
      "name": "pause",
      "outputs": [],
      "stateMutability": "nonpayable",
      "type": "function"
    },
    {
      "inputs": [],
      "name": "paused",
      "outputs": [
        {
          "internalType": "bool",
          "name": "",
          "type": "bool"
        }
      ],
      "stateMutability": "view",
      "type": "function"
    },
    {
      "inputs": [
        {
          "internalType": "uint256",
          "name": "amount",
          "type": "uint256"
        }
      ],
      "name": "receiveProfit",
      "outputs": [],
      "stateMutability": "nonpayable",
      "type": "function"
    },
    {
      "inputs": [],
      "name": "renounceOwnership",
      "outputs": [],
      "stateMutability": "nonpayable",
      "type": "function"
    },
    {
      "inputs": [
        {
          "internalType": "address",
          "name": "allocator",
          "type": "address"
        },
        {
          "internalType": "bool",
          "name": "authorized",
          "type": "bool"
        }
      ],
      "name": "setAuthorizedAllocator",
      "outputs": [],
      "stateMutability": "nonpayable",
      "type": "function"
    },
    {
      "inputs": [
        {
          "internalType": "address",
          "name": "_vaultFactory",
          "type": "address"
        }
      ],
      "name": "setVaultFactory",
      "outputs": [],
      "stateMutability": "nonpayable",
      "type": "function"
    },
    {
      "inputs": [],
      "name": "totalAllocated",
      "outputs": [
        {
          "internalType": "uint256",
          "name": "",
          "type": "uint256"
        }
      ],
      "stateMutability": "view",
      "type": "function"
    },
    {
      "inputs": [],
      "name": "totalProfitCollected",
      "outputs": [
        {
          "internalType": "uint256",
          "name": "",
          "type": "uint256"
        }
      ],
      "stateMutability": "view",
      "type": "function"
    },
    {
      "inputs": [
        {
          "internalType": "address",
          "name": "newOwner",
          "type": "address"
        }
      ],
      "name": "transferOwnership",
      "outputs": [],
      "stateMutability": "nonpayable",
      "type": "function"
    },
    {
      "inputs": [],
      "name": "unpause",
      "outputs": [],
      "stateMutability": "nonpayable",
      "type": "function"
    },
    {
      "inputs": [
        {
          "internalType": "address",
          "name": "",
          "type": "address"
        }
      ],
      "name": "vaultAllocations",
      "outputs": [
        {
          "internalType": "uint256",
          "name": "",
          "type": "uint256"
        }
      ],
      "stateMutability": "view",
      "type": "function"
    },
    {
      "inputs": [],
      "name": "vaultFactory",
      "outputs": [
        {
          "internalType": "address",
          "name": "",
          "type": "address"
        }
      ],
      "stateMutability": "view",
      "type": "function"
    },
    {
      "inputs": [
        {
          "internalType": "uint256",
          "name": "amount",
          "type": "uint256"
        },
        {
          "internalType": "address",
          "name": "recipient",
          "type": "address"
        }
      ],
      "name": "withdrawCapital",
      "outputs": [],
      "stateMutability": "nonpayable",
      "type": "function"
    }
  ],
  "bytecode": "0x60a06040523480156200001157600080fd5b5060405162001586380380620015868339810160408190526200003491620001a5565b806001600160a01b0381166200006557604051631e4fbdf760e01b8152600060048201526024015b60405180910390fd5b620000708162000138565b50600180556001600160a01b038216620000cd5760405162461bcd60e51b815260206004820152601e60248201527f54726561737572794d616e616765723a20496e76616c696420746f6b656e000060448201526064016200005c565b6001600160a01b038116620001255760405162461bcd60e51b815260206004820152601e60248201527f54726561737572794d616e616765723a20496e76616c6964206f776e6572000060448201526064016200005c565b506001600160a01b0316608052620001dd565b600080546001600160a01b038381166001600160a01b0319831681178455604051919092169283917f8be0079c531659141344cd1fd0a4f28419497f9722a3daafe3b4186f6b6457e09190a35050565b80516001600160a01b0381168114620001a057600080fd5b919050565b60008060408385031215620001b957600080fd5b620001c48362000188565b9150620001d46020840162000188565b90509250929050565b608051611355620002316000396000818161028e01528181610515015281816105e4015281816106b6015281816108a301528181610ba701528181610c3701528181610cec0152610e1d01526113556000f3fe608060405234801561001057600080fd5b506004361061014d5760003560e01c806385608906116100c3578063ce8bb8781161007c578063ce8bb878146102b0578063d8a06f73146102b9578063f29dfb33146102cc578063f2fde38b146102df578063f7e8f003146102f2578063fb329a291461031557600080fd5b806385608906146102235780638da5cb5b146102365780639558edf31461025b5780639b5655dc1461026e5780639e11ef4414610276578063b2016bd41461028957600080fd5b806364690c3c1161011557806364690c3c146101d25780636ff1c9bc146101e5578063715018a6146101f8578063751b2f3c14610200578063809dab6a146102135780638456cb591461021b57600080fd5b8063041aa037146101525780633ea7fbdb1461018e5780633f4ba83a146101a357806345f7f249146101ab5780635c975abb146101b4575b600080fd5b61017b61016036600461117e565b6001600160a01b031660009081526005602052604090205490565b6040519081526020015b60405180910390f35b6101a161019c36600461117e565b610335565b005b6101a1610472565b61017b60035481565b600054600160a01b900460ff165b6040519015158152602001610185565b6101a16101e03660046111a0565b610484565b6101a16101f336600461117e565b610596565b6101a1610718565b6101a161020e3660046111b9565b61072a565b61017b610881565b6101a1610933565b6101a16102313660046111e3565b610943565b6000546001600160a01b03165b6040516001600160a01b039091168152602001610185565b6101a16102693660046111b9565b610a04565b61017b610c1f565b6101a16102843660046111a0565b610caf565b6102437f000000000000000000000000000000000000000000000000000000000000000081565b61017b60045481565b600254610243906001600160a01b031681565b6101a16102da36600461121f565b610d46565b6101a16102ed36600461117e565b610e7f565b6101c261030036600461117e565b60066020526000908152604090205460ff1681565b61017b61032336600461117e565b60056020526000908152604090205481565b61033d610eba565b6001600160a01b0381166103985760405162461bcd60e51b815260206004820181905260248201527f54726561737572794d616e616765723a20496e76616c696420666163746f727960448201526064015b60405180910390fd5b6002546001600160a01b031680156103cb576001600160a01b0381166000908152600660205260409020805460ff191690555b600280546001600160a01b0319166001600160a01b03848116918217909255600081815260066020526040808220805460ff191660011790555191928416917f53868f56bfc801ac43d4b11e6243478e06fd9bc8c3f990a75c6242486d1623ef9190a3604051600181526001600160a01b038316907f84cd32379fdd823d7b3e0a758c62bde0890404842d2b534ea901d53db65dbb00906020015b60405180910390a25050565b61047a610eba565b610482610ee7565b565b61048c610f3c565b600081116104ac5760405162461bcd60e51b815260040161038f9061124b565b336000908152600560205260409020546105085760405162461bcd60e51b815260206004820152601e60248201527f54726561737572794d616e616765723a20556e6b6e6f776e207661756c740000604482015260640161038f565b61053d6001600160a01b037f000000000000000000000000000000000000000000000000000000000000000016333084610f66565b806004600082825461054f9190611298565b909155505060405181815233907fb4a46c1bd84f6ead56b19bd0d3788d827200b4d73024081f1c083f904f68f21c906020015b60405180910390a261059360018055565b50565b61059e610eba565b6105a6610fd3565b6001600160a01b0381166105cc5760405162461bcd60e51b815260040161038f906112b1565b6040516370a0823160e01b81523060048201526000907f00000000000000000000000000000000000000000000000000000000000000006001600160a01b0316906370a0823190602401602060405180830381865afa158015610633573d6000803e3d6000fd5b505050506040513d601f19601f8201168201806040525081019061065791906112f3565b9050600081116106a95760405162461bcd60e51b815260206004820152601b60248201527f54726561737572794d616e616765723a204e6f2062616c616e63650000000000604482015260640161038f565b6106dd6001600160a01b037f0000000000000000000000000000000000000000000000000000000000000000168383610ffd565b816001600160a01b03167ffd282af50c2a0af33f26b6abcc27c8bae5fc57dc3f7ce9b71612b4cd6db59ca08260405161046691815260200190565b610720610eba565b6104826000611033565b3360009081526006602052604090205460ff166107895760405162461bcd60e51b815260206004820152601f60248201527f54726561737572794d616e616765723a204e6f7420617574686f72697a656400604482015260640161038f565b6001600160a01b0382166107df5760405162461bcd60e51b815260206004820152601e60248201527f54726561737572794d616e616765723a20496e76616c6964207661756c740000604482015260640161038f565b600081116107ff5760405162461bcd60e51b815260040161038f9061124b565b6001600160a01b0382166000908152600560205260409020548111156108375760405162461bcd60e51b815260040161038f9061124b565b6001600160a01b0382166000908152600560205260408120805483929061085f90849061130c565b925050819055508060036000828254610878919061130c565b90915550505050565b6040516370a0823160e01b815230600482015260009081906001600160a01b037f000000000000000000000000000000000000000000000000000000000000000016906370a0823190602401602060405180830381865afa1580156108ea573d6000803e3d6000fd5b505050506040513d601f19601f8201168201806040525081019061090e91906112f3565b9050600354811161092057600061092d565b60035461092d908261130c565b91505090565b61093b610eba565b610482611083565b61094b610eba565b6001600160a01b0382166109ac5760405162461bcd60e51b815260206004820152602260248201527f54726561737572794d616e616765723a20496e76616c696420616c6c6f63617460448201526137b960f11b606482015260840161038f565b6001600160a01b038216600081815260066020908152604091829020805460ff191685151590811790915591519182527f84cd32379fdd823d7b3e0a758c62bde0890404842d2b534ea901d53db65dbb009101610466565b610a0c610f3c565b610a146110c6565b3360009081526006602052604090205460ff16610a735760405162461bcd60e51b815260206004820152601f60248201527f54726561737572794d616e616765723a204e6f7420617574686f72697a656400604482015260640161038f565b6001600160a01b038216610ac95760405162461bcd60e51b815260206004820152601e60248201527f54726561737572794d616e616765723a20496e76616c6964207661756c740000604482015260640161038f565b60008111610ae95760405162461bcd60e51b815260040161038f9061124b565b6000610af3610881565b905080821115610b535760405162461bcd60e51b815260206004820152602560248201527f54726561737572794d616e616765723a20496e73756666696369656e742062616044820152646c616e636560d81b606482015260840161038f565b6001600160a01b03831660009081526005602052604081208054849290610b7b908490611298565b925050819055508160036000828254610b949190611298565b90915550610bce90506001600160a01b037f0000000000000000000000000000000000000000000000000000000000000000168484610ffd565b826001600160a01b03167f37a48a97a42bcba69a091a5e01d5a2d850cfde1c87b3ab0f7688093342368a8983604051610c0991815260200190565b60405180910390a250610c1b60018055565b5050565b6040516370a0823160e01b81523060048201526000907f00000000000000000000000000000000000000000000000000000000000000006001600160a01b0316906370a0823190602401602060405180830381865afa158015610c86573d6000803e3d6000fd5b505050506040513d601f19601f82011682018060405250810190610caa91906112f3565b905090565b610cb7610f3c565b610cbf6110c6565b60008111610cdf5760405162461bcd60e51b815260040161038f9061124b565b610d146001600160a01b037f000000000000000000000000000000000000000000000000000000000000000016333084610f66565b60405181815233907faa72ad912d8778453c6fbde6cd2557892fed031985b1c7e2ae57112118b9a33290602001610582565b610d4e610eba565b610d56610f3c565b60008211610d765760405162461bcd60e51b815260040161038f9061124b565b6001600160a01b038116610d9c5760405162461bcd60e51b815260040161038f906112b1565b6000610da6610881565b905080831115610e105760405162461bcd60e51b815260206004820152602f60248201527f54726561737572794d616e616765723a20496e73756666696369656e7420617660448201526e61696c61626c652062616c616e636560881b606482015260840161038f565b610e446001600160a01b037f0000000000000000000000000000000000000000000000000000000000000000168385610ffd565b816001600160a01b03167ffd282af50c2a0af33f26b6abcc27c8bae5fc57dc3f7ce9b71612b4cd6db59ca084604051610c0991815260200190565b610e87610eba565b6001600160a01b038116610eb157604051631e4fbdf760e01b81526000600482015260240161038f565b61059381611033565b6000546001600160a01b031633146104825760405163118cdaa760e01b815233600482015260240161038f565b610eef610fd3565b6000805460ff60a01b191690557f5db9ee0a495bf2e6ff9c91a7834c1ba4fdd244a5e8aa4e537bd38aeae4b073aa335b6040516001600160a01b03909116815260200160405180910390a1565b600260015403610f5f57604051633ee5aeb560e01b815260040160405180910390fd5b6002600155565b6040516001600160a01b038481166024830152838116604483015260648201839052610fcd9186918216906323b872dd906084015b604051602081830303815290604052915060e01b6020820180516001600160e01b0383818316178352505050506110f1565b50505050565b600054600160a01b900460ff1661048257604051638dfc202b60e01b815260040160405180910390fd5b6040516001600160a01b0383811660248301526044820183905261102e91859182169063a9059cbb90606401610f9b565b505050565b600080546001600160a01b038381166001600160a01b0319831681178455604051919092169283917f8be0079c531659141344cd1fd0a4f28419497f9722a3daafe3b4186f6b6457e09190a35050565b61108b6110c6565b6000805460ff60a01b1916600160a01b1790557f62e78cea01bee320cd4e420270b5ea74000d11b0c9f74754ebdbfc544b05a258610f1f3390565b600054600160a01b900460ff16156104825760405163d93c066560e01b815260040160405180910390fd5b600080602060008451602086016000885af180611114576040513d6000823e3d81fd5b50506000513d9150811561112c578060011415611139565b6001600160a01b0384163b155b15610fcd57604051635274afe760e01b81526001600160a01b038516600482015260240161038f565b80356001600160a01b038116811461117957600080fd5b919050565b60006020828403121561119057600080fd5b61119982611162565b9392505050565b6000602082840312156111b257600080fd5b5035919050565b600080604083850312156111cc57600080fd5b6111d583611162565b946020939093013593505050565b600080604083850312156111f657600080fd5b6111ff83611162565b91506020830135801515811461121457600080fd5b809150509250929050565b6000806040838503121561123257600080fd5b8235915061124260208401611162565b90509250929050565b6020808252601f908201527f54726561737572794d616e616765723a20496e76616c696420616d6f756e7400604082015260600190565b634e487b7160e01b600052601160045260246000fd5b808201808211156112ab576112ab611282565b92915050565b60208082526022908201527f54726561737572794d616e616765723a20496e76616c696420726563697069656040820152611b9d60f21b606082015260800190565b60006020828403121561130557600080fd5b5051919050565b818103818111156112ab576112ab61128256fea26469706673582212205f0bf24edaf1330cfc8323cde3c41c204d02ef7f3cd9108b5f6ec2765d34531764736f6c63430008140033",
  "linkReferences": {},
  "deployedLinkReferences": {}
}