{
  "_format": "hh-sol-artifact-1",
  "contractName": "TestMath",
  "sourceName": "contracts/test/TestMath.sol",
  "abi": [
    {
      "inputs": [
        {
          "internalType": "uint256",
          "name": "value",
          "type": "uint256"
        },
        {
          "internalType": "uint256",
          "name": "bps",
          "type": "uint256"
        }
      ],
      "name": "applyBasisPoints",
      "outputs": [
        {
          "internalType": "uint256",
          "name": "",
          "type": "uint256"
        }
      ],
      "stateMutability": "pure",
      "type": "function"
    },
    {
      "inputs": [
        {
          "internalType": "uint256",
          "name": "currentBalance",
          "type": "uint256"
        },
        {
          "internalType": "uint256",
          "name": "highWaterMark",
          "type": "uint256"
        }
      ],
      "name": "calculateDrawdown",
      "outputs": [
        {
          "internalType": "uint256",
          "name": "",
          "type": "uint256"
        }
      ],
      "stateMutability": "pure",
      "type": "function"
    },
    {
      "inputs": [
        {
          "internalType": "uint256",
          "name": "entryPrice",
          "type": "uint256"
        },
        {
          "internalType": "uint256",
          "name": "leverage",
          "type": "uint256"
        },
        {
          "internalType": "bool",
          "name": "isLong",
          "type": "bool"
        }
      ],
      "name": "calculateLiquidationPrice",
      "outputs": [
        {
          "internalType": "uint256",
          "name": "",
          "type": "uint256"
        }
      ],
      "stateMutability": "pure",
      "type": "function"
    },
    {
      "inputs": [
        {
          "internalType": "uint256",
          "name": "oldValue",
          "type": "uint256"
        },
        {
          "internalType": "uint256",
          "name": "newValue",
          "type": "uint256"
        }
      ],
      "name": "calculatePercentageChange",
      "outputs": [
        {
          "internalType": "uint256",
          "name": "",
          "type": "uint256"
        }
      ],
      "stateMutability": "pure",
      "type": "function"
    },
    {
      "inputs": [
        {
          "internalType": "uint256",
          "name": "entryPrice",
          "type": "uint256"
        },
        {
          "internalType": "uint256",
          "name": "exitPrice",
          "type": "uint256"
        },
        {
          "internalType": "uint256",
          "name": "size",
          "type": "uint256"
        },
        {
          "internalType": "bool",
          "name": "isLong",
          "type": "bool"
        }
      ],
      "name": "calculatePnL",
      "outputs": [
        {
          "internalType": "int256",
          "name": "",
          "type": "int256"
        }
      ],
      "stateMutability": "pure",
      "type": "function"
    },
    {
      "inputs": [
        {
          "internalType": "uint256",
          "name": "size",
          "type": "uint256"
        },
        {
          "internalType": "uint256",
          "name": "leverage",
          "type": "uint256"
        },
        {
          "internalType": "uint256",
          "name": "price",
          "type": "uint256"
        }
      ],
      "name": "calculateRequiredMargin",
      "outputs": [
        {
          "internalType": "uint256",
          "name": "",
          "type": "uint256"
        }
      ],
      "stateMutability": "pure",
      "type": "function"
    },
    {
      "inputs": [
        {
          "internalType": "uint256[]",
          "name": "prices",
          "type": "uint256[]"
        },
        {
          "internalType": "uint256[]",
          "name": "timestamps",
          "type": "uint256[]"
        },
        {
          "internalType": "uint256",
          "name": "period",
          "type": "uint256"
        }
      ],
      "name": "calculateTWAP",
      "outputs": [
        {
          "internalType": "uint256",
          "name": "",
          "type": "uint256"
        }
      ],
      "stateMutability": "view",
      "type": "function"
    },
    {
      "inputs": [],
      "name": "getBpsDenominator",
      "outputs": [
        {
          "internalType": "uint256",
          "name": "",
          "type": "uint256"
        }
      ],
      "stateMutability": "pure",
      "type": "function"
    },
    {
      "inputs": [
        {
          "internalType": "uint256",
          "name": "oldValue",
          "type": "uint256"
        },
        {
          "internalType": "uint256",
          "name": "newValue",
          "type": "uint256"
        },
        {
          "internalType": "uint256",
          "name": "maxDeviationBps",
          "type": "uint256"
        }
      ],
      "name": "isWithinDeviation",
      "outputs": [
        {
          "internalType": "bool",
          "name": "",
          "type": "bool"
        }
      ],
      "stateMutability": "pure",
      "type": "function"
    },
    {
      "inputs": [
        {
          "internalType": "uint256",
          "name": "totalProfit",
          "type": "uint256"
        },
        {
          "internalType": "uint256",
          "name": "traderShareBps",
          "type": "uint256"
        }
      ],
      "name": "splitProfit",
      "outputs": [
        {
          "internalType": "uint256",
          "name": "traderAmount",
          "type": "uint256"
        },
        {
          "internalType": "uint256",
          "name": "firmAmount",
          "type": "uint256"
        }
      ],
      "stateMutability": "pure",
      "type": "function"
    }
  ],
  "bytecode": "0x608060405234801561001057600080fd5b50610d60806100206000396000f3fe608060405234801561001057600080fd5b506004361061009e5760003560e01c80636947a628116100665780636947a6281461010a5780636a89ae61146101325780637e102ffb14610145578063e2c6157814610158578063ead7b2a31461017b57600080fd5b8063068d9903146100a35780630732126e146100c95780630a74adeb146100dc5780635a003134146100ef5780636328b25c146100f7575b600080fd5b6100b66100b1366004610929565b61018e565b6040519081526020015b60405180910390f35b6100b66100d7366004610968565b6101a5565b6100b66100ea366004610a45565b6101bc565b6127106100b6565b6100b6610105366004610ab2565b6101c9565b61011d610118366004610ab2565b6101de565b604080519283526020830191909152016100c0565b6100b6610140366004610ad4565b6101f6565b6100b6610153366004610ab2565b610203565b61016b610166366004610968565b61020f565b60405190151581526020016100c0565b6100b6610189366004610ab2565b61021c565b600061019c85858585610228565b95945050505050565b60006101b2848484610354565b90505b9392505050565b60006101b2848484610412565b60006101d58383610674565b90505b92915050565b6000806101eb8484610701565b915091509250929050565b60006101b284848461076b565b60006101d58383610838565b60006101b2848484610851565b60006101d5838361087b565b600080851161027a5760405162461bcd60e51b81526020600482015260196024820152784d6174683a20496e76616c696420656e74727920707269636560381b60448201526064015b60405180910390fd5b600084116102ca5760405162461bcd60e51b815260206004820152601860248201527f4d6174683a20496e76616c6964206578697420707269636500000000000000006044820152606401610271565b6000831161030f5760405162461bcd60e51b81526020600482015260126024820152714d6174683a20496e76616c69642073697a6560701b6044820152606401610271565b60008215610328576103218686610b1f565b9050610335565b6103328587610b1f565b90505b856103408583610b46565b61034a9190610b8c565b9695505050505050565b600080831161039e5760405162461bcd60e51b81526020600482015260166024820152754d6174683a20496e76616c6964206c6576657261676560501b6044820152606401610271565b600082116103e45760405162461bcd60e51b81526020600482015260136024820152724d6174683a20496e76616c696420707269636560681b6044820152606401610271565b60006103f26008600a610c9e565b6103fc8487610caa565b6104069190610cc1565b905061019c8482610cc1565b600082518451146104655760405162461bcd60e51b815260206004820152601b60248201527f4d6174683a204172726179206c656e677468206d69736d6174636800000000006044820152606401610271565b6002845110156104b75760405162461bcd60e51b815260206004820152601e60248201527f4d6174683a20496e73756666696369656e74206461746120706f696e747300006044820152606401610271565b600082116104fe5760405162461bcd60e51b815260206004820152601460248201527313585d1a0e88125b9d985b1a59081c195c9a5bd960621b6044820152606401610271565b42600061050b8483610cd5565b905060008060005b600189516105219190610cd5565b81101561060d578388828151811061053b5761053b610ce8565b60200260200101511015801561056957508488828151811061055f5761055f610ce8565b6020026020010151105b156105fb57600088828151811061058257610582610ce8565b6020026020010151898360016105989190610cfe565b815181106105a8576105a8610ce8565b60200260200101516105ba9190610cd5565b9050808a83815181106105cf576105cf610ce8565b60200260200101516105e19190610caa565b6105eb9085610cfe565b93506105f78184610cfe565b9250505b8061060581610d11565b915050610513565b506000811161065e5760405162461bcd60e51b815260206004820152601760248201527f4d6174683a204e6f206461746120696e20706572696f640000000000000000006044820152606401610271565b6106688183610cc1565b98975050505050505050565b60008082116106c55760405162461bcd60e51b815260206004820152601d60248201527f4d6174683a20496e76616c69642068696768207761746572206d61726b0000006044820152606401610271565b8183106106d4575060006101d8565b60006106e08484610cd5565b9050826106ef61271083610caa565b6106f99190610cc1565b949350505050565b60008061271083111561074c5760405162461bcd60e51b81526020600482015260136024820152724d6174683a20496e76616c696420736861726560681b6044820152606401610271565b6107568484610838565b91506107628285610cd5565b90509250929050565b60008084116107b85760405162461bcd60e51b81526020600482015260196024820152784d6174683a20496e76616c696420656e74727920707269636560381b6044820152606401610271565b600083116108015760405162461bcd60e51b81526020600482015260166024820152754d6174683a20496e76616c6964206c6576657261676560501b6044820152606401610271565b600061080d8486610cc1565b905082156108265761081f8186610cd5565b9150610830565b61019c8186610cfe565b509392505050565b60006127106108478385610caa565b6101d59190610cc1565b600083600003610863575060006101b5565b600061086f858561087b565b90921015949350505050565b60008083116108cc5760405162461bcd60e51b815260206004820152601e60248201527f4d6174683a204f6c642076616c75652063616e6e6f74206265207a65726f00006044820152606401610271565b8282106108fc57826127106108e18285610cd5565b6108eb9190610caa565b6108f59190610cc1565b90506101d8565b8261271061090a8483610cd5565b6108479190610caa565b8035801515811461092457600080fd5b919050565b6000806000806080858703121561093f57600080fd5b84359350602085013592506040850135915061095d60608601610914565b905092959194509250565b60008060006060848603121561097d57600080fd5b505081359360208301359350604090920135919050565b634e487b7160e01b600052604160045260246000fd5b600082601f8301126109bb57600080fd5b8135602067ffffffffffffffff808311156109d8576109d8610994565b8260051b604051601f19603f830116810181811084821117156109fd576109fd610994565b604052938452858101830193838101925087851115610a1b57600080fd5b83870191505b84821015610a3a57813583529183019190830190610a21565b979650505050505050565b600080600060608486031215610a5a57600080fd5b833567ffffffffffffffff80821115610a7257600080fd5b610a7e878388016109aa565b94506020860135915080821115610a9457600080fd5b50610aa1868287016109aa565b925050604084013590509250925092565b60008060408385031215610ac557600080fd5b50508035926020909101359150565b600080600060608486031215610ae957600080fd5b8335925060208401359150610b0060408501610914565b90509250925092565b634e487b7160e01b600052601160045260246000fd5b8181036000831280158383131683831282161715610b3f57610b3f610b09565b5092915050565b80820260008212600160ff1b84141615610b6257610b62610b09565b81810583148215176101d8576101d8610b09565b634e487b7160e01b600052601260045260246000fd5b600082610b9b57610b9b610b76565b600160ff1b821460001984141615610bb557610bb5610b09565b500590565b600181815b80851115610bf5578160001904821115610bdb57610bdb610b09565b80851615610be857918102915b93841c9390800290610bbf565b509250929050565b600082610c0c575060016101d8565b81610c19575060006101d8565b8160018114610c2f5760028114610c3957610c55565b60019150506101d8565b60ff841115610c4a57610c4a610b09565b50506001821b6101d8565b5060208310610133831016604e8410600b8410161715610c78575081810a6101d8565b610c828383610bba565b8060001904821115610c9657610c96610b09565b029392505050565b60006101d58383610bfd565b80820281158282048414176101d8576101d8610b09565b600082610cd057610cd0610b76565b500490565b818103818111156101d8576101d8610b09565b634e487b7160e01b600052603260045260246000fd5b808201808211156101d8576101d8610b09565b600060018201610d2357610d23610b09565b506001019056fea2646970667358221220e663e6ac8e416b561e76c541e2dab346e93aeaacc6a0aa3ea7f51164c88f894664736f6c63430008140033",
  "linkReferences": {},
  "deployedLinkReferences": {}
}