{
  "_format": "hh-sol-artifact-1",
  "contractName": "OracleRegistry",
  "sourceName": "contracts/synthetics/OracleRegistry.sol",
  "abi": [
    {
      "inputs": [
        {
          "internalType": "address",
          "name": "_initialOwner",
          "type": "address"
        }
      ],
      "stateMutability": "nonpayable",
      "type": "constructor"
    },
    {
      "inputs": [
        {
          "internalType": "address",
          "name": "owner",
          "type": "address"
        }
      ],
      "name": "OwnableInvalidOwner",
      "type": "error"
    },
    {
      "inputs": [
        {
          "internalType": "address",
          "name": "account",
          "type": "address"
        }
      ],
      "name": "OwnableUnauthorizedAccount",
      "type": "error"
    },
    {
      "anonymous": false,
      "inputs": [
        {
          "indexed": true,
          "internalType": "string",
          "name": "symbol",
          "type": "string"
        },
        {
          "indexed": true,
          "internalType": "address",
          "name": "oracle",
          "type": "address"
        }
      ],
      "name": "OracleRegistered",
      "type": "event"
    },
    {
      "anonymous": false,
      "inputs": [
        {
          "indexed": true,
          "internalType": "string",
          "name": "symbol",
          "type": "string"
        },
        {
          "indexed": true,
          "internalType": "address",
          "name": "oracle",
          "type": "address"
        }
      ],
      "name": "OracleRemoved",
      "type": "event"
    },
    {
      "anonymous": false,
      "inputs": [
        {
          "indexed": true,
          "internalType": "string",
          "name": "symbol",
          "type": "string"
        },
        {
          "indexed": true,
          "internalType": "address",
          "name": "oldOracle",
          "type": "address"
        },
        {
          "indexed": true,
          "internalType": "address",
          "name": "newOracle",
          "type": "address"
        }
      ],
      "name": "OracleUpdated",
      "type": "event"
    },
    {
      "anonymous": false,
      "inputs": [
        {
          "indexed": true,
          "internalType": "address",
          "name": "previousOwner",
          "type": "address"
        },
        {
          "indexed": true,
          "internalType": "address",
          "name": "newOwner",
          "type": "address"
        }
      ],
      "name": "OwnershipTransferred",
      "type": "event"
    },
    {
      "inputs": [],
      "name": "getAllSymbols",
      "outputs": [
        {
          "internalType": "string[]",
          "name": "",
          "type": "string[]"
        }
      ],
      "stateMutability": "view",
      "type": "function"
    },
    {
      "inputs": [
        {
          "internalType": "string",
          "name": "symbol",
          "type": "string"
        }
      ],
      "name": "getLatestPrice",
      "outputs": [
        {
          "internalType": "uint256",
          "name": "price",
          "type": "uint256"
        },
        {
          "internalType": "uint256",
          "name": "timestamp",
          "type": "uint256"
        }
      ],
      "stateMutability": "view",
      "type": "function"
    },
    {
      "inputs": [
        {
          "internalType": "string",
          "name": "symbol",
          "type": "string"
        }
      ],
      "name": "getOracle",
      "outputs": [
        {
          "internalType": "address",
          "name": "",
          "type": "address"
        }
      ],
      "stateMutability": "view",
      "type": "function"
    },
    {
      "inputs": [],
      "name": "getOracleCount",
      "outputs": [
        {
          "internalType": "uint256",
          "name": "",
          "type": "uint256"
        }
      ],
      "stateMutability": "view",
      "type": "function"
    },
    {
      "inputs": [
        {
          "internalType": "string",
          "name": "symbol",
          "type": "string"
        },
        {
          "internalType": "uint256",
          "name": "period",
          "type": "uint256"
        }
      ],
      "name": "getTWAP",
      "outputs": [
        {
          "internalType": "uint256",
          "name": "twap",
          "type": "uint256"
        }
      ],
      "stateMutability": "view",
      "type": "function"
    },
    {
      "inputs": [
        {
          "internalType": "string",
          "name": "",
          "type": "string"
        }
      ],
      "name": "isRegistered",
      "outputs": [
        {
          "internalType": "bool",
          "name": "",
          "type": "bool"
        }
      ],
      "stateMutability": "view",
      "type": "function"
    },
    {
      "inputs": [
        {
          "internalType": "address",
          "name": "oracle",
          "type": "address"
        }
      ],
      "name": "isValidOracle",
      "outputs": [
        {
          "internalType": "bool",
          "name": "",
          "type": "bool"
        }
      ],
      "stateMutability": "view",
      "type": "function"
    },
    {
      "inputs": [
        {
          "internalType": "string",
          "name": "",
          "type": "string"
        }
      ],
      "name": "oracles",
      "outputs": [
        {
          "internalType": "address",
          "name": "",
          "type": "address"
        }
      ],
      "stateMutability": "view",
      "type": "function"
    },
    {
      "inputs": [],
      "name": "owner",
      "outputs": [
        {
          "internalType": "address",
          "name": "",
          "type": "address"
        }
      ],
      "stateMutability": "view",
      "type": "function"
    },
    {
      "inputs": [
        {
          "internalType": "string",
          "name": "symbol",
          "type": "string"
        },
        {
          "internalType": "address",
          "name": "oracle",
          "type": "address"
        }
      ],
      "name": "registerOracle",
      "outputs": [],
      "stateMutability": "nonpayable",
      "type": "function"
    },
    {
      "inputs": [
        {
          "internalType": "uint256",
          "name": "",
          "type": "uint256"
        }
      ],
      "name": "registeredSymbols",
      "outputs": [
        {
          "internalType": "string",
          "name": "",
          "type": "string"
        }
      ],
      "stateMutability": "view",
      "type": "function"
    },
    {
      "inputs": [
        {
          "internalType": "string",
          "name": "symbol",
          "type": "string"
        }
      ],
      "name": "removeOracle",
      "outputs": [],
      "stateMutability": "nonpayable",
      "type": "function"
    },
    {
      "inputs": [],
      "name": "renounceOwnership",
      "outputs": [],
      "stateMutability": "nonpayable",
      "type": "function"
    },
    {
      "inputs": [
        {
          "internalType": "address",
          "name": "newOwner",
          "type": "address"
        }
      ],
      "name": "transferOwnership",
      "outputs": [],
      "stateMutability": "nonpayable",
      "type": "function"
    },
    {
      "inputs": [
        {
          "internalType": "string",
          "name": "symbol",
          "type": "string"
        },
        {
          "internalType": "address",
          "name": "newOracle",
          "type": "address"
        }
      ],
      "name": "updateOracle",
      "outputs": [],
      "stateMutability": "nonpayable",
      "type": "function"
    },
    {
      "inputs": [
        {
          "internalType": "string",
          "name": "symbol",
          "type": "string"
        }
      ],
      "name": "validateOracle",
      "outputs": [
        {
          "internalType": "bool",
          "name": "",
          "type": "bool"
        }
      ],
      "stateMutability": "view",
      "type": "function"
    }
  ],
  "bytecode": "0x60806040523480156200001157600080fd5b506040516200183c3803806200183c833981016040819052620000349162000120565b806001600160a01b0381166200006557604051631e4fbdf760e01b8152600060048201526024015b60405180910390fd5b6200007081620000d0565b506001600160a01b038116620000c95760405162461bcd60e51b815260206004820152601d60248201527f4f7261636c6552656769737472793a20496e76616c6964206f776e657200000060448201526064016200005c565b5062000152565b600080546001600160a01b038381166001600160a01b0319831681178455604051919092169283917f8be0079c531659141344cd1fd0a4f28419497f9722a3daafe3b4186f6b6457e09190a35050565b6000602082840312156200013357600080fd5b81516001600160a01b03811681146200014b57600080fd5b9392505050565b6116da80620001626000396000f3fe608060405234801561001057600080fd5b50600436106101005760003560e01c8063bb5779a111610097578063ec77aa5e11610066578063ec77aa5e14610248578063f2fde38b14610268578063f66a1b711461027b578063f8673682146102a357600080fd5b8063bb5779a1146101d1578063bed5f79c146101f4578063c822d7f014610207578063eb909ad61461023557600080fd5b80637aa6aea4116100d35780637aa6aea4146101855780637f59ea071461019a5780638da5cb5b146101ad578063a9daf6ad146101be57600080fd5b806324b8b845146101055780633f4e42511461011a57806367c2f3e114610131578063715018a61461017d575b600080fd5b61011861011336600461104d565b6102b6565b005b6002545b6040519081526020015b60405180910390f35b61016561013f3660046110b7565b80516020818301810180516001825292820191909301209152546001600160a01b031681565b6040516001600160a01b039091168152602001610128565b610118610440565b61018d610454565b60405161012891906111ae565b6101186101a836600461104d565b61052d565b6000546001600160a01b0316610165565b6101656101cc366004611210565b61075b565b6101e46101df366004611252565b6107d2565b6040519015158152602001610128565b61011e610202366004611274565b61086f565b6101e46102153660046110b7565b805160208183018101805160038252928201919093012091525460ff1681565b6101e4610243366004611210565b61094f565b61025b6102563660046112c0565b610b10565b60405161012891906112d9565b610118610276366004611252565b610bbc565b61028e610289366004611210565b610bfa565b60408051928352602083019190915201610128565b6101186102b1366004611210565b610cd6565b6102be610f24565b600383836040516102d09291906112ec565b9081526040519081900360200190205460ff166103345760405162461bcd60e51b815260206004820152601e60248201527f4f7261636c6552656769737472793a204e6f742072656769737465726564000060448201526064015b60405180910390fd5b6001600160a01b03811661038a5760405162461bcd60e51b815260206004820152601e60248201527f4f7261636c6552656769737472793a20496e76616c6964206f7261636c650000604482015260640161032b565b60006001848460405161039e9291906112ec565b908152604051908190036020018120546001600160a01b0316915082906001906103cb90879087906112ec565b90815260405190819003602001812080546001600160a01b039384166001600160a01b03199091161790558382169183169061040a90879087906112ec565b604051908190038120907f4c247df77fd31829837512d6c006db1212e42ae4ea8a129aec0b44c1019a23ad90600090a450505050565b610448610f24565b6104526000610f51565b565b60606002805480602002602001604051908101604052809291908181526020016000905b82821015610524578382906000526020600020018054610497906112fc565b80601f01602080910402602001604051908101604052809291908181526020018280546104c3906112fc565b80156105105780601f106104e557610100808354040283529160200191610510565b820191906000526020600020905b8154815290600101906020018083116104f357829003601f168201915b505050505081526020019060010190610478565b50505050905090565b610535610f24565b816105825760405162461bcd60e51b815260206004820152601e60248201527f4f7261636c6552656769737472793a20496e76616c69642073796d626f6c0000604482015260640161032b565b6001600160a01b0381166105d85760405162461bcd60e51b815260206004820152601e60248201527f4f7261636c6552656769737472793a20496e76616c6964206f7261636c650000604482015260640161032b565b600383836040516105ea9291906112ec565b9081526040519081900360200190205460ff16156106555760405162461bcd60e51b815260206004820152602260248201527f4f7261636c6552656769737472793a20416c7265616479207265676973746572604482015261195960f21b606482015260840161032b565b80600184846040516106689291906112ec565b908152602001604051809103902060006101000a8154816001600160a01b0302191690836001600160a01b031602179055506001600384846040516106ae9291906112ec565b908152604051908190036020019020805491151560ff19909216919091179055600280546001810182556000919091527f405787fa12a823e0f2b7631cc41b3ba8828b3321ca811111fa75cd3aa3bb5ace0161070b838583611385565b50806001600160a01b031683836040516107269291906112ec565b604051908190038120907f88679c6b9a65e366aee26a435deded38d7c81270852a190337609addcb15f07590600090a3505050565b60006003838360405161076f9291906112ec565b9081526040519081900360200190205460ff1661079e5760405162461bcd60e51b815260040161032b90611446565b600183836040516107b09291906112ec565b908152604051908190036020019020546001600160a01b031690505b92915050565b60006001600160a01b0382166107ea57506000919050565b60005b60025481101561086657826001600160a01b03166001600283815481106108165761081661147b565b9060005260206000200160405161082d9190611504565b908152604051908190036020019020546001600160a01b0316036108545750600192915050565b8061085e81611526565b9150506107ed565b50600092915050565b6000600384846040516108839291906112ec565b9081526040519081900360200190205460ff166108b25760405162461bcd60e51b815260040161032b90611446565b6000600185856040516108c69291906112ec565b9081526040519081900360200181205463f30d3d1b60e01b82526001600160a01b03169150819063f30d3d1b9061090590869060040190815260200190565b602060405180830381865afa158015610922573d6000803e3d6000fd5b505050506040513d601f19601f82011682018060405250810190610946919061153f565b95945050505050565b6000600383836040516109639291906112ec565b9081526040519081900360200190205460ff16610982575060006107cc565b6000600184846040516109969291906112ec565b908152604080516020928190038301812054635c975abb60e01b825291516001600160a01b0390921693508392635c975abb926004808401938290030181865afa1580156109e8573d6000803e3d6000fd5b505050506040513d601f19601f82011682018060405250810190610a0c9190611558565b15610a1b5760009150506107cc565b806001600160a01b0316632f5df7256040518163ffffffff1660e01b8152600401602060405180830381865afa158015610a59573d6000803e3d6000fd5b505050506040513d601f19601f82011682018060405250810190610a7d9190611558565b15610a8c5760009150506107cc565b6000816001600160a01b0316638e15f4736040518163ffffffff1660e01b81526004016040805180830381865afa158015610acb573d6000803e3d6000fd5b505050506040513d601f19601f82011682018060405250810190610aef919061157a565b50905080600003610b05576000925050506107cc565b506001949350505050565b60028181548110610b2057600080fd5b906000526020600020016000915090508054610b3b906112fc565b80601f0160208091040260200160405190810160405280929190818152602001828054610b67906112fc565b8015610bb45780601f10610b8957610100808354040283529160200191610bb4565b820191906000526020600020905b815481529060010190602001808311610b9757829003601f168201915b505050505081565b610bc4610f24565b6001600160a01b038116610bee57604051631e4fbdf760e01b81526000600482015260240161032b565b610bf781610f51565b50565b60008060038484604051610c0f9291906112ec565b9081526040519081900360200190205460ff16610c3e5760405162461bcd60e51b815260040161032b90611446565b600060018585604051610c529291906112ec565b9081526040805191829003602001822054638e15f47360e01b835281516001600160a01b0390911693508392638e15f4739260048083019391928290030181865afa158015610ca5573d6000803e3d6000fd5b505050506040513d601f19601f82011682018060405250810190610cc9919061157a565b92509250505b9250929050565b610cde610f24565b60038282604051610cf09291906112ec565b9081526040519081900360200190205460ff16610d4f5760405162461bcd60e51b815260206004820152601e60248201527f4f7261636c6552656769737472793a204e6f7420726567697374657265640000604482015260640161032b565b600060018383604051610d639291906112ec565b908152604051908190036020018120546001600160a01b03169150600190610d8e90859085906112ec565b90815260405190819003602001812080546001600160a01b0319169055600090600390610dbe90869086906112ec565b908152604051908190036020019020805491151560ff1990921691909117905560005b600254811015610ed4578383604051610dfb9291906112ec565b604051809103902060028281548110610e1657610e1661147b565b90600052602060002001604051610e2d9190611504565b604051809103902003610ec25760028054610e4a9060019061159e565b81548110610e5a57610e5a61147b565b9060005260206000200160028281548110610e7757610e7761147b565b906000526020600020019081610e8d91906115b1565b506002805480610e9f57610e9f61168e565b600190038181906000526020600020016000610ebb9190610fa1565b9055610ed4565b80610ecc81611526565b915050610de1565b50806001600160a01b03168383604051610eef9291906112ec565b604051908190038120907fb2e6642ce17b2a48851ea5daf94f434d26f2d9bb7854a410487cb4588c11837590600090a3505050565b6000546001600160a01b031633146104525760405163118cdaa760e01b815233600482015260240161032b565b600080546001600160a01b038381166001600160a01b0319831681178455604051919092169283917f8be0079c531659141344cd1fd0a4f28419497f9722a3daafe3b4186f6b6457e09190a35050565b508054610fad906112fc565b6000825580601f10610fbd575050565b601f016020900490600052602060002090810190610bf791905b80821115610feb5760008155600101610fd7565b5090565b60008083601f84011261100157600080fd5b50813567ffffffffffffffff81111561101957600080fd5b602083019150836020828501011115610ccf57600080fd5b80356001600160a01b038116811461104857600080fd5b919050565b60008060006040848603121561106257600080fd5b833567ffffffffffffffff81111561107957600080fd5b61108586828701610fef565b9094509250611098905060208501611031565b90509250925092565b634e487b7160e01b600052604160045260246000fd5b6000602082840312156110c957600080fd5b813567ffffffffffffffff808211156110e157600080fd5b818401915084601f8301126110f557600080fd5b813581811115611107576111076110a1565b604051601f8201601f19908116603f0116810190838211818310171561112f5761112f6110a1565b8160405282815287602084870101111561114857600080fd5b826020860160208301376000928101602001929092525095945050505050565b6000815180845260005b8181101561118e57602081850181015186830182015201611172565b506000602082860101526020601f19601f83011685010191505092915050565b6000602080830181845280855180835260408601915060408160051b870101925083870160005b8281101561120357603f198886030184526111f1858351611168565b945092850192908501906001016111d5565b5092979650505050505050565b6000806020838503121561122357600080fd5b823567ffffffffffffffff81111561123a57600080fd5b61124685828601610fef565b90969095509350505050565b60006020828403121561126457600080fd5b61126d82611031565b9392505050565b60008060006040848603121561128957600080fd5b833567ffffffffffffffff8111156112a057600080fd5b6112ac86828701610fef565b909790965060209590950135949350505050565b6000602082840312156112d257600080fd5b5035919050565b60208152600061126d6020830184611168565b8183823760009101908152919050565b600181811c9082168061131057607f821691505b60208210810361133057634e487b7160e01b600052602260045260246000fd5b50919050565b601f82111561138057600081815260208120601f850160051c8101602086101561135d5750805b601f850160051c820191505b8181101561137c57828155600101611369565b5050505b505050565b67ffffffffffffffff83111561139d5761139d6110a1565b6113b1836113ab83546112fc565b83611336565b6000601f8411600181146113e557600085156113cd5750838201355b600019600387901b1c1916600186901b17835561143f565b600083815260209020601f19861690835b8281101561141657868501358255602094850194600190920191016113f6565b50868210156114335760001960f88860031b161c19848701351681555b505060018560011b0183555b5050505050565b6020808252818101527f4f7261636c6552656769737472793a204f7261636c65206e6f7420666f756e64604082015260600190565b634e487b7160e01b600052603260045260246000fd5b6000815461149e816112fc565b600182811680156114b657600181146114cb576114fa565b60ff19841687528215158302870194506114fa565b8560005260208060002060005b858110156114f15781548a8201529084019082016114d8565b50505082870194505b5050505092915050565b600061126d8284611491565b634e487b7160e01b600052601160045260246000fd5b60006001820161153857611538611510565b5060010190565b60006020828403121561155157600080fd5b5051919050565b60006020828403121561156a57600080fd5b8151801515811461126d57600080fd5b6000806040838503121561158d57600080fd5b505080516020909101519092909150565b818103818111156107cc576107cc611510565b8181036115bc575050565b6115c682546112fc565b67ffffffffffffffff8111156115de576115de6110a1565b6115f2816115ec84546112fc565b84611336565b6000601f821160018114611626576000831561160e5750848201545b600019600385901b1c1916600184901b17845561143f565b600085815260209020601f19841690600086815260209020845b838110156116605782860154825560019586019590910190602001611640565b508583101561167e5781850154600019600388901b60f8161c191681555b5050505050600190811b01905550565b634e487b7160e01b600052603160045260246000fdfea26469706673582212208a83b3ffa2620f97a35aeded3b076c8ea7be8ee453d24316371d68e943e9816064736f6c63430008140033",
  "linkReferences": {},
  "deployedLinkReferences": {}
}