{
  "_format": "hh-sol-artifact-1",
  "contractName": "ReputationNFT",
  "sourceName": "contracts/reputation/ReputationNFT.sol",
  "abi": [
    {
      "inputs": [
        {
          "internalType": "address",
          "name": "admin",
          "type": "address"
        },
        {
          "internalType": "string",
          "name": "baseURI",
          "type": "string"
        }
      ],
      "stateMutability": "nonpayable",
      "type": "constructor"
    },
    {
      "inputs": [],
      "name": "AccessControlBadConfirmation",
      "type": "error"
    },
    {
      "inputs": [
        {
          "internalType": "address",
          "name": "account",
          "type": "address"
        },
        {
          "internalType": "bytes32",
          "name": "neededRole",
          "type": "bytes32"
        }
      ],
      "name": "AccessControlUnauthorizedAccount",
      "type": "error"
    },
    {
      "inputs": [
        {
          "internalType": "address",
          "name": "sender",
          "type": "address"
        },
        {
          "internalType": "uint256",
          "name": "tokenId",
          "type": "uint256"
        },
        {
          "internalType": "address",
          "name": "owner",
          "type": "address"
        }
      ],
      "name": "ERC721IncorrectOwner",
      "type": "error"
    },
    {
      "inputs": [
        {
          "internalType": "address",
          "name": "operator",
          "type": "address"
        },
        {
          "internalType": "uint256",
          "name": "tokenId",
          "type": "uint256"
        }
      ],
      "name": "ERC721InsufficientApproval",
      "type": "error"
    },
    {
      "inputs": [
        {
          "internalType": "address",
          "name": "approver",
          "type": "address"
        }
      ],
      "name": "ERC721InvalidApprover",
      "type": "error"
    },
    {
      "inputs": [
        {
          "internalType": "address",
          "name": "operator",
          "type": "address"
        }
      ],
      "name": "ERC721InvalidOperator",
      "type": "error"
    },
    {
      "inputs": [
        {
          "internalType": "address",
          "name": "owner",
          "type": "address"
        }
      ],
      "name": "ERC721InvalidOwner",
      "type": "error"
    },
    {
      "inputs": [
        {
          "internalType": "address",
          "name": "receiver",
          "type": "address"
        }
      ],
      "name": "ERC721InvalidReceiver",
      "type": "error"
    },
    {
      "inputs": [
        {
          "internalType": "address",
          "name": "sender",
          "type": "address"
        }
      ],
      "name": "ERC721InvalidSender",
      "type": "error"
    },
    {
      "inputs": [
        {
          "internalType": "uint256",
          "name": "tokenId",
          "type": "uint256"
        }
      ],
      "name": "ERC721NonexistentToken",
      "type": "error"
    },
    {
      "inputs": [],
      "name": "EnforcedPause",
      "type": "error"
    },
    {
      "inputs": [],
      "name": "ExpectedPause",
      "type": "error"
    },
    {
      "anonymous": false,
      "inputs": [
        {
          "indexed": true,
          "internalType": "address",
          "name": "owner",
          "type": "address"
        },
        {
          "indexed": true,
          "internalType": "address",
          "name": "approved",
          "type": "address"
        },
        {
          "indexed": true,
          "internalType": "uint256",
          "name": "tokenId",
          "type": "uint256"
        }
      ],
      "name": "Approval",
      "type": "event"
    },
    {
      "anonymous": false,
      "inputs": [
        {
          "indexed": true,
          "internalType": "address",
          "name": "owner",
          "type": "address"
        },
        {
          "indexed": true,
          "internalType": "address",
          "name": "operator",
          "type": "address"
        },
        {
          "indexed": false,
          "internalType": "bool",
          "name": "approved",
          "type": "bool"
        }
      ],
      "name": "ApprovalForAll",
      "type": "event"
    },
    {
      "anonymous": false,
      "inputs": [
        {
          "indexed": false,
          "internalType": "string",
          "name": "newBaseURI",
          "type": "string"
        }
      ],
      "name": "BaseURIUpdated",
      "type": "event"
    },
    {
      "anonymous": false,
      "inputs": [
        {
          "indexed": true,
          "internalType": "address",
          "name": "trader",
          "type": "address"
        },
        {
          "indexed": true,
          "internalType": "uint256",
          "name": "tokenId",
          "type": "uint256"
        },
        {
          "indexed": false,
          "internalType": "uint256",
          "name": "evaluationId",
          "type": "uint256"
        },
        {
          "indexed": false,
          "internalType": "uint256",
          "name": "profitAchieved",
          "type": "uint256"
        }
      ],
      "name": "CredentialMinted",
      "type": "event"
    },
    {
      "anonymous": false,
      "inputs": [
        {
          "indexed": true,
          "internalType": "address",
          "name": "trader",
          "type": "address"
        },
        {
          "indexed": true,
          "internalType": "uint256",
          "name": "tokenId",
          "type": "uint256"
        },
        {
          "indexed": false,
          "internalType": "string",
          "name": "reason",
          "type": "string"
        }
      ],
      "name": "CredentialRevoked",
      "type": "event"
    },
    {
      "anonymous": false,
      "inputs": [
        {
          "indexed": false,
          "internalType": "address",
          "name": "account",
          "type": "address"
        }
      ],
      "name": "Paused",
      "type": "event"
    },
    {
      "anonymous": false,
      "inputs": [
        {
          "indexed": true,
          "internalType": "bytes32",
          "name": "role",
          "type": "bytes32"
        },
        {
          "indexed": true,
          "internalType": "bytes32",
          "name": "previousAdminRole",
          "type": "bytes32"
        },
        {
          "indexed": true,
          "internalType": "bytes32",
          "name": "newAdminRole",
          "type": "bytes32"
        }
      ],
      "name": "RoleAdminChanged",
      "type": "event"
    },
    {
      "anonymous": false,
      "inputs": [
        {
          "indexed": true,
          "internalType": "bytes32",
          "name": "role",
          "type": "bytes32"
        },
        {
          "indexed": true,
          "internalType": "address",
          "name": "account",
          "type": "address"
        },
        {
          "indexed": true,
          "internalType": "address",
          "name": "sender",
          "type": "address"
        }
      ],
      "name": "RoleGranted",
      "type": "event"
    },
    {
      "anonymous": false,
      "inputs": [
        {
          "indexed": true,
          "internalType": "bytes32",
          "name": "role",
          "type": "bytes32"
        },
        {
          "indexed": true,
          "internalType": "address",
          "name": "account",
          "type": "address"
        },
        {
          "indexed": true,
          "internalType": "address",
          "name": "sender",
          "type": "address"
        }
      ],
      "name": "RoleRevoked",
      "type": "event"
    },
    {
      "anonymous": false,
      "inputs": [
        {
          "indexed": true,
          "internalType": "address",
          "name": "from",
          "type": "address"
        },
        {
          "indexed": true,
          "internalType": "address",
          "name": "to",
          "type": "address"
        },
        {
          "indexed": true,
          "internalType": "uint256",
          "name": "tokenId",
          "type": "uint256"
        }
      ],
      "name": "Transfer",
      "type": "event"
    },
    {
      "anonymous": false,
      "inputs": [
        {
          "indexed": false,
          "internalType": "address",
          "name": "account",
          "type": "address"
        }
      ],
      "name": "Unpaused",
      "type": "event"
    },
    {
      "inputs": [],
      "name": "ADMIN_ROLE",
      "outputs": [
        {
          "internalType": "bytes32",
          "name": "",
          "type": "bytes32"
        }
      ],
      "stateMutability": "view",
      "type": "function"
    },
    {
      "inputs": [],
      "name": "DEFAULT_ADMIN_ROLE",
      "outputs": [
        {
          "internalType": "bytes32",
          "name": "",
          "type": "bytes32"
        }
      ],
      "stateMutability": "view",
      "type": "function"
    },
    {
      "inputs": [],
      "name": "MINTER_ROLE",
      "outputs": [
        {
          "internalType": "bytes32",
          "name": "",
          "type": "bytes32"
        }
      ],
      "stateMutability": "view",
      "type": "function"
    },
    {
      "inputs": [
        {
          "internalType": "address",
          "name": "to",
          "type": "address"
        },
        {
          "internalType": "uint256",
          "name": "tokenId",
          "type": "uint256"
        }
      ],
      "name": "approve",
      "outputs": [],
      "stateMutability": "nonpayable",
      "type": "function"
    },
    {
      "inputs": [
        {
          "internalType": "address",
          "name": "owner",
          "type": "address"
        }
      ],
      "name": "balanceOf",
      "outputs": [
        {
          "internalType": "uint256",
          "name": "",
          "type": "uint256"
        }
      ],
      "stateMutability": "view",
      "type": "function"
    },
    {
      "inputs": [
        {
          "internalType": "uint256",
          "name": "tokenId",
          "type": "uint256"
        }
      ],
      "name": "getApproved",
      "outputs": [
        {
          "internalType": "address",
          "name": "",
          "type": "address"
        }
      ],
      "stateMutability": "view",
      "type": "function"
    },
    {
      "inputs": [
        {
          "internalType": "uint256",
          "name": "tokenId",
          "type": "uint256"
        }
      ],
      "name": "getMetadata",
      "outputs": [
        {
          "components": [
            {
              "internalType": "uint256",
              "name": "evaluationId",
              "type": "uint256"
            },
            {
              "internalType": "uint256",
              "name": "completionTime",
              "type": "uint256"
            },
            {
              "internalType": "uint256",
              "name": "finalBalance",
              "type": "uint256"
            },
            {
              "internalType": "uint256",
              "name": "profitAchieved",
              "type": "uint256"
            },
            {
              "internalType": "uint256",
              "name": "maxDrawdown",
              "type": "uint256"
            },
            {
              "internalType": "uint256",
              "name": "totalTrades",
              "type": "uint256"
            },
            {
              "internalType": "uint256",
              "name": "winRate",
              "type": "uint256"
            },
            {
              "internalType": "bool",
              "name": "isValid",
              "type": "bool"
            }
          ],
          "internalType": "struct ReputationNFT.EvaluationMetadata",
          "name": "",
          "type": "tuple"
        }
      ],
      "stateMutability": "view",
      "type": "function"
    },
    {
      "inputs": [
        {
          "internalType": "bytes32",
          "name": "role",
          "type": "bytes32"
        }
      ],
      "name": "getRoleAdmin",
      "outputs": [
        {
          "internalType": "bytes32",
          "name": "",
          "type": "bytes32"
        }
      ],
      "stateMutability": "view",
      "type": "function"
    },
    {
      "inputs": [
        {
          "internalType": "address",
          "name": "trader",
          "type": "address"
        }
      ],
      "name": "getTokenId",
      "outputs": [
        {
          "internalType": "uint256",
          "name": "",
          "type": "uint256"
        }
      ],
      "stateMutability": "view",
      "type": "function"
    },
    {
      "inputs": [
        {
          "internalType": "bytes32",
          "name": "role",
          "type": "bytes32"
        },
        {
          "internalType": "address",
          "name": "account",
          "type": "address"
        }
      ],
      "name": "grantRole",
      "outputs": [],
      "stateMutability": "nonpayable",
      "type": "function"
    },
    {
      "inputs": [
        {
          "internalType": "address",
          "name": "",
          "type": "address"
        }
      ],
      "name": "hasCredential",
      "outputs": [
        {
          "internalType": "bool",
          "name": "",
          "type": "bool"
        }
      ],
      "stateMutability": "view",
      "type": "function"
    },
    {
      "inputs": [
        {
          "internalType": "bytes32",
          "name": "role",
          "type": "bytes32"
        },
        {
          "internalType": "address",
          "name": "account",
          "type": "address"
        }
      ],
      "name": "hasRole",
      "outputs": [
        {
          "internalType": "bool",
          "name": "",
          "type": "bool"
        }
      ],
      "stateMutability": "view",
      "type": "function"
    },
    {
      "inputs": [
        {
          "internalType": "address",
          "name": "trader",
          "type": "address"
        }
      ],
      "name": "hasValidCredential",
      "outputs": [
        {
          "internalType": "bool",
          "name": "",
          "type": "bool"
        }
      ],
      "stateMutability": "view",
      "type": "function"
    },
    {
      "inputs": [
        {
          "internalType": "address",
          "name": "owner",
          "type": "address"
        },
        {
          "internalType": "address",
          "name": "operator",
          "type": "address"
        }
      ],
      "name": "isApprovedForAll",
      "outputs": [
        {
          "internalType": "bool",
          "name": "",
          "type": "bool"
        }
      ],
      "stateMutability": "view",
      "type": "function"
    },
    {
      "inputs": [
        {
          "internalType": "address",
          "name": "trader",
          "type": "address"
        },
        {
          "internalType": "uint256",
          "name": "evaluationId",
          "type": "uint256"
        },
        {
          "internalType": "uint256",
          "name": "finalBalance",
          "type": "uint256"
        },
        {
          "internalType": "uint256",
          "name": "profitAchieved",
          "type": "uint256"
        },
        {
          "internalType": "uint256",
          "name": "maxDrawdown",
          "type": "uint256"
        },
        {
          "internalType": "uint256",
          "name": "totalTrades",
          "type": "uint256"
        },
        {
          "internalType": "uint256",
          "name": "winRate",
          "type": "uint256"
        }
      ],
      "name": "mint",
      "outputs": [
        {
          "internalType": "uint256",
          "name": "tokenId",
          "type": "uint256"
        }
      ],
      "stateMutability": "nonpayable",
      "type": "function"
    },
    {
      "inputs": [],
      "name": "name",
      "outputs": [
        {
          "internalType": "string",
          "name": "",
          "type": "string"
        }
      ],
      "stateMutability": "view",
      "type": "function"
    },
    {
      "inputs": [
        {
          "internalType": "uint256",
          "name": "tokenId",
          "type": "uint256"
        }
      ],
      "name": "ownerOf",
      "outputs": [
        {
          "internalType": "address",
          "name": "",
          "type": "address"
        }
      ],
      "stateMutability": "view",
      "type": "function"
    },
    {
      "inputs": [],
      "name": "pause",
      "outputs": [],
      "stateMutability": "nonpayable",
      "type": "function"
    },
    {
      "inputs": [],
      "name": "paused",
      "outputs": [
        {
          "internalType": "bool",
          "name": "",
          "type": "bool"
        }
      ],
      "stateMutability": "view",
      "type": "function"
    },
    {
      "inputs": [
        {
          "internalType": "bytes32",
          "name": "role",
          "type": "bytes32"
        },
        {
          "internalType": "address",
          "name": "callerConfirmation",
          "type": "address"
        }
      ],
      "name": "renounceRole",
      "outputs": [],
      "stateMutability": "nonpayable",
      "type": "function"
    },
    {
      "inputs": [
        {
          "internalType": "address",
          "name": "trader",
          "type": "address"
        },
        {
          "internalType": "string",
          "name": "reason",
          "type": "string"
        }
      ],
      "name": "revokeCredential",
      "outputs": [],
      "stateMutability": "nonpayable",
      "type": "function"
    },
    {
      "inputs": [
        {
          "internalType": "bytes32",
          "name": "role",
          "type": "bytes32"
        },
        {
          "internalType": "address",
          "name": "account",
          "type": "address"
        }
      ],
      "name": "revokeRole",
      "outputs": [],
      "stateMutability": "nonpayable",
      "type": "function"
    },
    {
      "inputs": [
        {
          "internalType": "address",
          "name": "from",
          "type": "address"
        },
        {
          "internalType": "address",
          "name": "to",
          "type": "address"
        },
        {
          "internalType": "uint256",
          "name": "tokenId",
          "type": "uint256"
        }
      ],
      "name": "safeTransferFrom",
      "outputs": [],
      "stateMutability": "nonpayable",
      "type": "function"
    },
    {
      "inputs": [
        {
          "internalType": "address",
          "name": "from",
          "type": "address"
        },
        {
          "internalType": "address",
          "name": "to",
          "type": "address"
        },
        {
          "internalType": "uint256",
          "name": "tokenId",
          "type": "uint256"
        },
        {
          "internalType": "bytes",
          "name": "data",
          "type": "bytes"
        }
      ],
      "name": "safeTransferFrom",
      "outputs": [],
      "stateMutability": "nonpayable",
      "type": "function"
    },
    {
      "inputs": [
        {
          "internalType": "address",
          "name": "operator",
          "type": "address"
        },
        {
          "internalType": "bool",
          "name": "approved",
          "type": "bool"
        }
      ],
      "name": "setApprovalForAll",
      "outputs": [],
      "stateMutability": "nonpayable",
      "type": "function"
    },
    {
      "inputs": [
        {
          "internalType": "string",
          "name": "baseURI",
          "type": "string"
        }
      ],
      "name": "setBaseURI",
      "outputs": [],
      "stateMutability": "nonpayable",
      "type": "function"
    },
    {
      "inputs": [
        {
          "internalType": "bytes4",
          "name": "interfaceId",
          "type": "bytes4"
        }
      ],
      "name": "supportsInterface",
      "outputs": [
        {
          "internalType": "bool",
          "name": "",
          "type": "bool"
        }
      ],
      "stateMutability": "view",
      "type": "function"
    },
    {
      "inputs": [],
      "name": "symbol",
      "outputs": [
        {
          "internalType": "string",
          "name": "",
          "type": "string"
        }
      ],
      "stateMutability": "view",
      "type": "function"
    },
    {
      "inputs": [
        {
          "internalType": "uint256",
          "name": "",
          "type": "uint256"
        }
      ],
      "name": "tokenMetadata",
      "outputs": [
        {
          "internalType": "uint256",
          "name": "evaluationId",
          "type": "uint256"
        },
        {
          "internalType": "uint256",
          "name": "completionTime",
          "type": "uint256"
        },
        {
          "internalType": "uint256",
          "name": "finalBalance",
          "type": "uint256"
        },
        {
          "internalType": "uint256",
          "name": "profitAchieved",
          "type": "uint256"
        },
        {
          "internalType": "uint256",
          "name": "maxDrawdown",
          "type": "uint256"
        },
        {
          "internalType": "uint256",
          "name": "totalTrades",
          "type": "uint256"
        },
        {
          "internalType": "uint256",
          "name": "winRate",
          "type": "uint256"
        },
        {
          "internalType": "bool",
          "name": "isValid",
          "type": "bool"
        }
      ],
      "stateMutability": "view",
      "type": "function"
    },
    {
      "inputs": [
        {
          "internalType": "uint256",
          "name": "tokenId",
          "type": "uint256"
        }
      ],
      "name": "tokenURI",
      "outputs": [
        {
          "internalType": "string",
          "name": "",
          "type": "string"
        }
      ],
      "stateMutability": "view",
      "type": "function"
    },
    {
      "inputs": [],
      "name": "totalSupply",
      "outputs": [
        {
          "internalType": "uint256",
          "name": "",
          "type": "uint256"
        }
      ],
      "stateMutability": "view",
      "type": "function"
    },
    {
      "inputs": [
        {
          "internalType": "address",
          "name": "",
          "type": "address"
        }
      ],
      "name": "traderToTokenId",
      "outputs": [
        {
          "internalType": "uint256",
          "name": "",
          "type": "uint256"
        }
      ],
      "stateMutability": "view",
      "type": "function"
    },
    {
      "inputs": [
        {
          "internalType": "address",
          "name": "from",
          "type": "address"
        },
        {
          "internalType": "address",
          "name": "to",
          "type": "address"
        },
        {
          "internalType": "uint256",
          "name": "tokenId",
          "type": "uint256"
        }
      ],
      "name": "transferFrom",
      "outputs": [],
      "stateMutability": "nonpayable",
      "type": "function"
    },
    {
      "inputs": [],
      "name": "unpause",
      "outputs": [],
      "stateMutability": "nonpayable",
      "type": "function"
    }
  ],
  "bytecode": "0x60806040523480156200001157600080fd5b506040516200243038038062002430833981016040819052620000349162000220565b6040518060400160405280601b81526020017f436861696e50726f70205472616465722043726564656e7469616c0000000000815250604051806040016040528060048152602001634350544360e01b8152508160009081620000989190620003a5565b506001620000a78282620003a5565b5050506001600160a01b038216620001055760405162461bcd60e51b815260206004820152601c60248201527f52657075746174696f6e4e46543a20496e76616c69642061646d696e00000000604482015260640160405180910390fd5b6200011260008362000157565b506200013f7fa49807205ce4d355092ef5a8a18f56e8913cf4a201fbe287825b095693c217758362000157565b5060096200014e8282620003a5565b50505062000471565b60008281526006602090815260408083206001600160a01b038516845290915281205460ff16620002005760008381526006602090815260408083206001600160a01b03861684529091529020805460ff19166001179055620001b73390565b6001600160a01b0316826001600160a01b0316847f2f8788117e7eff1d82e926ec794901d17c78024a50270940304540a733656f0d60405160405180910390a450600162000204565b5060005b92915050565b634e487b7160e01b600052604160045260246000fd5b600080604083850312156200023457600080fd5b82516001600160a01b03811681146200024c57600080fd5b602084810151919350906001600160401b03808211156200026c57600080fd5b818601915086601f8301126200028157600080fd5b8151818111156200029657620002966200020a565b604051601f8201601f19908116603f01168101908382118183101715620002c157620002c16200020a565b816040528281528986848701011115620002da57600080fd5b600093505b82841015620002fe5784840186015181850187015292850192620002df565b60008684830101528096505050505050509250929050565b600181811c908216806200032b57607f821691505b6020821081036200034c57634e487b7160e01b600052602260045260246000fd5b50919050565b601f821115620003a057600081815260208120601f850160051c810160208610156200037b5750805b601f850160051c820191505b818110156200039c5782815560010162000387565b5050505b505050565b81516001600160401b03811115620003c157620003c16200020a565b620003d981620003d2845462000316565b8462000352565b602080601f831160018114620004115760008415620003f85750858301515b600019600386901b1c1916600185901b1785556200039c565b600085815260208120601f198616915b82811015620004425788860151825594840194600190910190840162000421565b5085821015620004615787850151600019600388901b60f8161c191681555b5050505050600190811b01905550565b611faf80620004816000396000f3fe608060405234801561001057600080fd5b50600436106102065760003560e01c80637ddfffbf1161011a578063b88d4fde116100ad578063d18f5cbd1161007c578063d18f5cbd14610531578063d539139314610551578063d547741f14610578578063e985e9c51461058b578063f15376861461059e57600080fd5b8063b88d4fde146104d5578063b94f550c146104e8578063c1c773f4146104fb578063c87b56dd1461051e57600080fd5b80639878703c116100e95780639878703c14610431578063a217fddf14610444578063a22cb4651461044c578063a574cea41461045f57600080fd5b80637ddfffbf146103fb5780638456cb591461040e57806391d148541461041657806395d89b411461042957600080fd5b806336568abe1161019d5780635c975abb1161016c5780635c975abb146103245780636352211e1461032f5780636914db601461034257806370a08231146103d357806375b238fc146103e657600080fd5b806336568abe146102e35780633f4ba83a146102f657806342842e0e146102fe57806355f804b31461031157600080fd5b806318160ddd116101d957806318160ddd1461028857806323b872dd1461029a578063248a9ca3146102ad5780632f2ff15d146102d057600080fd5b806301ffc9a71461020b57806306fdde0314610233578063081812fc14610248578063095ea7b314610273575b600080fd5b61021e61021936600461194f565b6105c7565b60405190151581526020015b60405180910390f35b61023b6105d8565b60405161022a91906119bc565b61025b6102563660046119cf565b61066a565b6040516001600160a01b03909116815260200161022a565b610286610281366004611a04565b610693565b005b6008545b60405190815260200161022a565b6102866102a8366004611a2e565b6106a2565b61028c6102bb3660046119cf565b60009081526006602052604090206001015490565b6102866102de366004611a6a565b610732565b6102866102f1366004611a6a565b610757565b61028661078f565b61028661030c366004611a2e565b6107b2565b61028661031f366004611adf565b6107cd565b60075460ff1661021e565b61025b61033d3660046119cf565b610831565b6103966103503660046119cf565b600a602052600090815260409020805460018201546002830154600384015460048501546005860154600687015460079097015495969495939492939192909160ff1688565b604080519889526020890197909752958701949094526060860192909252608085015260a084015260c0830152151560e08201526101000161022a565b61028c6103e1366004611b21565b61083c565b61028c600080516020611f5a83398151915281565b61028c610409366004611b3c565b610884565b610286610afc565b61021e610424366004611a6a565b610b1c565b61023b610b47565b61021e61043f366004611b21565b610b56565b61028c600081565b61028661045a366004611b8f565b610bad565b61047261046d3660046119cf565b610bb8565b60405161022a9190600061010082019050825182526020830151602083015260408301516040830152606083015160608301526080830151608083015260a083015160a083015260c083015160c083015260e0830151151560e083015292915050565b6102866104e3366004611be1565b610ce5565b6102866104f6366004611cbd565b610cfd565b61021e610509366004611b21565b600c6020526000908152604090205460ff1681565b61023b61052c3660046119cf565b610e27565b61028c61053f366004611b21565b600b6020526000908152604090205481565b61028c7f9f2df0fed2c77648de5860a4cc508cd0818c85b8b8a1ab4ceeef8d981c8956a681565b610286610586366004611a6a565b610e8f565b61021e610599366004611d10565b610eb4565b61028c6105ac366004611b21565b6001600160a01b03166000908152600b602052604090205490565b60006105d282610ee2565b92915050565b6060600080546105e790611d3a565b80601f016020809104026020016040519081016040528092919081815260200182805461061390611d3a565b80156106605780601f1061063557610100808354040283529160200191610660565b820191906000526020600020905b81548152906001019060200180831161064357829003601f168201915b5050505050905090565b600061067582610f07565b506000828152600460205260409020546001600160a01b03166105d2565b61069e828233610f40565b5050565b6001600160a01b0382166106d157604051633250574960e11b8152600060048201526024015b60405180910390fd5b60006106de838333610f4d565b9050836001600160a01b0316816001600160a01b03161461072c576040516364283d7b60e01b81526001600160a01b03808616600483015260248201849052821660448201526064016106c8565b50505050565b60008281526006602052604090206001015461074d81610fee565b61072c8383610ff8565b6001600160a01b03811633146107805760405163334bd91960e11b815260040160405180910390fd5b61078a828261108c565b505050565b600080516020611f5a8339815191526107a781610fee565b6107af6110f9565b50565b61078a83838360405180602001604052806000815250610ce5565b600080516020611f5a8339815191526107e581610fee565b60096107f2838583611dba565b507f6741b2fc379fad678116fe3d4d4b9a1a184ab53ba36b86ad0fa66340b1ab41ad8383604051610824929190611e7a565b60405180910390a1505050565b60006105d282610f07565b60006001600160a01b038216610868576040516322718ad960e21b8152600060048201526024016106c8565b506001600160a01b031660009081526003602052604090205490565b60007f9f2df0fed2c77648de5860a4cc508cd0818c85b8b8a1ab4ceeef8d981c8956a66108b081610fee565b6108b861114b565b6001600160a01b03891661090e5760405162461bcd60e51b815260206004820152601d60248201527f52657075746174696f6e4e46543a20496e76616c69642074726164657200000060448201526064016106c8565b6001600160a01b0389166000908152600c602052604090205460ff161561098c5760405162461bcd60e51b815260206004820152602c60248201527f52657075746174696f6e4e46543a2054726164657220616c726561647920686160448201526b1cc818dc9959195b9d1a585b60a21b60648201526084016106c8565b600086116109dc5760405162461bcd60e51b815260206004820152601d60248201527f52657075746174696f6e4e46543a20496e76616c69642070726f66697400000060448201526064016106c8565b600880549060006109ec83611ea9565b91905055506008549150610a008983611171565b60408051610100810182528981524260208083019182528284018b8152606084018b8152608085018b815260a086018b815260c087018b8152600160e0890181815260008d8152600a89528b81209a518b5598518a830155955160028a0155935160038901559151600488015551600587015551600686015590516007909401805494151560ff199586161790556001600160a01b038e16808452600b8352858420889055600c83529285902080549094161790925582518b8152918201899052849290917f239e4021a4050064a0ec31fc6a17aaa0d3383cb5f882870aea04a4d27e6bd754910160405180910390a350979650505050505050565b600080516020611f5a833981519152610b1481610fee565b6107af61118b565b60009182526006602090815260408084206001600160a01b0393909316845291905290205460ff1690565b6060600180546105e790611d3a565b6001600160a01b0381166000908152600c602052604081205460ff16610b7e57506000919050565b506001600160a01b03166000908152600b60209081526040808320548352600a90915290206007015460ff1690565b61069e3383836111c8565b610c02604051806101000160405280600081526020016000815260200160008152602001600081526020016000815260200160008152602001600081526020016000151581525090565b6000828152600260205260409020546001600160a01b0316610c725760405162461bcd60e51b815260206004820152602360248201527f52657075746174696f6e4e46543a20546f6b656e20646f6573206e6f742065786044820152621a5cdd60ea1b60648201526084016106c8565b506000908152600a6020908152604091829020825161010081018452815481526001820154928101929092526002810154928201929092526003820154606082015260048201546080820152600582015460a0820152600682015460c082015260079091015460ff16151560e082015290565b610cf08484846106a2565b61072c3385858585611267565b600080516020611f5a833981519152610d1581610fee565b6001600160a01b0384166000908152600c602052604090205460ff16610d8c5760405162461bcd60e51b815260206004820152602660248201527f52657075746174696f6e4e46543a204e6f2063726564656e7469616c20746f206044820152657265766f6b6560d01b60648201526084016106c8565b6001600160a01b0384166000818152600b6020908152604080832054808452600a8352818420600701805460ff19908116909155948452600c9092529091208054909216909155610ddc81611392565b80856001600160a01b03167fa36f3dad16c3896a7803755a95bc5b7de8ff811bdd66b440fc4131955a4580268686604051610e18929190611e7a565b60405180910390a35050505050565b6060610e3282610f07565b506000610e3d6113cd565b90506000815111610e5d5760405180602001604052806000815250610e88565b80610e67846113dc565b604051602001610e78929190611ed0565b6040516020818303038152906040525b9392505050565b600082815260066020526040902060010154610eaa81610fee565b61072c838361108c565b6001600160a01b03918216600090815260056020908152604080832093909416825291909152205460ff1690565b60006001600160e01b03198216637965db0b60e01b14806105d257506105d28261146f565b6000818152600260205260408120546001600160a01b0316806105d257604051637e27328960e01b8152600481018490526024016106c8565b61078a83838360016114bf565b6000828152600260205260408120546001600160a01b03168015801590610f7c57506001600160a01b03851615155b15610fda5760405162461bcd60e51b815260206004820152602860248201527f52657075746174696f6e4e46543a20546f6b656e206973206e6f6e2d7472616e6044820152677366657261626c6560c01b60648201526084016106c8565b610fe58585856115c5565b95945050505050565b6107af81336116be565b60006110048383610b1c565b6110845760008381526006602090815260408083206001600160a01b03861684529091529020805460ff1916600117905561103c3390565b6001600160a01b0316826001600160a01b0316847f2f8788117e7eff1d82e926ec794901d17c78024a50270940304540a733656f0d60405160405180910390a45060016105d2565b5060006105d2565b60006110988383610b1c565b156110845760008381526006602090815260408083206001600160a01b0386168085529252808320805460ff1916905551339286917ff6391f5c32d9c69d2a47ea670b442974b53935d1edc7fd64eb21e047a839171b9190a45060016105d2565b6111016116f7565b6007805460ff191690557f5db9ee0a495bf2e6ff9c91a7834c1ba4fdd244a5e8aa4e537bd38aeae4b073aa335b6040516001600160a01b03909116815260200160405180910390a1565b60075460ff161561116f5760405163d93c066560e01b815260040160405180910390fd5b565b61069e82826040518060200160405280600081525061171a565b61119361114b565b6007805460ff191660011790557f62e78cea01bee320cd4e420270b5ea74000d11b0c9f74754ebdbfc544b05a25861112e3390565b6001600160a01b0382166111fa57604051630b61174360e31b81526001600160a01b03831660048201526024016106c8565b6001600160a01b03838116600081815260056020908152604080832094871680845294825291829020805460ff191686151590811790915591519182527f17307eab39ab6107e8899845ad3d59bd9653f200f220920489ca2b5937696c31910160405180910390a3505050565b6001600160a01b0383163b1561138b57604051630a85bd0160e11b81526001600160a01b0384169063150b7a02906112a9908890889087908790600401611eff565b6020604051808303816000875af19250505080156112e4575060408051601f3d908101601f191682019092526112e191810190611f3c565b60015b61134d573d808015611312576040519150601f19603f3d011682016040523d82523d6000602084013e611317565b606091505b50805160000361134557604051633250574960e11b81526001600160a01b03851660048201526024016106c8565b805160208201fd5b6001600160e01b03198116630a85bd0160e11b1461138957604051633250574960e11b81526001600160a01b03851660048201526024016106c8565b505b5050505050565b60006113a16000836000610f4d565b90506001600160a01b03811661069e57604051637e27328960e01b8152600481018390526024016106c8565b6060600980546105e790611d3a565b606060006113e983611732565b600101905060008167ffffffffffffffff81111561140957611409611bcb565b6040519080825280601f01601f191660200182016040528015611433576020820181803683370190505b5090508181016020015b600019016f181899199a1a9b1b9c1cb0b131b232b360811b600a86061a8153600a850494508461143d57509392505050565b60006001600160e01b031982166380ac58cd60e01b14806114a057506001600160e01b03198216635b5e139f60e01b145b806105d257506301ffc9a760e01b6001600160e01b03198316146105d2565b80806114d357506001600160a01b03821615155b156115955760006114e384610f07565b90506001600160a01b0383161580159061150f5750826001600160a01b0316816001600160a01b031614155b801561152257506115208184610eb4565b155b1561154b5760405163a9fbf51f60e01b81526001600160a01b03841660048201526024016106c8565b81156115935783856001600160a01b0316826001600160a01b03167f8c5be1e5ebec7d5bd14f71427d1e84f3dd0314c0f7b2291e5b200ac8c7c3b92560405160405180910390a45b505b5050600090815260046020526040902080546001600160a01b0319166001600160a01b0392909216919091179055565b6000828152600260205260408120546001600160a01b03908116908316156115f2576115f281848661180a565b6001600160a01b038116156116305761160f6000856000806114bf565b6001600160a01b038116600090815260036020526040902080546000190190555b6001600160a01b0385161561165f576001600160a01b0385166000908152600360205260409020805460010190555b60008481526002602052604080822080546001600160a01b0319166001600160a01b0389811691821790925591518793918516917fddf252ad1be2c89b69c2b068fc378daa952ba7f163c4a11628f55a4df523b3ef91a4949350505050565b6116c88282610b1c565b61069e5760405163e2517d3f60e01b81526001600160a01b0382166004820152602481018390526044016106c8565b60075460ff1661116f57604051638dfc202b60e01b815260040160405180910390fd5b611724838361186e565b61078a336000858585611267565b60008072184f03e93ff9f4daa797ed6e38ed64bf6a1f0160401b83106117715772184f03e93ff9f4daa797ed6e38ed64bf6a1f0160401b830492506040015b6d04ee2d6d415b85acef8100000000831061179d576d04ee2d6d415b85acef8100000000830492506020015b662386f26fc1000083106117bb57662386f26fc10000830492506010015b6305f5e10083106117d3576305f5e100830492506008015b61271083106117e757612710830492506004015b606483106117f9576064830492506002015b600a83106105d25760010192915050565b6118158383836118d3565b61078a576001600160a01b03831661184357604051637e27328960e01b8152600481018290526024016106c8565b60405163177e802f60e01b81526001600160a01b0383166004820152602481018290526044016106c8565b6001600160a01b03821661189857604051633250574960e11b8152600060048201526024016106c8565b60006118a683836000610f4d565b90506001600160a01b0381161561078a576040516339e3563760e11b8152600060048201526024016106c8565b60006001600160a01b038316158015906119315750826001600160a01b0316846001600160a01b0316148061190d575061190d8484610eb4565b8061193157506000828152600460205260409020546001600160a01b038481169116145b949350505050565b6001600160e01b0319811681146107af57600080fd5b60006020828403121561196157600080fd5b8135610e8881611939565b60005b8381101561198757818101518382015260200161196f565b50506000910152565b600081518084526119a881602086016020860161196c565b601f01601f19169290920160200192915050565b602081526000610e886020830184611990565b6000602082840312156119e157600080fd5b5035919050565b80356001600160a01b03811681146119ff57600080fd5b919050565b60008060408385031215611a1757600080fd5b611a20836119e8565b946020939093013593505050565b600080600060608486031215611a4357600080fd5b611a4c846119e8565b9250611a5a602085016119e8565b9150604084013590509250925092565b60008060408385031215611a7d57600080fd5b82359150611a8d602084016119e8565b90509250929050565b60008083601f840112611aa857600080fd5b50813567ffffffffffffffff811115611ac057600080fd5b602083019150836020828501011115611ad857600080fd5b9250929050565b60008060208385031215611af257600080fd5b823567ffffffffffffffff811115611b0957600080fd5b611b1585828601611a96565b90969095509350505050565b600060208284031215611b3357600080fd5b610e88826119e8565b600080600080600080600060e0888a031215611b5757600080fd5b611b60886119e8565b9960208901359950604089013598606081013598506080810135975060a0810135965060c00135945092505050565b60008060408385031215611ba257600080fd5b611bab836119e8565b915060208301358015158114611bc057600080fd5b809150509250929050565b634e487b7160e01b600052604160045260246000fd5b60008060008060808587031215611bf757600080fd5b611c00856119e8565b9350611c0e602086016119e8565b925060408501359150606085013567ffffffffffffffff80821115611c3257600080fd5b818701915087601f830112611c4657600080fd5b813581811115611c5857611c58611bcb565b604051601f8201601f19908116603f01168101908382118183101715611c8057611c80611bcb565b816040528281528a6020848701011115611c9957600080fd5b82602086016020830137600060208483010152809550505050505092959194509250565b600080600060408486031215611cd257600080fd5b611cdb846119e8565b9250602084013567ffffffffffffffff811115611cf757600080fd5b611d0386828701611a96565b9497909650939450505050565b60008060408385031215611d2357600080fd5b611d2c836119e8565b9150611a8d602084016119e8565b600181811c90821680611d4e57607f821691505b602082108103611d6e57634e487b7160e01b600052602260045260246000fd5b50919050565b601f82111561078a57600081815260208120601f850160051c81016020861015611d9b5750805b601f850160051c820191505b8181101561138957828155600101611da7565b67ffffffffffffffff831115611dd257611dd2611bcb565b611de683611de08354611d3a565b83611d74565b6000601f841160018114611e1a5760008515611e025750838201355b600019600387901b1c1916600186901b17835561138b565b600083815260209020601f19861690835b82811015611e4b5786850135825560209485019460019092019101611e2b565b5086821015611e685760001960f88860031b161c19848701351681555b505060018560011b0183555050505050565b60208152816020820152818360408301376000818301604090810191909152601f909201601f19160101919050565b600060018201611ec957634e487b7160e01b600052601160045260246000fd5b5060010190565b60008351611ee281846020880161196c565b835190830190611ef681836020880161196c565b01949350505050565b6001600160a01b0385811682528416602082015260408101839052608060608201819052600090611f3290830184611990565b9695505050505050565b600060208284031215611f4e57600080fd5b8151610e888161193956fea49807205ce4d355092ef5a8a18f56e8913cf4a201fbe287825b095693c21775a2646970667358221220ef0110effb050b8dcab13e527f680c1b9e084e9fb6ce5825c59896a36d9dbdfc64736f6c63430008140033",
  "linkReferences": {},
  "deployedLinkReferences": {}
}