{
  "_format": "hh-sol-artifact-1",
  "contractName": "TradingVault",
  "sourceName": "contracts/synthetics/TradingVault.sol",
  "abi": [
    {
      "inputs": [
        {
          "internalType": "address",
          "name": "_collateralToken",
          "type": "address"
        },
        {
          "internalType": "address",
          "name": "_initialOwner",
          "type": "address"
        }
      ],
      "stateMutability": "nonpayable",
      "type": "constructor"
    },
    {
      "inputs": [],
      "name": "EnforcedPause",
      "type": "error"
    },
    {
      "inputs": [],
      "name": "ExpectedPause",
      "type": "error"
    },
    {
      "inputs": [
        {
          "internalType": "address",
          "name": "owner",
          "type": "address"
        }
      ],
      "name": "OwnableInvalidOwner",
      "type": "error"
    },
    {
      "inputs": [
        {
          "internalType": "address",
          "name": "account",
          "type": "address"
        }
      ],
      "name": "OwnableUnauthorizedAccount",
      "type": "error"
    },
    {
      "inputs": [],
      "name": "ReentrancyGuardReentrantCall",
      "type": "error"
    },
    {
      "inputs": [
        {
          "internalType": "address",
          "name": "token",
          "type": "address"
        }
      ],
      "name": "SafeERC20FailedOperation",
      "type": "error"
    },
    {
      "anonymous": false,
      "inputs": [
        {
          "indexed": true,
          "internalType": "address",
          "name": "trader",
          "type": "address"
        },
        {
          "indexed": false,
          "internalType": "uint256",
          "name": "amount",
          "type": "uint256"
        }
      ],
      "name": "CollateralAllocated",
      "type": "event"
    },
    {
      "anonymous": false,
      "inputs": [
        {
          "indexed": true,
          "internalType": "address",
          "name": "depositor",
          "type": "address"
        },
        {
          "indexed": false,
          "internalType": "uint256",
          "name": "amount",
          "type": "uint256"
        }
      ],
      "name": "CollateralDeposited",
      "type": "event"
    },
    {
      "anonymous": false,
      "inputs": [
        {
          "indexed": false,
          "internalType": "uint256",
          "name": "oldRatio",
          "type": "uint256"
        },
        {
          "indexed": false,
          "internalType": "uint256",
          "name": "newRatio",
          "type": "uint256"
        }
      ],
      "name": "CollateralRatioUpdated",
      "type": "event"
    },
    {
      "anonymous": false,
      "inputs": [
        {
          "indexed": true,
          "internalType": "address",
          "name": "trader",
          "type": "address"
        },
        {
          "indexed": false,
          "internalType": "uint256",
          "name": "amount",
          "type": "uint256"
        }
      ],
      "name": "CollateralReleased",
      "type": "event"
    },
    {
      "anonymous": false,
      "inputs": [
        {
          "indexed": true,
          "internalType": "address",
          "name": "recipient",
          "type": "address"
        },
        {
          "indexed": false,
          "internalType": "uint256",
          "name": "amount",
          "type": "uint256"
        }
      ],
      "name": "CollateralWithdrawn",
      "type": "event"
    },
    {
      "anonymous": false,
      "inputs": [
        {
          "indexed": false,
          "internalType": "uint256",
          "name": "oldRatio",
          "type": "uint256"
        },
        {
          "indexed": false,
          "internalType": "uint256",
          "name": "newRatio",
          "type": "uint256"
        }
      ],
      "name": "ExposureRatioUpdated",
      "type": "event"
    },
    {
      "anonymous": false,
      "inputs": [
        {
          "indexed": true,
          "internalType": "address",
          "name": "trader",
          "type": "address"
        },
        {
          "indexed": false,
          "internalType": "uint256",
          "name": "oldExposure",
          "type": "uint256"
        },
        {
          "indexed": false,
          "internalType": "uint256",
          "name": "newExposure",
          "type": "uint256"
        }
      ],
      "name": "ExposureUpdated",
      "type": "event"
    },
    {
      "anonymous": false,
      "inputs": [
        {
          "indexed": true,
          "internalType": "address",
          "name": "previousOwner",
          "type": "address"
        },
        {
          "indexed": true,
          "internalType": "address",
          "name": "newOwner",
          "type": "address"
        }
      ],
      "name": "OwnershipTransferred",
      "type": "event"
    },
    {
      "anonymous": false,
      "inputs": [
        {
          "indexed": false,
          "internalType": "address",
          "name": "account",
          "type": "address"
        }
      ],
      "name": "Paused",
      "type": "event"
    },
    {
      "anonymous": false,
      "inputs": [
        {
          "indexed": true,
          "internalType": "address",
          "name": "trader",
          "type": "address"
        },
        {
          "indexed": false,
          "internalType": "bool",
          "name": "authorized",
          "type": "bool"
        }
      ],
      "name": "TraderAuthorized",
      "type": "event"
    },
    {
      "anonymous": false,
      "inputs": [
        {
          "indexed": false,
          "internalType": "uint256",
          "name": "timestamp",
          "type": "uint256"
        },
        {
          "indexed": false,
          "internalType": "string",
          "name": "reason",
          "type": "string"
        }
      ],
      "name": "TradingPaused",
      "type": "event"
    },
    {
      "anonymous": false,
      "inputs": [
        {
          "indexed": false,
          "internalType": "address",
          "name": "account",
          "type": "address"
        }
      ],
      "name": "Unpaused",
      "type": "event"
    },
    {
      "inputs": [
        {
          "internalType": "uint256",
          "name": "amount",
          "type": "uint256"
        }
      ],
      "name": "allocateCollateral",
      "outputs": [],
      "stateMutability": "nonpayable",
      "type": "function"
    },
    {
      "inputs": [
        {
          "internalType": "address",
          "name": "",
          "type": "address"
        }
      ],
      "name": "authorizedManagers",
      "outputs": [
        {
          "internalType": "bool",
          "name": "",
          "type": "bool"
        }
      ],
      "stateMutability": "view",
      "type": "function"
    },
    {
      "inputs": [
        {
          "internalType": "address",
          "name": "",
          "type": "address"
        }
      ],
      "name": "authorizedTraders",
      "outputs": [
        {
          "internalType": "bool",
          "name": "",
          "type": "bool"
        }
      ],
      "stateMutability": "view",
      "type": "function"
    },
    {
      "inputs": [],
      "name": "checkExposure",
      "outputs": [
        {
          "internalType": "uint256",
          "name": "currentExposure",
          "type": "uint256"
        },
        {
          "internalType": "uint256",
          "name": "maxAllowedExposure",
          "type": "uint256"
        },
        {
          "internalType": "uint256",
          "name": "utilizationBps",
          "type": "uint256"
        }
      ],
      "stateMutability": "view",
      "type": "function"
    },
    {
      "inputs": [],
      "name": "collateralToken",
      "outputs": [
        {
          "internalType": "contract IERC20",
          "name": "",
          "type": "address"
        }
      ],
      "stateMutability": "view",
      "type": "function"
    },
    {
      "inputs": [
        {
          "internalType": "uint256",
          "name": "amount",
          "type": "uint256"
        }
      ],
      "name": "deposit",
      "outputs": [],
      "stateMutability": "nonpayable",
      "type": "function"
    },
    {
      "inputs": [
        {
          "internalType": "address",
          "name": "recipient",
          "type": "address"
        },
        {
          "internalType": "uint256",
          "name": "amount",
          "type": "uint256"
        }
      ],
      "name": "emergencyWithdraw",
      "outputs": [],
      "stateMutability": "nonpayable",
      "type": "function"
    },
    {
      "inputs": [],
      "name": "getAvailableCollateral",
      "outputs": [
        {
          "internalType": "uint256",
          "name": "",
          "type": "uint256"
        }
      ],
      "stateMutability": "view",
      "type": "function"
    },
    {
      "inputs": [],
      "name": "getTotalAllocated",
      "outputs": [
        {
          "internalType": "uint256",
          "name": "",
          "type": "uint256"
        }
      ],
      "stateMutability": "view",
      "type": "function"
    },
    {
      "inputs": [
        {
          "internalType": "address",
          "name": "trader",
          "type": "address"
        }
      ],
      "name": "getTraderInfo",
      "outputs": [
        {
          "internalType": "uint256",
          "name": "locked",
          "type": "uint256"
        },
        {
          "internalType": "uint256",
          "name": "exposure",
          "type": "uint256"
        }
      ],
      "stateMutability": "view",
      "type": "function"
    },
    {
      "inputs": [],
      "name": "isHealthy",
      "outputs": [
        {
          "internalType": "bool",
          "name": "",
          "type": "bool"
        }
      ],
      "stateMutability": "view",
      "type": "function"
    },
    {
      "inputs": [],
      "name": "maxExposureRatio",
      "outputs": [
        {
          "internalType": "uint256",
          "name": "",
          "type": "uint256"
        }
      ],
      "stateMutability": "view",
      "type": "function"
    },
    {
      "inputs": [],
      "name": "minCollateralRatio",
      "outputs": [
        {
          "internalType": "uint256",
          "name": "",
          "type": "uint256"
        }
      ],
      "stateMutability": "view",
      "type": "function"
    },
    {
      "inputs": [],
      "name": "owner",
      "outputs": [
        {
          "internalType": "address",
          "name": "",
          "type": "address"
        }
      ],
      "stateMutability": "view",
      "type": "function"
    },
    {
      "inputs": [
        {
          "internalType": "string",
          "name": "reason",
          "type": "string"
        }
      ],
      "name": "pauseTrading",
      "outputs": [],
      "stateMutability": "nonpayable",
      "type": "function"
    },
    {
      "inputs": [],
      "name": "paused",
      "outputs": [
        {
          "internalType": "bool",
          "name": "",
          "type": "bool"
        }
      ],
      "stateMutability": "view",
      "type": "function"
    },
    {
      "inputs": [
        {
          "internalType": "uint256",
          "name": "amount",
          "type": "uint256"
        }
      ],
      "name": "releaseCollateral",
      "outputs": [],
      "stateMutability": "nonpayable",
      "type": "function"
    },
    {
      "inputs": [],
      "name": "renounceOwnership",
      "outputs": [],
      "stateMutability": "nonpayable",
      "type": "function"
    },
    {
      "inputs": [
        {
          "internalType": "address",
          "name": "manager",
          "type": "address"
        },
        {
          "internalType": "bool",
          "name": "authorized",
          "type": "bool"
        }
      ],
      "name": "setAuthorizedManager",
      "outputs": [],
      "stateMutability": "nonpayable",
      "type": "function"
    },
    {
      "inputs": [
        {
          "internalType": "address",
          "name": "trader",
          "type": "address"
        },
        {
          "internalType": "bool",
          "name": "authorized",
          "type": "bool"
        }
      ],
      "name": "setAuthorizedTrader",
      "outputs": [],
      "stateMutability": "nonpayable",
      "type": "function"
    },
    {
      "inputs": [
        {
          "internalType": "uint256",
          "name": "_maxExposureRatio",
          "type": "uint256"
        }
      ],
      "name": "setMaxExposureRatio",
      "outputs": [],
      "stateMutability": "nonpayable",
      "type": "function"
    },
    {
      "inputs": [
        {
          "internalType": "uint256",
          "name": "_minCollateralRatio",
          "type": "uint256"
        }
      ],
      "name": "setMinCollateralRatio",
      "outputs": [],
      "stateMutability": "nonpayable",
      "type": "function"
    },
    {
      "inputs": [
        {
          "internalType": "address",
          "name": "trader",
          "type": "address"
        },
        {
          "internalType": "int256",
          "name": "pnl",
          "type": "int256"
        }
      ],
      "name": "settlePnL",
      "outputs": [],
      "stateMutability": "nonpayable",
      "type": "function"
    },
    {
      "inputs": [],
      "name": "totalCollateral",
      "outputs": [
        {
          "internalType": "uint256",
          "name": "",
          "type": "uint256"
        }
      ],
      "stateMutability": "view",
      "type": "function"
    },
    {
      "inputs": [],
      "name": "totalExposure",
      "outputs": [
        {
          "internalType": "uint256",
          "name": "",
          "type": "uint256"
        }
      ],
      "stateMutability": "view",
      "type": "function"
    },
    {
      "inputs": [
        {
          "internalType": "address",
          "name": "",
          "type": "address"
        }
      ],
      "name": "traderCollateral",
      "outputs": [
        {
          "internalType": "uint256",
          "name": "",
          "type": "uint256"
        }
      ],
      "stateMutability": "view",
      "type": "function"
    },
    {
      "inputs": [
        {
          "internalType": "address",
          "name": "",
          "type": "address"
        }
      ],
      "name": "traderExposure",
      "outputs": [
        {
          "internalType": "uint256",
          "name": "",
          "type": "uint256"
        }
      ],
      "stateMutability": "view",
      "type": "function"
    },
    {
      "inputs": [
        {
          "internalType": "address",
          "name": "newOwner",
          "type": "address"
        }
      ],
      "name": "transferOwnership",
      "outputs": [],
      "stateMutability": "nonpayable",
      "type": "function"
    },
    {
      "inputs": [],
      "name": "unpauseTrading",
      "outputs": [],
      "stateMutability": "nonpayable",
      "type": "function"
    },
    {
      "inputs": [
        {
          "internalType": "uint256",
          "name": "newExposure",
          "type": "uint256"
        }
      ],
      "name": "updateExposure",
      "outputs": [],
      "stateMutability": "nonpayable",
      "type": "function"
    },
    {
      "inputs": [
        {
          "internalType": "uint256",
          "name": "amount",
          "type": "uint256"
        }
      ],
      "name": "withdraw",
      "outputs": [],
      "stateMutability": "nonpayable",
      "type": "function"
    }
  ],
  "bytecode": "0x60a06040523480156200001157600080fd5b5060405162001ac238038062001ac2833981016040819052620000349162000159565b806001600160a01b0381166200006557604051631e4fbdf760e01b8152600060048201526024015b60405180910390fd5b6200007081620000ec565b50600180556001600160a01b038216620000cd5760405162461bcd60e51b815260206004820152601b60248201527f54726164696e675661756c743a20496e76616c696420746f6b656e000000000060448201526064016200005c565b506001600160a01b0316608052611f40600455612ee060055562000191565b600080546001600160a01b038381166001600160a01b0319831681178455604051919092169283917f8be0079c531659141344cd1fd0a4f28419497f9722a3daafe3b4186f6b6457e09190a35050565b80516001600160a01b03811681146200015457600080fd5b919050565b600080604083850312156200016d57600080fd5b62000178836200013c565b915062000188602084016200013c565b90509250929050565b6080516118f2620001d06000396000818161041d015281816105fb01528181610bb601528181610dd601528181610eb30152610f5201526118f26000f3fe608060405234801561001057600080fd5b50600436106101e55760003560e01c806382299a5c1161010f578063b2016bd4116100a2578063e402080411610071578063e40208041461046d578063e89cd14a14610475578063f2fde38b1461047e578063fe3877a21461049157600080fd5b8063b2016bd414610418578063b6b55f251461043f578063dcaac26714610452578063e28a327d1461046557600080fd5b80638e39246d116100de5780638e39246d146103af57806393f8cfde146103d257806395ccea67146103e5578063a4fe5b58146103f857600080fd5b806382299a5c1461035657806384da26661461035e5780638c3ab5c2146103675780638da5cb5b1461038a57600080fd5b80634ac8eb5f11610187578063695f577511610156578063695f5775146103125780636af9eea914610325578063715018a61461034557806379f883da1461034d57600080fd5b80634ac8eb5f146102c35780635c975abb146102da57806360c7a17f146102ec57806362990d2f146102ff57600080fd5b80632e1a7d4d116101c35780632e1a7d4d14610282578063385362751461029557806339007b77146102a8578063456068d2146102bb57600080fd5b8063072ffff5146101ea5780630a3cb21b1461023a5780632b71fb3a1461026d575b600080fd5b6102206101f836600461165c565b6001600160a01b03166000908152600760209081526040808320546006909252909120549091565b604080519283526020830191909152015b60405180910390f35b61025d61024836600461165c565b60096020526000908152604090205460ff1681565b6040519015158152602001610231565b61028061027b366004611677565b6104a4565b005b6102806102903660046116b3565b610532565b6102806102a33660046116b3565b610665565b6102806102b63660046116b3565b610711565b61028061083f565b6102cc60025481565b604051908152602001610231565b600054600160a01b900460ff1661025d565b6102806102fa3660046116cc565b610851565b61028061030d36600461173e565b610894565b610280610320366004611677565b610a93565b6102cc61033336600461165c565b60076020526000908152604090205481565b610280610b8c565b6102cc60035481565b6102cc610b9e565b6102cc60055481565b61036f610c3b565b60408051938452602084019290925290820152606001610231565b6000546001600160a01b03165b6040516001600160a01b039091168152602001610231565b61025d6103bd36600461165c565b60086020526000908152604090205460ff1681565b6102806103e03660046116b3565b610c8c565b6102806103f336600461173e565b610d30565b6102cc61040636600461165c565b60066020526000908152604090205481565b6103977f000000000000000000000000000000000000000000000000000000000000000081565b61028061044d3660046116b3565b610f15565b6102806104603660046116b3565b610fc3565b6102cc6111b1565b61025d6111e2565b6102cc60045481565b61028061048c36600461165c565b611205565b61028061049f3660046116b3565b611240565b6104ac61135f565b6001600160a01b0382166105075760405162461bcd60e51b815260206004820152601d60248201527f54726164696e675661756c743a20496e76616c6964206d616e6167657200000060448201526064015b60405180910390fd5b6001600160a01b03919091166000908152600960205260409020805460ff1916911515919091179055565b61053a61135f565b61054261138c565b600081116105625760405162461bcd60e51b81526004016104fe90611768565b600061056c6111b1565b9050808211156105d65760405162461bcd60e51b815260206004820152602f60248201527f54726164696e675661756c743a20496e73756666696369656e7420617661696c60448201526e18589b194818dbdb1b185d195c985b608a1b60648201526084016104fe565b81600260008282546105e891906117b5565b9091555061062290506001600160a01b037f00000000000000000000000000000000000000000000000000000000000000001633846113b6565b60405182815233907fc30fcfbcaac9e0deffa719714eaa82396ff506a0d0d0eebe170830177288715d906020015b60405180910390a25061066260018055565b50565b61066d61135f565b6127108110156106cb5760405162461bcd60e51b815260206004820152602360248201527f54726164696e675661756c743a20526174696f206d757374206265203e3d203160448201526230302560e81b60648201526084016104fe565b600580549082905560408051828152602081018490527fea851fc89ebccda62380b76fc8e8317f0bcd4d75ea908cf501bd2ebc6ac1c8f291015b60405180910390a15050565b61071961138c565b3360009081526008602052604090205460ff166107485760405162461bcd60e51b81526004016104fe906117ce565b600081116107685760405162461bcd60e51b81526004016104fe90611768565b336000908152600760205260409020548111156107dc5760405162461bcd60e51b815260206004820152602c60248201527f54726164696e675661756c743a20496e73756666696369656e74206c6f636b6560448201526b190818dbdb1b185d195c985b60a21b60648201526084016104fe565b33600090815260076020526040812080548392906107fb9084906117b5565b909155505060405181815233907f15192ee5c95e01de0681c61d6cbfa4b8d1e4c160294017332eb7d6e5c4ea38b7906020015b60405180910390a261066260018055565b61084761135f565b61084f61141a565b565b61085961135f565b61086161146f565b7f11e14980534de91c35b0b5789822fd9140674329b6c83a3d89d46e1ec814077642838360405161070593929190611805565b61089c61135f565b6108a461138c565b6001600160a01b03821660009081526008602052604090205460ff166109185760405162461bcd60e51b815260206004820152602360248201527f54726164696e675661756c743a204e6f7420617574686f72697a6564207472616044820152623232b960e91b60648201526084016104fe565b600081131561096957816001600160a01b03167f15192ee5c95e01de0681c61d6cbfa4b8d1e4c160294017332eb7d6e5c4ea38b78260405161095c91815260200190565b60405180910390a2610a86565b6000811215610a8657600061097d8261183b565b6001600160a01b0384166000908152600760205260409020549091508111156109ff5760405162461bcd60e51b815260206004820152602e60248201527f54726164696e675661756c743a20496e73756666696369656e7420636f6c6c6160448201526d746572616c20666f72206c6f737360901b60648201526084016104fe565b6001600160a01b03831660009081526007602052604081208054839290610a279084906117b5565b925050819055508060026000828254610a4091906117b5565b90915550506040518181526001600160a01b038416907fa056ffc766bf8d666c3c356852abe2066c4435df7f85008d7e7c931f68e420cb906020015b60405180910390a2505b610a8f60018055565b5050565b6000546001600160a01b0316331480610abb57503360009081526009602052604090205460ff165b610ad75760405162461bcd60e51b81526004016104fe906117ce565b6001600160a01b038216610b2d5760405162461bcd60e51b815260206004820152601c60248201527f54726164696e675661756c743a20496e76616c6964207472616465720000000060448201526064016104fe565b6001600160a01b038216600081815260086020908152604091829020805460ff191685151590811790915591519182527f4e4a14a81fdc5c6879426205607e4930cb28a4a7b451fb6d87465717f5ba4c73910160405180910390a25050565b610b9461135f565b61084f60006114b2565b6040516370a0823160e01b81523060048201526000907f00000000000000000000000000000000000000000000000000000000000000006001600160a01b0316906370a0823190602401602060405180830381865afa158015610c05573d6000803e3d6000fd5b505050506040513d601f19601f82011682018060405250810190610c299190611857565b600254610c3691906117b5565b905090565b600354600080612710600454600254610c549190611870565b610c5e9190611887565b91508115610c845781610c7361271085611870565b610c7d9190611887565b9050909192565b506000909192565b610c9461135f565b600081118015610ca657506127108111155b610cf25760405162461bcd60e51b815260206004820152601b60248201527f54726164696e675661756c743a20496e76616c696420726174696f000000000060448201526064016104fe565b600480549082905560408051828152602081018490527fd00a407adf2863441aa9e6bcbba2a9a27a527d40b992d4678383a0914143fa529101610705565b610d3861135f565b610d40611502565b610d4861138c565b6001600160a01b038216610d9e5760405162461bcd60e51b815260206004820152601f60248201527f54726164696e675661756c743a20496e76616c696420726563697069656e740060448201526064016104fe565b60008111610dbe5760405162461bcd60e51b81526004016104fe90611768565b6040516370a0823160e01b81523060048201526000907f00000000000000000000000000000000000000000000000000000000000000006001600160a01b0316906370a0823190602401602060405180830381865afa158015610e25573d6000803e3d6000fd5b505050506040513d601f19601f82011682018060405250810190610e499190611857565b905080821115610ea65760405162461bcd60e51b815260206004820152602260248201527f54726164696e675661756c743a20496e73756666696369656e742062616c616e604482015261636560f01b60648201526084016104fe565b610eda6001600160a01b037f00000000000000000000000000000000000000000000000000000000000000001684846113b6565b826001600160a01b03167fc30fcfbcaac9e0deffa719714eaa82396ff506a0d0d0eebe170830177288715d83604051610a7c91815260200190565b610f1d61135f565b610f2561138c565b60008111610f455760405162461bcd60e51b81526004016104fe90611768565b610f7a6001600160a01b037f00000000000000000000000000000000000000000000000000000000000000001633308461152c565b8060026000828254610f8c91906118a9565b909155505060405181815233907fd7243f6f8212d5188fd054141cf6ea89cfc0d91facb8c3afe2f88a13584801429060200161082e565b610fcb61156b565b3360009081526008602052604090205460ff16610ffa5760405162461bcd60e51b81526004016104fe906117ce565b336000908152600660205260409020548082111561103e57600061101e82846117b5565b9050806003600082825461103291906118a9565b9091555061106d915050565b8082101561106d57600061105283836117b5565b9050806003600082825461106691906117b5565b9091555050505b60006127106004546002546110829190611870565b61108c9190611887565b90508060035411156110ee5760405162461bcd60e51b815260206004820152602560248201527f54726164696e675661756c743a204578706f73757265206c696d697420657863604482015264195959195960da1b60648201526084016104fe565b6110ff600254600354600554611596565b6111605760405162461bcd60e51b815260206004820152602c60248201527f54726164696e675661756c743a20496e73756666696369656e7420636f6c6c6160448201526b3a32b930b634bd30ba34b7b760a11b60648201526084016104fe565b3360008181526006602090815260409182902086905581518581529081018690527f91d503cf68a3cfeaea2685ee85e78515c2b9b4907003606f65c48f55a723fe21910160405180910390a2505050565b6000806111bc610b9e565b905080600254116111ce5760006111dc565b806002546111dc91906117b5565b91505090565b60006003546000036111f45750600190565b610c36600254600354600554611596565b61120d61135f565b6001600160a01b03811661123757604051631e4fbdf760e01b8152600060048201526024016104fe565b610662816114b2565b61124861138c565b61125061156b565b3360009081526008602052604090205460ff1661127f5760405162461bcd60e51b81526004016104fe906117ce565b6000811161129f5760405162461bcd60e51b81526004016104fe90611768565b60006112a96111b1565b9050808211156113095760405162461bcd60e51b815260206004820152602560248201527f54726164696e675661756c743a20496e73756666696369656e7420636f6c6c616044820152641d195c985b60da1b60648201526084016104fe565b33600090815260076020526040812080548492906113289084906118a9565b909155505060405182815233907fa056ffc766bf8d666c3c356852abe2066c4435df7f85008d7e7c931f68e420cb90602001610650565b6000546001600160a01b0316331461084f5760405163118cdaa760e01b81523360048201526024016104fe565b6002600154036113af57604051633ee5aeb560e01b815260040160405180910390fd5b6002600155565b6040516001600160a01b0383811660248301526044820183905261141591859182169063a9059cbb906064015b604051602081830303815290604052915060e01b6020820180516001600160e01b0383818316178352505050506115cf565b505050565b611422611502565b6000805460ff60a01b191690557f5db9ee0a495bf2e6ff9c91a7834c1ba4fdd244a5e8aa4e537bd38aeae4b073aa335b6040516001600160a01b03909116815260200160405180910390a1565b61147761156b565b6000805460ff60a01b1916600160a01b1790557f62e78cea01bee320cd4e420270b5ea74000d11b0c9f74754ebdbfc544b05a2586114523390565b600080546001600160a01b038381166001600160a01b0319831681178455604051919092169283917f8be0079c531659141344cd1fd0a4f28419497f9722a3daafe3b4186f6b6457e09190a35050565b600054600160a01b900460ff1661084f57604051638dfc202b60e01b815260040160405180910390fd5b6040516001600160a01b0384811660248301528381166044830152606482018390526115659186918216906323b872dd906084016113e3565b50505050565b600054600160a01b900460ff161561084f5760405163d93c066560e01b815260040160405180910390fd5b6000826000036115a8575060016115c8565b6000836115b761271087611870565b6115c19190611887565b8311159150505b9392505050565b600080602060008451602086016000885af1806115f2576040513d6000823e3d81fd5b50506000513d9150811561160a578060011415611617565b6001600160a01b0384163b155b1561156557604051635274afe760e01b81526001600160a01b03851660048201526024016104fe565b80356001600160a01b038116811461165757600080fd5b919050565b60006020828403121561166e57600080fd5b6115c882611640565b6000806040838503121561168a57600080fd5b61169383611640565b9150602083013580151581146116a857600080fd5b809150509250929050565b6000602082840312156116c557600080fd5b5035919050565b600080602083850312156116df57600080fd5b823567ffffffffffffffff808211156116f757600080fd5b818501915085601f83011261170b57600080fd5b81358181111561171a57600080fd5b86602082850101111561172c57600080fd5b60209290920196919550909350505050565b6000806040838503121561175157600080fd5b61175a83611640565b946020939093013593505050565b6020808252601c908201527f54726164696e675661756c743a20496e76616c696420616d6f756e7400000000604082015260600190565b634e487b7160e01b600052601160045260246000fd5b818103818111156117c8576117c861179f565b92915050565b6020808252601c908201527f54726164696e675661756c743a204e6f7420617574686f72697a656400000000604082015260600190565b83815260406020820152816040820152818360608301376000818301606090810191909152601f909201601f1916010192915050565b6000600160ff1b82016118505761185061179f565b5060000390565b60006020828403121561186957600080fd5b5051919050565b80820281158282048414176117c8576117c861179f565b6000826118a457634e487b7160e01b600052601260045260246000fd5b500490565b808201808211156117c8576117c861179f56fea2646970667358221220911fcde8a4a261ece9d59482435c7dbf72156b494973f8f58e579365f48e8f1464736f6c63430008140033",
  "linkReferences": {},
  "deployedLinkReferences": {}
}