{
  "_format": "hh-sol-artifact-1",
  "contractName": "TraderVaultFactory",
  "sourceName": "contracts/core/TraderVaultFactory.sol",
  "abi": [
    {
      "inputs": [
        {
          "internalType": "address",
          "name": "_reputationNFT",
          "type": "address"
        },
        {
          "internalType": "address",
          "name": "_treasury",
          "type": "address"
        },
        {
          "internalType": "address",
          "name": "_tradingVault",
          "type": "address"
        },
        {
          "internalType": "address",
          "name": "_oracleRegistry",
          "type": "address"
        },
        {
          "internalType": "address",
          "name": "_collateralToken",
          "type": "address"
        },
        {
          "internalType": "address",
          "name": "_initialOwner",
          "type": "address"
        }
      ],
      "stateMutability": "nonpayable",
      "type": "constructor"
    },
    {
      "inputs": [],
      "name": "EnforcedPause",
      "type": "error"
    },
    {
      "inputs": [],
      "name": "ExpectedPause",
      "type": "error"
    },
    {
      "inputs": [
        {
          "internalType": "address",
          "name": "owner",
          "type": "address"
        }
      ],
      "name": "OwnableInvalidOwner",
      "type": "error"
    },
    {
      "inputs": [
        {
          "internalType": "address",
          "name": "account",
          "type": "address"
        }
      ],
      "name": "OwnableUnauthorizedAccount",
      "type": "error"
    },
    {
      "inputs": [],
      "name": "ReentrancyGuardReentrantCall",
      "type": "error"
    },
    {
      "anonymous": false,
      "inputs": [
        {
          "indexed": false,
          "internalType": "uint256",
          "name": "initialCapital",
          "type": "uint256"
        },
        {
          "indexed": false,
          "internalType": "uint256",
          "name": "maxPositionSize",
          "type": "uint256"
        },
        {
          "indexed": false,
          "internalType": "uint256",
          "name": "maxDailyLoss",
          "type": "uint256"
        },
        {
          "indexed": false,
          "internalType": "uint256",
          "name": "profitSplitBps",
          "type": "uint256"
        }
      ],
      "name": "ConfigUpdated",
      "type": "event"
    },
    {
      "anonymous": false,
      "inputs": [
        {
          "indexed": true,
          "internalType": "address",
          "name": "previousOwner",
          "type": "address"
        },
        {
          "indexed": true,
          "internalType": "address",
          "name": "newOwner",
          "type": "address"
        }
      ],
      "name": "OwnershipTransferred",
      "type": "event"
    },
    {
      "anonymous": false,
      "inputs": [
        {
          "indexed": false,
          "internalType": "address",
          "name": "account",
          "type": "address"
        }
      ],
      "name": "Paused",
      "type": "event"
    },
    {
      "anonymous": false,
      "inputs": [
        {
          "indexed": false,
          "internalType": "address",
          "name": "account",
          "type": "address"
        }
      ],
      "name": "Unpaused",
      "type": "event"
    },
    {
      "anonymous": false,
      "inputs": [
        {
          "indexed": true,
          "internalType": "address",
          "name": "trader",
          "type": "address"
        },
        {
          "indexed": true,
          "internalType": "address",
          "name": "vault",
          "type": "address"
        },
        {
          "indexed": false,
          "internalType": "uint256",
          "name": "initialCapital",
          "type": "uint256"
        },
        {
          "indexed": false,
          "internalType": "uint256",
          "name": "timestamp",
          "type": "uint256"
        }
      ],
      "name": "VaultDeployed",
      "type": "event"
    },
    {
      "anonymous": false,
      "inputs": [
        {
          "indexed": true,
          "internalType": "address",
          "name": "vault",
          "type": "address"
        },
        {
          "indexed": false,
          "internalType": "uint256",
          "name": "amount",
          "type": "uint256"
        }
      ],
      "name": "VaultFunded",
      "type": "event"
    },
    {
      "inputs": [
        {
          "internalType": "uint256",
          "name": "",
          "type": "uint256"
        }
      ],
      "name": "allVaults",
      "outputs": [
        {
          "internalType": "address",
          "name": "",
          "type": "address"
        }
      ],
      "stateMutability": "view",
      "type": "function"
    },
    {
      "inputs": [],
      "name": "collateralToken",
      "outputs": [
        {
          "internalType": "contract IERC20",
          "name": "",
          "type": "address"
        }
      ],
      "stateMutability": "view",
      "type": "function"
    },
    {
      "inputs": [],
      "name": "defaultConfig",
      "outputs": [
        {
          "internalType": "uint256",
          "name": "initialCapital",
          "type": "uint256"
        },
        {
          "internalType": "uint256",
          "name": "maxPositionSize",
          "type": "uint256"
        },
        {
          "internalType": "uint256",
          "name": "maxDailyLoss",
          "type": "uint256"
        },
        {
          "internalType": "uint256",
          "name": "profitSplitBps",
          "type": "uint256"
        }
      ],
      "stateMutability": "view",
      "type": "function"
    },
    {
      "inputs": [],
      "name": "deployVault",
      "outputs": [
        {
          "internalType": "address",
          "name": "vault",
          "type": "address"
        }
      ],
      "stateMutability": "nonpayable",
      "type": "function"
    },
    {
      "inputs": [
        {
          "internalType": "address",
          "name": "trader",
          "type": "address"
        },
        {
          "components": [
            {
              "internalType": "uint256",
              "name": "initialCapital",
              "type": "uint256"
            },
            {
              "internalType": "uint256",
              "name": "maxPositionSize",
              "type": "uint256"
            },
            {
              "internalType": "uint256",
              "name": "maxDailyLoss",
              "type": "uint256"
            },
            {
              "internalType": "uint256",
              "name": "profitSplitBps",
              "type": "uint256"
            }
          ],
          "internalType": "struct TraderVaultFactory.VaultConfig",
          "name": "config",
          "type": "tuple"
        }
      ],
      "name": "deployVaultWithConfig",
      "outputs": [
        {
          "internalType": "address",
          "name": "vault",
          "type": "address"
        }
      ],
      "stateMutability": "nonpayable",
      "type": "function"
    },
    {
      "inputs": [],
      "name": "getAllVaults",
      "outputs": [
        {
          "internalType": "address[]",
          "name": "",
          "type": "address[]"
        }
      ],
      "stateMutability": "view",
      "type": "function"
    },
    {
      "inputs": [
        {
          "internalType": "uint256",
          "name": "index",
          "type": "uint256"
        }
      ],
      "name": "getVaultAt",
      "outputs": [
        {
          "internalType": "address",
          "name": "",
          "type": "address"
        }
      ],
      "stateMutability": "view",
      "type": "function"
    },
    {
      "inputs": [
        {
          "internalType": "address",
          "name": "trader",
          "type": "address"
        }
      ],
      "name": "getVaultByTrader",
      "outputs": [
        {
          "internalType": "address",
          "name": "",
          "type": "address"
        }
      ],
      "stateMutability": "view",
      "type": "function"
    },
    {
      "inputs": [],
      "name": "getVaultCount",
      "outputs": [
        {
          "internalType": "uint256",
          "name": "",
          "type": "uint256"
        }
      ],
      "stateMutability": "view",
      "type": "function"
    },
    {
      "inputs": [
        {
          "internalType": "address",
          "name": "trader",
          "type": "address"
        }
      ],
      "name": "getVaultStats",
      "outputs": [
        {
          "internalType": "bool",
          "name": "exists",
          "type": "bool"
        },
        {
          "internalType": "address",
          "name": "vault",
          "type": "address"
        },
        {
          "internalType": "uint256",
          "name": "balance",
          "type": "uint256"
        },
        {
          "internalType": "uint256",
          "name": "profit",
          "type": "uint256"
        }
      ],
      "stateMutability": "view",
      "type": "function"
    },
    {
      "inputs": [
        {
          "internalType": "address",
          "name": "trader",
          "type": "address"
        }
      ],
      "name": "hasVault",
      "outputs": [
        {
          "internalType": "bool",
          "name": "",
          "type": "bool"
        }
      ],
      "stateMutability": "view",
      "type": "function"
    },
    {
      "inputs": [
        {
          "internalType": "address",
          "name": "",
          "type": "address"
        }
      ],
      "name": "isVault",
      "outputs": [
        {
          "internalType": "bool",
          "name": "",
          "type": "bool"
        }
      ],
      "stateMutability": "view",
      "type": "function"
    },
    {
      "inputs": [],
      "name": "oracleRegistry",
      "outputs": [
        {
          "internalType": "contract OracleRegistry",
          "name": "",
          "type": "address"
        }
      ],
      "stateMutability": "view",
      "type": "function"
    },
    {
      "inputs": [],
      "name": "owner",
      "outputs": [
        {
          "internalType": "address",
          "name": "",
          "type": "address"
        }
      ],
      "stateMutability": "view",
      "type": "function"
    },
    {
      "inputs": [],
      "name": "pause",
      "outputs": [],
      "stateMutability": "nonpayable",
      "type": "function"
    },
    {
      "inputs": [],
      "name": "paused",
      "outputs": [
        {
          "internalType": "bool",
          "name": "",
          "type": "bool"
        }
      ],
      "stateMutability": "view",
      "type": "function"
    },
    {
      "inputs": [
        {
          "internalType": "address",
          "name": "trader",
          "type": "address"
        },
        {
          "internalType": "bytes32",
          "name": "salt",
          "type": "bytes32"
        }
      ],
      "name": "predictVaultAddress",
      "outputs": [
        {
          "internalType": "address",
          "name": "",
          "type": "address"
        }
      ],
      "stateMutability": "view",
      "type": "function"
    },
    {
      "inputs": [],
      "name": "renounceOwnership",
      "outputs": [],
      "stateMutability": "nonpayable",
      "type": "function"
    },
    {
      "inputs": [],
      "name": "reputationNFT",
      "outputs": [
        {
          "internalType": "contract ReputationNFT",
          "name": "",
          "type": "address"
        }
      ],
      "stateMutability": "view",
      "type": "function"
    },
    {
      "inputs": [
        {
          "components": [
            {
              "internalType": "uint256",
              "name": "initialCapital",
              "type": "uint256"
            },
            {
              "internalType": "uint256",
              "name": "maxPositionSize",
              "type": "uint256"
            },
            {
              "internalType": "uint256",
              "name": "maxDailyLoss",
              "type": "uint256"
            },
            {
              "internalType": "uint256",
              "name": "profitSplitBps",
              "type": "uint256"
            }
          ],
          "internalType": "struct TraderVaultFactory.VaultConfig",
          "name": "config",
          "type": "tuple"
        }
      ],
      "name": "setDefaultConfig",
      "outputs": [],
      "stateMutability": "nonpayable",
      "type": "function"
    },
    {
      "inputs": [
        {
          "internalType": "address",
          "name": "",
          "type": "address"
        }
      ],
      "name": "traderToVault",
      "outputs": [
        {
          "internalType": "address",
          "name": "",
          "type": "address"
        }
      ],
      "stateMutability": "view",
      "type": "function"
    },
    {
      "inputs": [],
      "name": "tradingVault",
      "outputs": [
        {
          "internalType": "contract TradingVault",
          "name": "",
          "type": "address"
        }
      ],
      "stateMutability": "view",
      "type": "function"
    },
    {
      "inputs": [
        {
          "internalType": "address",
          "name": "newOwner",
          "type": "address"
        }
      ],
      "name": "transferOwnership",
      "outputs": [],
      "stateMutability": "nonpayable",
      "type": "function"
    },
    {
      "inputs": [],
      "name": "treasury",
      "outputs": [
        {
          "internalType": "contract TreasuryManager",
          "name": "",
          "type": "address"
        }
      ],
      "stateMutability": "view",
      "type": "function"
    },
    {
      "inputs": [],
      "name": "unpause",
      "outputs": [],
      "stateMutability": "nonpayable",
      "type": "function"
    }
  ],
  "bytecode": "0x6101206040523480156200001257600080fd5b50604051620046cf380380620046cf83398101604081905262000035916200030e565b806001600160a01b0381166200006657604051631e4fbdf760e01b8152600060048201526024015b60405180910390fd5b6200007181620002a1565b50600180556001600160a01b038616620000ce5760405162461bcd60e51b815260206004820152601460248201527f466163746f72793a20496e76616c6964204e465400000000000000000000000060448201526064016200005d565b6001600160a01b038516620001265760405162461bcd60e51b815260206004820152601960248201527f466163746f72793a20496e76616c69642074726561737572790000000000000060448201526064016200005d565b6001600160a01b0384166200017e5760405162461bcd60e51b815260206004820152601e60248201527f466163746f72793a20496e76616c69642074726164696e67207661756c74000060448201526064016200005d565b6001600160a01b038316620001d65760405162461bcd60e51b815260206004820152601760248201527f466163746f72793a20496e76616c6964206f7261636c6500000000000000000060448201526064016200005d565b6001600160a01b0382166200022e5760405162461bcd60e51b815260206004820152601660248201527f466163746f72793a20496e76616c696420746f6b656e0000000000000000000060448201526064016200005d565b506001600160a01b03948516608090815293851660a05291841660c052831660e0529091166101005260408051918201815264174876e8008083526402540be400602084018190526377359400928401839052611f4060609094018490526002919091556003556004556005556200038f565b600080546001600160a01b038381166001600160a01b0319831681178455604051919092169283917f8be0079c531659141344cd1fd0a4f28419497f9722a3daafe3b4186f6b6457e09190a35050565b80516001600160a01b03811681146200030957600080fd5b919050565b60008060008060008060c087890312156200032857600080fd5b6200033387620002f1565b95506200034360208801620002f1565b94506200035360408801620002f1565b93506200036360608801620002f1565b92506200037360808801620002f1565b91506200038360a08801620002f1565b90509295509295509295565b60805160a05160c05160e0516101005161427d620004526000396000818161041d0152818161057b015281816109960152610fe101526000818161026101528181610559015281816109750152610fc001526000818161045c015281816105370152818161095401528181610aad01528181610f9f01526110f201526000818161029c015281816105150152818161093301528181610b3301528181610f7e015261117401526000818161049b015281816107f10152610da6015261427d6000f3fe60806040523480156200001157600080fd5b5060043610620001925760003560e01c80637a98742d11620000f05780639e09ed5f11620000a3578063d025df0d116200007a578063d025df0d146200043f578063f1bd27a81462000456578063f2fde38b146200047e578063fa488649146200049557600080fd5b80639e09ed5f14620003c8578063aa613ce51462000400578063b2016bd4146200041757600080fd5b80637a98742d146200035b5780638456cb5914620003725780638da5cb5b146200037c578063901c4e4f146200038e5780639094a91e146200039857806397331bf914620003af57600080fd5b806361d027b3116200014957806361d027b31462000296578063652b9b4114620002be5780636eb2926114620002e4578063715018a6146200031057806373086c12146200031a57806374d4e491146200034957600080fd5b8063089ec70e14620001975780630d453efb14620001cb5780633f4ba83a146200020d57806343360a6914620002195780634bb93ab1146200025b5780635c975abb1462000283575b600080fd5b620001ae620001a8366004620015da565b620004bd565b6040516001600160a01b0390911681526020015b60405180910390f35b620001fc620001dc36600462001607565b6001600160a01b0390811660009081526006602052604090205416151590565b6040519015158152602001620001c2565b6200021762000655565b005b620002306200022a36600462001607565b6200066b565b6040805194151585526001600160a01b039093166020850152918301526060820152608001620001c2565b620001ae7f000000000000000000000000000000000000000000000000000000000000000081565b600054600160a01b900460ff16620001fc565b620001ae7f000000000000000000000000000000000000000000000000000000000000000081565b620001fc620002cf36600462001607565b60086020526000908152604090205460ff1681565b620001ae620002f536600462001607565b6006602052600090815260409020546001600160a01b031681565b6200021762000711565b620001ae6200032b36600462001607565b6001600160a01b039081166000908152600660205260409020541690565b600754604051908152602001620001c2565b620001ae6200036c3660046200162c565b62000727565b62000217620007b2565b6000546001600160a01b0316620001ae565b620001ae620007c6565b620001ae620003a93660046200162c565b62000c80565b620003b962000cab565b604051620001c2919062001646565b600254600354600454600554620003df9392919084565b604080519485526020850193909352918301526060820152608001620001c2565b620001ae62000411366004620016ae565b62000d0f565b620001ae7f000000000000000000000000000000000000000000000000000000000000000081565b6200021762000450366004620016e7565b620012ba565b620001ae7f000000000000000000000000000000000000000000000000000000000000000081565b620002176200048f36600462001607565b620013cd565b620001ae7f000000000000000000000000000000000000000000000000000000000000000081565b60008060405180602001620004d290620015af565b601f1982820381018352601f909101166040529050600084620004fd6000546001600160a01b031690565b600254600354600454600554604051620005a49695947f0000000000000000000000000000000000000000000000000000000000000000947f0000000000000000000000000000000000000000000000000000000000000000947f0000000000000000000000000000000000000000000000000000000000000000947f00000000000000000000000000000000000000000000000000000000000000009460200162001706565b6040516020818303038152906040529050600060ff60f81b30868585604051602001620005d392919062001795565b604051602081830303815290604052805190602001206040516020016200063194939291906001600160f81b031994909416845260609290921b6bffffffffffffffffffffffff191660018401526015830152603582015260550190565b60408051601f19818403018152919052805160209091012093505050505b92915050565b6200065f62001411565b6200066962001440565b565b6001600160a01b0380821660009081526006602052604081205490911680158015929081906200070a576000839050806001600160a01b031663a59aa5a66040518163ffffffff1660e01b815260040160a060405180830381865afa158015620006d9573d6000803e3d6000fd5b505050506040513d601f19601f82011682018060405250810190620006ff9190620017b6565b509295509193505050505b9193509193565b6200071b62001411565b62000669600062001497565b6007546000908210620007815760405162461bcd60e51b815260206004820152601c60248201527f466163746f72793a20496e646578206f7574206f6620626f756e64730000000060448201526064015b60405180910390fd5b60078281548110620007975762000797620017f7565b6000918252602090912001546001600160a01b031692915050565b620007bc62001411565b62000669620014e7565b6000620007d26200152d565b620007dc62001558565b60405163261e1c0f60e21b81523360048201527f00000000000000000000000000000000000000000000000000000000000000006001600160a01b031690639878703c90602401602060405180830381865afa15801562000841573d6000803e3d6000fd5b505050506040513d601f19601f820116820180604052508101906200086791906200180d565b620008b55760405162461bcd60e51b815260206004820152601c60248201527f466163746f72793a204e6f2076616c69642063726564656e7469616c00000000604482015260640162000778565b336000908152600660205260409020546001600160a01b0316156200091d5760405162461bcd60e51b815260206004820152601d60248201527f466163746f72793a205661756c7420616c726561647920657869737473000000604482015260640162000778565b33620009316000546001600160a01b031690565b7f00000000000000000000000000000000000000000000000000000000000000007f00000000000000000000000000000000000000000000000000000000000000007f00000000000000000000000000000000000000000000000000000000000000007f00000000000000000000000000000000000000000000000000000000000000006002600001546002600101546002800154600260030154604051620009da90620015af565b620009ef9a9998979695949392919062001706565b604051809103906000f08015801562000a0c573d6000803e3d6000fd5b5033600090815260066020908152604080832080546001600160a01b03199081166001600160a01b038781169182179093556007805460018181019092557fa66cc928b5edb82af9bd49922954155ab7b0942694bea4ce44661d9a8736c6880180549093168217909255808652600890945293829020805460ff191685179055905163695f577560e01b8152600481019290925260248201929092529192507f0000000000000000000000000000000000000000000000000000000000000000169063695f577590604401600060405180830381600087803b15801562000af257600080fd5b505af115801562000b07573d6000803e3d6000fd5b5050600254604051639558edf360e01b81526001600160a01b03858116600483015260248201929092527f00000000000000000000000000000000000000000000000000000000000000009091169250639558edf39150604401600060405180830381600087803b15801562000b7c57600080fd5b505af115801562000b91573d6000803e3d6000fd5b50505050806001600160a01b031663fd9c652b6040518163ffffffff1660e01b8152600401600060405180830381600087803b15801562000bd157600080fd5b505af115801562000be6573d6000803e3d6000fd5b5050600254604080519182524260208301526001600160a01b03851693503392507f8fdf6816776db7c7cfdc95a5ef3396991c5b24bc916d1691c7f89085a127f3dd910160405180910390a36002546040519081526001600160a01b038216907fba24bd9b798cca64d1031eda1ced9398802343e44e07779bb510d7a21ddddef19060200160405180910390a262000c7d60018055565b90565b6007818154811062000c9157600080fd5b6000918252602090912001546001600160a01b0316905081565b6060600780548060200260200160405190810160405280929190818152602001828054801562000d0557602002820191906000526020600020905b81546001600160a01b0316815260019091019060200180831162000ce6575b5050505050905090565b600062000d1b62001411565b62000d256200152d565b62000d2f62001558565b6001600160a01b03831662000d875760405162461bcd60e51b815260206004820152601760248201527f466163746f72793a20496e76616c696420747261646572000000000000000000604482015260640162000778565b60405163261e1c0f60e21b81526001600160a01b0384811660048301527f00000000000000000000000000000000000000000000000000000000000000001690639878703c90602401602060405180830381865afa15801562000dee573d6000803e3d6000fd5b505050506040513d601f19601f8201168201806040525081019062000e1491906200180d565b62000e625760405162461bcd60e51b815260206004820152601c60248201527f466163746f72793a204e6f2076616c69642063726564656e7469616c00000000604482015260640162000778565b6001600160a01b03838116600090815260066020526040902054161562000ecc5760405162461bcd60e51b815260206004820152601d60248201527f466163746f72793a205661756c7420616c726561647920657869737473000000604482015260640162000778565b813562000f175760405162461bcd60e51b8152602060048201526018602482015277119858dd1bdc9e4e88125b9d985b1a590818d85c1a5d185b60421b604482015260640162000778565b6127108260600135111562000f685760405162461bcd60e51b8152602060048201526016602482015275119858dd1bdc9e4e88125b9d985b1a59081cdc1b1a5d60521b604482015260640162000778565b8262000f7c6000546001600160a01b031690565b7f00000000000000000000000000000000000000000000000000000000000000007f00000000000000000000000000000000000000000000000000000000000000007f00000000000000000000000000000000000000000000000000000000000000007f00000000000000000000000000000000000000000000000000000000000000008760000135886020013589604001358a606001356040516200102290620015af565b620010379a9998979695949392919062001706565b604051809103906000f08015801562001054573d6000803e3d6000fd5b506001600160a01b03848116600090815260066020908152604080832080548686166001600160a01b031991821681179092556007805460018181019092557fa66cc928b5edb82af9bd49922954155ab7b0942694bea4ce44661d9a8736c6880180549092168317909155818552600890935292819020805460ff1916831790555163695f577560e01b8152600481019290925260248201529192507f0000000000000000000000000000000000000000000000000000000000000000169063695f577590604401600060405180830381600087803b1580156200113757600080fd5b505af11580156200114c573d6000803e3d6000fd5b5050604051639558edf360e01b81526001600160a01b038481166004830152853560248301527f0000000000000000000000000000000000000000000000000000000000000000169250639558edf39150604401600060405180830381600087803b158015620011bb57600080fd5b505af1158015620011d0573d6000803e3d6000fd5b50505050806001600160a01b031663fd9c652b6040518163ffffffff1660e01b8152600401600060405180830381600087803b1580156200121057600080fd5b505af115801562001225573d6000803e3d6000fd5b505060408051853581524260208201526001600160a01b038086169450871692507f8fdf6816776db7c7cfdc95a5ef3396991c5b24bc916d1691c7f89085a127f3dd910160405180910390a3604051823581526001600160a01b038216907fba24bd9b798cca64d1031eda1ced9398802343e44e07779bb510d7a21ddddef19060200160405180910390a26200064f60018055565b620012c462001411565b80356200130f5760405162461bcd60e51b8152602060048201526018602482015277119858dd1bdc9e4e88125b9d985b1a590818d85c1a5d185b60421b604482015260640162000778565b61271081606001351115620013605760405162461bcd60e51b8152602060048201526016602482015275119858dd1bdc9e4e88125b9d985b1a59081cdc1b1a5d60521b604482015260640162000778565b803560028190556020808301356003819055604080850135600481905560608087013560058190558351968752948601939093528482015290830191909152517f84d25455db084cf777a0a4a00fcc28946b3a2ebc5cc866ef8820ab8571dbdd369181900360800190a150565b620013d762001411565b6001600160a01b0381166200140357604051631e4fbdf760e01b81526000600482015260240162000778565b6200140e8162001497565b50565b6000546001600160a01b03163314620006695760405163118cdaa760e01b815233600482015260240162000778565b6200144a62001584565b6000805460ff60a01b191690557f5db9ee0a495bf2e6ff9c91a7834c1ba4fdd244a5e8aa4e537bd38aeae4b073aa335b6040516001600160a01b03909116815260200160405180910390a1565b600080546001600160a01b038381166001600160a01b0319831681178455604051919092169283917f8be0079c531659141344cd1fd0a4f28419497f9722a3daafe3b4186f6b6457e09190a35050565b620014f162001558565b6000805460ff60a01b1916600160a01b1790557f62e78cea01bee320cd4e420270b5ea74000d11b0c9f74754ebdbfc544b05a2586200147a3390565b6002600154036200155157604051633ee5aeb560e01b815260040160405180910390fd5b6002600155565b600054600160a01b900460ff1615620006695760405163d93c066560e01b815260040160405180910390fd5b600054600160a01b900460ff166200066957604051638dfc202b60e01b815260040160405180910390fd5b612a16806200183283390190565b80356001600160a01b0381168114620015d557600080fd5b919050565b60008060408385031215620015ee57600080fd5b620015f983620015bd565b946020939093013593505050565b6000602082840312156200161a57600080fd5b6200162582620015bd565b9392505050565b6000602082840312156200163f57600080fd5b5035919050565b6020808252825182820181905260009190848201906040850190845b81811015620016895783516001600160a01b03168352928401929184019160010162001662565b50909695505050505050565b600060808284031215620016a857600080fd5b50919050565b60008060a08385031215620016c257600080fd5b620016cd83620015bd565b9150620016de846020850162001695565b90509250929050565b600060808284031215620016fa57600080fd5b62001625838362001695565b6001600160a01b039a8b168152988a1660208a0152968916604089015294881660608801529287166080870152951660a085015260c084019490945260e08301939093526101008201929092526101208101919091526101400190565b6000815160005b818110156200178657602081850181015186830152016200176a565b50600093019283525090919050565b6000620017ae620017a7838662001763565b8462001763565b949350505050565b600080600080600060a08688031215620017cf57600080fd5b5050835160208501516040860151606087015160809097015192989197509594509092509050565b634e487b7160e01b600052603260045260246000fd5b6000602082840312156200182057600080fd5b815180151581146200162557600080fdfe6101606040523480156200001257600080fd5b5060405162002a1638038062002a168339810160408190526200003591620001b4565b600180556001600160a01b038a16620000955760405162461bcd60e51b815260206004820152601a60248201527f5472616465725661756c743a20496e76616c6964206f776e657200000000000060448201526064015b60405180910390fd5b6001600160a01b038916620000ed5760405162461bcd60e51b815260206004820152601a60248201527f5472616465725661756c743a20496e76616c69642061646d696e00000000000060448201526064016200008c565b600084116200013f5760405162461bcd60e51b815260206004820152601c60248201527f5472616465725661756c743a20496e76616c6964206361706974616c0000000060448201526064016200008c565b6001600160a01b03998a1660805297891660a05295881660c05293871660e0529186166101005290941661012052610140849052600284905560039390935560079290925560089190915560095542600b556200025f565b80516001600160a01b0381168114620001af57600080fd5b919050565b6000806000806000806000806000806101408b8d031215620001d557600080fd5b620001e08b62000197565b9950620001f060208c0162000197565b98506200020060408c0162000197565b97506200021060608c0162000197565b96506200022060808c0162000197565b95506200023060a08c0162000197565b945060c08b0151935060e08b015192506101008b015191506101208b015190509295989b9194979a5092959850565b60805160a05160c05160e0516101005161012051610140516126c262000354600039600061037a01526000818161058c01528181610d5201528181610da601528181611158015281816111e0015261195e01526000818161030b0152818161099001528181610ac701528181610f0201526114ac01526000818161060c015281816116e70152611b200152600081816103ae01528181610dc80152610e03015260008181610656015281816107c6015281816108a601526110740152600081816104570152818161079401528181610bfa01528181610c4c01528181610d740152818161136801526118f901526126c26000f3fe6080604052600436106101e75760003560e01c806399fbab8811610102578063b2016bd411610095578063f1bd27a811610064578063f1bd27a8146105fa578063f5bd2ec01461062e578063f851a44014610644578063fd9c652b1461067857600080fd5b8063b2016bd41461057a578063c379c312146105ae578063ce845d1d146105c4578063efc88fc6146105da57600080fd5b8063a329dc57116100d1578063a329dc57146104f1578063a59aa5a614610507578063acacb46114610544578063b19c0e5d1461056457600080fd5b806399fbab88146104795780639b2c9f4f146104af5780639ea8741c146104c5578063a2177124146104db57600080fd5b8063601e538b1161017a578063697984d111610149578063697984d1146103fb5780636ff1c9bc14610410578063809dab6a146104305780638da5cb5b1461044557600080fd5b8063601e538b1461036857806361d027b31461039c57806363d5ab8d146103d057806365058f4c146103e657600080fd5b806338591db8116101b657806338591db8146102c4578063456068d2146102e45780634bb93ab1146102f95780635c975abb1461034557600080fd5b80630fbac3331461023e5780631031e36e146102695780631e8410da146102805780632bc61ec4146102a457600080fd5b366102395760405162461bcd60e51b815260206004820152601f60248201527f5472616465725661756c743a205573652055534443207472616e73666572730060448201526064015b60405180910390fd5b600080fd5b34801561024a57600080fd5b5061025361068d565b6040516102609190612043565b60405180910390f35b34801561027557600080fd5b5061027e610789565b005b34801561028c57600080fd5b5061029660035481565b604051908152602001610260565b3480156102b057600080fd5b5061027e6102bf366004612087565b61089b565b3480156102d057600080fd5b5061027e6102df366004612087565b610a43565b3480156102f057600080fd5b5061027e610bef565b34801561030557600080fd5b5061032d7f000000000000000000000000000000000000000000000000000000000000000081565b6040516001600160a01b039091168152602001610260565b34801561035157600080fd5b5060005460ff166040519015158152602001610260565b34801561037457600080fd5b506102967f000000000000000000000000000000000000000000000000000000000000000081565b3480156103a857600080fd5b5061032d7f000000000000000000000000000000000000000000000000000000000000000081565b3480156103dc57600080fd5b5061029660065481565b3480156103f257600080fd5b5061027e610c41565b34801561040757600080fd5b50610296610eb5565b34801561041c57600080fd5b5061027e61042b3660046120a0565b611069565b34801561043c57600080fd5b50610296611211565b34801561045157600080fd5b5061032d7f000000000000000000000000000000000000000000000000000000000000000081565b34801561048557600080fd5b50610499610494366004612087565b611239565b6040516102609a999897969594939291906120c9565b3480156104bb57600080fd5b5061029660095481565b3480156104d157600080fd5b5061029660085481565b3480156104e757600080fd5b50610296600b5481565b3480156104fd57600080fd5b5061029660075481565b34801561051357600080fd5b5061051c611319565b604080519586526020860194909452928401919091526060830152608082015260a001610260565b34801561055057600080fd5b5061027e61055f366004612172565b61135d565b34801561057057600080fd5b50610296600c5481565b34801561058657600080fd5b5061032d7f000000000000000000000000000000000000000000000000000000000000000081565b3480156105ba57600080fd5b50610296600a5481565b3480156105d057600080fd5b5061029660025481565b3480156105e657600080fd5b5061027e6105f5366004612087565b6118ee565b34801561060657600080fd5b5061032d7f000000000000000000000000000000000000000000000000000000000000000081565b34801561063a57600080fd5b5061029660045481565b34801561065057600080fd5b5061032d7f000000000000000000000000000000000000000000000000000000000000000081565b34801561068457600080fd5b5061027e611946565b6060600060015b60065481116106d75760008181526005602052604090206009015460ff16156106c557816106c18161222a565b9250505b806106cf8161222a565b915050610694565b508067ffffffffffffffff8111156106f1576106f1612243565b60405190808252806020026020018201604052801561071a578160200160208202803683370190505b509150600060015b60065481116107835760008181526005602052604090206009015460ff1615610771578084838151811061075857610758612259565b60209081029190910101528161076d8161222a565b9250505b8061077b8161222a565b915050610722565b50505090565b336001600160a01b037f00000000000000000000000000000000000000000000000000000000000000001614806107e85750336001600160a01b037f000000000000000000000000000000000000000000000000000000000000000016145b6108345760405162461bcd60e51b815260206004820152601b60248201527f5472616465725661756c743a204e6f7420617574686f72697a656400000000006044820152606401610230565b61083c6119f5565b7f443f17a2432dbcee78daedc732ece7a693501af5b2bef38f406f77aa0763cc2e42604051610891918152604060208201819052600c908201526b4d616e75616c20706175736560a01b606082015260800190565b60405180910390a1565b336001600160a01b037f0000000000000000000000000000000000000000000000000000000000000000161461090c5760405162461bcd60e51b81526020600482015260166024820152752a3930b232b92b30bab63a1d102737ba1030b236b4b760511b6044820152606401610230565b610914611a4a565b6000818152600560205260409020600981015460ff166109765760405162461bcd60e51b815260206004820152601e60248201527f5472616465725661756c743a20506f736974696f6e206e6f74206f70656e00006044820152606401610230565b60405163f66a1b7160e01b81526000906001600160a01b037f0000000000000000000000000000000000000000000000000000000000000000169063f66a1b71906109c89060018601906004016122a9565b6040805180830381865afa1580156109e4573d6000803e3d6000fd5b505050506040513d601f19601f82011682018060405250810190610a089190612334565b50905060008111610a2b5760405162461bcd60e51b815260040161023090612358565b610a358382611a74565b5050610a4060018055565b50565b610a4b611a4a565b6000818152600560205260409020600981015460ff16610aad5760405162461bcd60e51b815260206004820152601e60248201527f5472616465725661756c743a20506f736974696f6e206e6f74206f70656e00006044820152606401610230565b60405163f66a1b7160e01b81526000906001600160a01b037f0000000000000000000000000000000000000000000000000000000000000000169063f66a1b7190610aff9060018601906004016122a9565b6040805180830381865afa158015610b1b573d6000803e3d6000fd5b505050506040513d601f19601f82011682018060405250810190610b3f9190612334565b50905060008111610b625760405162461bcd60e51b815260040161023090612358565b60068201546004830154600091610b7e9184919060ff16611ce3565b905080610bd95760405162461bcd60e51b8152602060048201526024808201527f5472616465725661756c743a2053746f70206c6f7373206e6f74207472696767604482015263195c995960e21b6064820152608401610230565b610be38483611a74565b505050610a4060018055565b336001600160a01b037f00000000000000000000000000000000000000000000000000000000000000001614610c375760405162461bcd60e51b81526004016102309061238f565b610c3f611d12565b565b336001600160a01b037f00000000000000000000000000000000000000000000000000000000000000001614610c895760405162461bcd60e51b81526004016102309061238f565b610c91611a4a565b60035460025411610ce45760405162461bcd60e51b815260206004820181905260248201527f5472616465725661756c743a204e6f2070726f66697420617661696c61626c656044820152606401610230565b6000600354600254610cf691906123bf565b9050600080610d0783600954611d4b565b915091506002546003819055508160046000828254610d2691906123d2565b925050819055508260026000828254610d3f91906123bf565b90915550610d9990506001600160a01b037f0000000000000000000000000000000000000000000000000000000000000000167f000000000000000000000000000000000000000000000000000000000000000084611db5565b610ded6001600160a01b037f0000000000000000000000000000000000000000000000000000000000000000167f000000000000000000000000000000000000000000000000000000000000000083611e19565b60405163191a430f60e21b8152600481018290527f00000000000000000000000000000000000000000000000000000000000000006001600160a01b0316906364690c3c90602401600060405180830381600087803b158015610e4f57600080fd5b505af1158015610e63573d6000803e3d6000fd5b505060408051868152602081018690529081018490527f5fffcc0dcf4f07b6421c6f69f2a8767181fa2a9afc3180e3eaf638e51ec8b25d9250606001905060405180910390a1505050610c3f60018055565b600060015b60065481116110655760008181526005602052604090206009015460ff161561105357600081815260056020526040808220905163f66a1b7160e01b81526001600160a01b037f0000000000000000000000000000000000000000000000000000000000000000169163f66a1b7191610f3991600101906004016122a9565b6040805180830381865afa158015610f55573d6000803e3d6000fd5b505050506040513d601f19601f82011682018060405250810190610f799190612334565b50905080156110515760008281526005602052604081206004015460ff1615610ff157600083815260056020526040812060020154610fb890846123e5565b6000858152600560205260409020600281015460039091015491925090610fdf908361240c565b610fe99190612452565b915050611043565b60008381526005602052604081206002015461100e9084906123e5565b6000858152600560205260409020600281015460039091015491925090611035908361240c565b61103f9190612452565b9150505b61104d8185612480565b9350505b505b8061105d8161222a565b915050610eba565b5090565b336001600160a01b037f000000000000000000000000000000000000000000000000000000000000000016146110da5760405162461bcd60e51b81526020600482015260166024820152752a3930b232b92b30bab63a1d102737ba1030b236b4b760511b6044820152606401610230565b6110e2611eaf565b6110ea611a4a565b6001600160a01b0381166111405760405162461bcd60e51b815260206004820152601e60248201527f5472616465725661756c743a20496e76616c696420726563697069656e7400006044820152606401610230565b6040516370a0823160e01b81523060048201526000907f00000000000000000000000000000000000000000000000000000000000000006001600160a01b0316906370a0823190602401602060405180830381865afa1580156111a7573d6000803e3d6000fd5b505050506040513d601f19601f820116820180604052508101906111cb91906124a8565b90508015611207576112076001600160a01b037f0000000000000000000000000000000000000000000000000000000000000000168383611db5565b50610a4060018055565b6000600c54600254116112245750600090565b600c5460025461123491906123bf565b905090565b6005602052600090815260409020805460018201805491929161125b9061226f565b80601f01602080910402602001604051908101604052809291908181526020018280546112879061226f565b80156112d45780601f106112a9576101008083540402835291602001916112d4565b820191906000526020600020905b8154815290600101906020018083116112b757829003601f168201915b5050505060028301546003840154600485015460058601546006870154600788015460088901546009909901549798959794965060ff9384169592949193909291168a565b600254600c546000808061132b611211565b92506003546002541161133f57600061134f565b60035460025461134f91906123bf565b9150600a5490509091929394565b336001600160a01b037f000000000000000000000000000000000000000000000000000000000000000016146113a55760405162461bcd60e51b81526004016102309061238f565b6113ad611a4a565b6113b5611ed2565b6113bd611ef6565b6113cb600a54600854611f17565b156114275760405162461bcd60e51b815260206004820152602660248201527f5472616465725661756c743a204461696c79206c6f7373206c696d697420657860448201526518d95959195960d21b6064820152608401610230565b61143b84611433611211565b600754611f22565b6114925760405162461bcd60e51b815260206004820152602260248201527f5472616465725661756c743a20496e76616c696420706f736974696f6e2073696044820152617a6560f01b6064820152608401610230565b60405163f66a1b7160e01b81526000906001600160a01b037f0000000000000000000000000000000000000000000000000000000000000000169063f66a1b71906114e3908a908a906004016124ea565b6040805180830381865afa1580156114ff573d6000803e3d6000fd5b505050506040513d601f19601f820116820180604052508101906115239190612334565b509050600081116115465760405162461bcd60e51b815260040161023090612358565b600083116115965760405162461bcd60e51b815260206004820152601f60248201527f5472616465725661756c743a2053746f70206c6f7373207265717569726564006044820152606401610230565b8315611600578083106115fb5760405162461bcd60e51b815260206004820152602760248201527f5472616465725661756c743a20496e76616c69642073746f70206c6f737320666044820152666f72206c6f6e6760c81b6064820152608401610230565b611660565b8083116116605760405162461bcd60e51b815260206004820152602860248201527f5472616465725661756c743a20496e76616c69642073746f70206c6f737320666044820152671bdc881cda1bdc9d60c21b6064820152608401610230565b600a600061166e8288612506565b9050611678611211565b8111156116d15760405162461bcd60e51b815260206004820152602160248201527f5472616465725661756c743a20496e73756666696369656e742062616c616e636044820152606560f81b6064820152608401610230565b604051637f1c3bd160e11b8152600481018290527f00000000000000000000000000000000000000000000000000000000000000006001600160a01b03169063fe3877a290602401600060405180830381600087803b15801561173357600080fd5b505af1158015611747573d6000803e3d6000fd5b50506006805492509050600061175c8361222a565b919050555060405180610140016040528060065481526020018a8a8080601f0160208091040260200160405190810160405280939291908181526020018383808284376000920182905250938552505050602080830187905260408084018c90528a151560608501526080840186905260a084018a905260c084018990524260e085015260016101009094018490526006548352600582529091208351815590830151909182019061180e9082612560565b506040820151600282015560608201516003820155608082015160048201805491151560ff1992831617905560a0830151600583015560c0830151600683015560e083015160078301556101008301516008830155610120909201516009909101805491151591909216179055600c80548291906000906118909084906123d2565b90915550506006546040517f85bf14015475e92189ff68c544d43230034651297467043d4bf4037031f058b9906118d2908c908c908c908c908a908d90612620565b60405180910390a25050506118e660018055565b505050505050565b336001600160a01b037f000000000000000000000000000000000000000000000000000000000000000016146119365760405162461bcd60e51b81526004016102309061238f565b61193e611a4a565b610914611ed2565b6040516370a0823160e01b81523060048201526000907f00000000000000000000000000000000000000000000000000000000000000006001600160a01b0316906370a0823190602401602060405180830381865afa1580156119ad573d6000803e3d6000fd5b505050506040513d601f19601f820116820180604052508101906119d191906124a8565b9050600254811115610a40576002819055600354811115610a405760025460035550565b6119fd611ed2565b6000805460ff191660011790557f62e78cea01bee320cd4e420270b5ea74000d11b0c9f74754ebdbfc544b05a258611a323390565b6040516001600160a01b039091168152602001610891565b600260015403611a6d57604051633ee5aeb560e01b815260040160405180910390fd5b6002600155565b6000828152600560205260408120600481015490919060ff1615611acd576000826002015484611aa491906123e5565b90508260020154836003015482611abb919061240c565b611ac59190612452565b915050611b04565b6000838360020154611adf91906123e5565b90508260020154836003015482611af6919061240c565b611b009190612452565b9150505b60058201546040516339007b7760e01b815260048101919091527f00000000000000000000000000000000000000000000000000000000000000006001600160a01b0316906339007b7790602401600060405180830381600087803b158015611b6c57600080fd5b505af1158015611b80573d6000803e3d6000fd5b505050508160050154600c6000828254611b9a91906123bf565b90915550506000811315611bd7578060026000828254611bba91906123d2565b90915550506003546002541115611bd2576002546003555b611c8a565b6000811215611c8a576000611beb82612659565b905080600a6000828254611bff91906123d2565b92505081905550611c14600a54600854611f17565b15611c5d57611c216119f5565b600a54604080519182524260208301527f69e1ae2a5d411f07a576aa6ed11e74da0a4d61583898a118179051a81587666a910160405180910390a15b6002548110611c70576000600255611c88565b8060026000828254611c8291906123bf565b90915550505b505b60098201805460ff1916905560025460408051858152602081018490529081019190915284907fc19facd714548f08e33c55a1df06fc97519228fd905deed0bfe1193936cd5c199060600160405180910390a250505050565b600082600003611cf557506000611d0b565b8115611d05575081831115611d0b565b50818310155b9392505050565b611d1a611eaf565b6000805460ff191690557f5db9ee0a495bf2e6ff9c91a7834c1ba4fdd244a5e8aa4e537bd38aeae4b073aa33611a32565b600080612710831115611d965760405162461bcd60e51b81526020600482015260136024820152724d6174683a20496e76616c696420736861726560681b6044820152606401610230565b611da08484611f6a565b9150611dac82856123bf565b90509250929050565b6040516001600160a01b03838116602483015260448201839052611e1491859182169063a9059cbb906064015b604051602081830303815290604052915060e01b6020820180516001600160e01b038381831617835250505050611f83565b505050565b604080516001600160a01b038416602482015260448082018490528251808303909101815260649091019091526020810180516001600160e01b031663095ea7b360e01b179052611e6a8482611ff4565b611ea9576040516001600160a01b03848116602483015260006044830152611e9f91869182169063095ea7b390606401611de2565b611ea98482611f83565b50505050565b60005460ff16610c3f57604051638dfc202b60e01b815260040160405180910390fd5b60005460ff1615610c3f5760405163d93c066560e01b815260040160405180910390fd5b600b54611f0690620151806123d2565b4210610c3f576000600a5542600b55565b808210155b92915050565b600083600003611f3457506000611d0b565b82841115611f4457506000611d0b565b600082118015611f5357508184115b15611f6057506000611d0b565b5060019392505050565b6000612710611f798385612675565b611d0b9190612506565b600080602060008451602086016000885af180611fa6576040513d6000823e3d81fd5b50506000513d91508115611fbe578060011415611fcb565b6001600160a01b0384163b155b15611ea957604051635274afe760e01b81526001600160a01b0385166004820152602401610230565b6000806000806020600086516020880160008a5af192503d915060005190508280156120395750811561202a5780600114612039565b6000866001600160a01b03163b115b9695505050505050565b6020808252825182820181905260009190848201906040850190845b8181101561207b5783518352928401929184019160010161205f565b50909695505050505050565b60006020828403121561209957600080fd5b5035919050565b6000602082840312156120b257600080fd5b81356001600160a01b0381168114611d0b57600080fd5b60006101408c8352602081818501528c518083860152600092505b80831015612103578d83018201518584016101600152918101916120e4565b6101609250600083828701015282601f19601f830116860101935050505089604083015288606083015261213b608083018915159052565b8660a08301528560c08301528460e08301528361010083015261216361012083018415159052565b9b9a5050505050505050505050565b60008060008060008060a0878903121561218b57600080fd5b863567ffffffffffffffff808211156121a357600080fd5b818901915089601f8301126121b757600080fd5b8135818111156121c657600080fd5b8a60208285010111156121d857600080fd5b602092830198509650508701359350604087013580151581146121fa57600080fd5b959894975092956060810135946080909101359350915050565b634e487b7160e01b600052601160045260246000fd5b60006001820161223c5761223c612214565b5060010190565b634e487b7160e01b600052604160045260246000fd5b634e487b7160e01b600052603260045260246000fd5b600181811c9082168061228357607f821691505b6020821081036122a357634e487b7160e01b600052602260045260246000fd5b50919050565b60006020808352600084546122bd8161226f565b808487015260406001808416600081146122de57600181146122f857612326565b60ff1985168984015283151560051b890183019550612326565b896000528660002060005b8581101561231e5781548b8201860152908301908801612303565b8a0184019650505b509398975050505050505050565b6000806040838503121561234757600080fd5b505080516020909101519092909150565b6020808252601a908201527f5472616465725661756c743a20496e76616c6964207072696365000000000000604082015260600190565b6020808252601690820152752a3930b232b92b30bab63a1d102737ba1037bbb732b960511b604082015260600190565b81810381811115611f1c57611f1c612214565b80820180821115611f1c57611f1c612214565b818103600083128015838313168383128216171561240557612405612214565b5092915050565b80820260008212600160ff1b8414161561242857612428612214565b8181058314821517611f1c57611f1c612214565b634e487b7160e01b600052601260045260246000fd5b6000826124615761246161243c565b600160ff1b82146000198414161561247b5761247b612214565b500590565b80820182811260008312801582168215821617156124a0576124a0612214565b505092915050565b6000602082840312156124ba57600080fd5b5051919050565b81835281816020850137506000828201602090810191909152601f909101601f19169091010190565b6020815260006124fe6020830184866124c1565b949350505050565b6000826125155761251561243c565b500490565b601f821115611e1457600081815260208120601f850160051c810160208610156125415750805b601f850160051c820191505b818110156118e65782815560010161254d565b815167ffffffffffffffff81111561257a5761257a612243565b61258e81612588845461226f565b8461251a565b602080601f8311600181146125c357600084156125ab5750858301515b600019600386901b1c1916600185901b1785556118e6565b600085815260208120601f198616915b828110156125f2578886015182559484019460019091019084016125d3565b50858210156126105787850151600019600388901b60f8161c191681555b5050505050600190811b01905550565b60a08152600061263460a08301888a6124c1565b6020830196909652509215156040840152606083019190915260809091015292915050565b6000600160ff1b820161266e5761266e612214565b5060000390565b8082028115828204841417611f1c57611f1c61221456fea2646970667358221220b4a2ecb110eded13e9f733d16ba310650a31a48ddd92694ead734b08f37d4dad64736f6c63430008140033a26469706673582212208c0ec354757ab0a3768e498d301f0604561df5b0f8365e54870eb92c40be3c4664736f6c63430008140033",
  "linkReferences": {},
  "deployedLinkReferences": {}
}