{
  "_format": "hh-sol-artifact-1",
  "contractName": "TraderVault",
  "sourceName": "contracts/core/TraderVault.sol",
  "abi": [
    {
      "inputs": [
        {
          "internalType": "address",
          "name": "_owner",
          "type": "address"
        },
        {
          "internalType": "address",
          "name": "_admin",
          "type": "address"
        },
        {
          "internalType": "address",
          "name": "_treasury",
          "type": "address"
        },
        {
          "internalType": "address",
          "name": "_tradingVault",
          "type": "address"
        },
        {
          "internalType": "address",
          "name": "_oracleRegistry",
          "type": "address"
        },
        {
          "internalType": "address",
          "name": "_collateralToken",
          "type": "address"
        },
        {
          "internalType": "uint256",
          "name": "_initialCapital",
          "type": "uint256"
        },
        {
          "internalType": "uint256",
          "name": "_maxPositionSize",
          "type": "uint256"
        },
        {
          "internalType": "uint256",
          "name": "_maxDailyLoss",
          "type": "uint256"
        },
        {
          "internalType": "uint256",
          "name": "_profitSplitBps",
          "type": "uint256"
        }
      ],
      "stateMutability": "nonpayable",
      "type": "constructor"
    },
    {
      "inputs": [],
      "name": "EnforcedPause",
      "type": "error"
    },
    {
      "inputs": [],
      "name": "ExpectedPause",
      "type": "error"
    },
    {
      "inputs": [],
      "name": "ReentrancyGuardReentrantCall",
      "type": "error"
    },
    {
      "inputs": [
        {
          "internalType": "address",
          "name": "token",
          "type": "address"
        }
      ],
      "name": "SafeERC20FailedOperation",
      "type": "error"
    },
    {
      "anonymous": false,
      "inputs": [
        {
          "indexed": false,
          "internalType": "uint256",
          "name": "loss",
          "type": "uint256"
        },
        {
          "indexed": false,
          "internalType": "uint256",
          "name": "timestamp",
          "type": "uint256"
        }
      ],
      "name": "DailyLossLimitHit",
      "type": "event"
    },
    {
      "anonymous": false,
      "inputs": [
        {
          "indexed": true,
          "internalType": "uint256",
          "name": "positionId",
          "type": "uint256"
        },
        {
          "indexed": false,
          "internalType": "string",
          "name": "symbol",
          "type": "string"
        },
        {
          "indexed": false,
          "internalType": "uint256",
          "name": "size",
          "type": "uint256"
        },
        {
          "indexed": false,
          "internalType": "bool",
          "name": "isLong",
          "type": "bool"
        },
        {
          "indexed": false,
          "internalType": "uint256",
          "name": "entryPrice",
          "type": "uint256"
        },
        {
          "indexed": false,
          "internalType": "uint256",
          "name": "stopLoss",
          "type": "uint256"
        }
      ],
      "name": "LiveTradeExecuted",
      "type": "event"
    },
    {
      "anonymous": false,
      "inputs": [
        {
          "indexed": false,
          "internalType": "address",
          "name": "account",
          "type": "address"
        }
      ],
      "name": "Paused",
      "type": "event"
    },
    {
      "anonymous": false,
      "inputs": [
        {
          "indexed": false,
          "internalType": "uint256",
          "name": "profit",
          "type": "uint256"
        },
        {
          "indexed": false,
          "internalType": "uint256",
          "name": "traderShare",
          "type": "uint256"
        },
        {
          "indexed": false,
          "internalType": "uint256",
          "name": "firmShare",
          "type": "uint256"
        }
      ],
      "name": "PayoutExecuted",
      "type": "event"
    },
    {
      "anonymous": false,
      "inputs": [
        {
          "indexed": true,
          "internalType": "uint256",
          "name": "positionId",
          "type": "uint256"
        },
        {
          "indexed": false,
          "internalType": "uint256",
          "name": "exitPrice",
          "type": "uint256"
        },
        {
          "indexed": false,
          "internalType": "int256",
          "name": "pnl",
          "type": "int256"
        },
        {
          "indexed": false,
          "internalType": "uint256",
          "name": "newBalance",
          "type": "uint256"
        }
      ],
      "name": "TradeClosed",
      "type": "event"
    },
    {
      "anonymous": false,
      "inputs": [
        {
          "indexed": false,
          "internalType": "address",
          "name": "account",
          "type": "address"
        }
      ],
      "name": "Unpaused",
      "type": "event"
    },
    {
      "anonymous": false,
      "inputs": [
        {
          "indexed": false,
          "internalType": "uint256",
          "name": "timestamp",
          "type": "uint256"
        },
        {
          "indexed": false,
          "internalType": "string",
          "name": "reason",
          "type": "string"
        }
      ],
      "name": "VaultPaused",
      "type": "event"
    },
    {
      "inputs": [],
      "name": "admin",
      "outputs": [
        {
          "internalType": "address",
          "name": "",
          "type": "address"
        }
      ],
      "stateMutability": "view",
      "type": "function"
    },
    {
      "inputs": [],
      "name": "calculateUnrealizedPnL",
      "outputs": [
        {
          "internalType": "int256",
          "name": "totalPnL",
          "type": "int256"
        }
      ],
      "stateMutability": "view",
      "type": "function"
    },
    {
      "inputs": [
        {
          "internalType": "uint256",
          "name": "positionId",
          "type": "uint256"
        }
      ],
      "name": "checkStopLoss",
      "outputs": [],
      "stateMutability": "nonpayable",
      "type": "function"
    },
    {
      "inputs": [
        {
          "internalType": "uint256",
          "name": "positionId",
          "type": "uint256"
        }
      ],
      "name": "closeLiveTrade",
      "outputs": [],
      "stateMutability": "nonpayable",
      "type": "function"
    },
    {
      "inputs": [],
      "name": "collateralToken",
      "outputs": [
        {
          "internalType": "contract IERC20",
          "name": "",
          "type": "address"
        }
      ],
      "stateMutability": "view",
      "type": "function"
    },
    {
      "inputs": [],
      "name": "currentBalance",
      "outputs": [
        {
          "internalType": "uint256",
          "name": "",
          "type": "uint256"
        }
      ],
      "stateMutability": "view",
      "type": "function"
    },
    {
      "inputs": [],
      "name": "currentDailyLoss",
      "outputs": [
        {
          "internalType": "uint256",
          "name": "",
          "type": "uint256"
        }
      ],
      "stateMutability": "view",
      "type": "function"
    },
    {
      "inputs": [
        {
          "internalType": "address",
          "name": "recipient",
          "type": "address"
        }
      ],
      "name": "emergencyWithdraw",
      "outputs": [],
      "stateMutability": "nonpayable",
      "type": "function"
    },
    {
      "inputs": [
        {
          "internalType": "string",
          "name": "symbol",
          "type": "string"
        },
        {
          "internalType": "uint256",
          "name": "size",
          "type": "uint256"
        },
        {
          "internalType": "bool",
          "name": "isLong",
          "type": "bool"
        },
        {
          "internalType": "uint256",
          "name": "stopLoss",
          "type": "uint256"
        },
        {
          "internalType": "uint256",
          "name": "takeProfit",
          "type": "uint256"
        }
      ],
      "name": "executeLiveTrade",
      "outputs": [],
      "stateMutability": "nonpayable",
      "type": "function"
    },
    {
      "inputs": [
        {
          "internalType": "uint256",
          "name": "positionId",
          "type": "uint256"
        }
      ],
      "name": "forceClosePosition",
      "outputs": [],
      "stateMutability": "nonpayable",
      "type": "function"
    },
    {
      "inputs": [],
      "name": "getAvailableBalance",
      "outputs": [
        {
          "internalType": "uint256",
          "name": "",
          "type": "uint256"
        }
      ],
      "stateMutability": "view",
      "type": "function"
    },
    {
      "inputs": [],
      "name": "getOpenPositions",
      "outputs": [
        {
          "internalType": "uint256[]",
          "name": "openPositions",
          "type": "uint256[]"
        }
      ],
      "stateMutability": "view",
      "type": "function"
    },
    {
      "inputs": [],
      "name": "getVaultStats",
      "outputs": [
        {
          "internalType": "uint256",
          "name": "balance",
          "type": "uint256"
        },
        {
          "internalType": "uint256",
          "name": "locked",
          "type": "uint256"
        },
        {
          "internalType": "uint256",
          "name": "available",
          "type": "uint256"
        },
        {
          "internalType": "uint256",
          "name": "profit",
          "type": "uint256"
        },
        {
          "internalType": "uint256",
          "name": "dailyLoss",
          "type": "uint256"
        }
      ],
      "stateMutability": "view",
      "type": "function"
    },
    {
      "inputs": [],
      "name": "highWaterMark",
      "outputs": [
        {
          "internalType": "uint256",
          "name": "",
          "type": "uint256"
        }
      ],
      "stateMutability": "view",
      "type": "function"
    },
    {
      "inputs": [],
      "name": "initialCapital",
      "outputs": [
        {
          "internalType": "uint256",
          "name": "",
          "type": "uint256"
        }
      ],
      "stateMutability": "view",
      "type": "function"
    },
    {
      "inputs": [],
      "name": "lastResetTime",
      "outputs": [
        {
          "internalType": "uint256",
          "name": "",
          "type": "uint256"
        }
      ],
      "stateMutability": "view",
      "type": "function"
    },
    {
      "inputs": [],
      "name": "maxDailyLoss",
      "outputs": [
        {
          "internalType": "uint256",
          "name": "",
          "type": "uint256"
        }
      ],
      "stateMutability": "view",
      "type": "function"
    },
    {
      "inputs": [],
      "name": "maxPositionSize",
      "outputs": [
        {
          "internalType": "uint256",
          "name": "",
          "type": "uint256"
        }
      ],
      "stateMutability": "view",
      "type": "function"
    },
    {
      "inputs": [],
      "name": "oracleRegistry",
      "outputs": [
        {
          "internalType": "contract OracleRegistry",
          "name": "",
          "type": "address"
        }
      ],
      "stateMutability": "view",
      "type": "function"
    },
    {
      "inputs": [],
      "name": "owner",
      "outputs": [
        {
          "internalType": "address",
          "name": "",
          "type": "address"
        }
      ],
      "stateMutability": "view",
      "type": "function"
    },
    {
      "inputs": [],
      "name": "pauseTrading",
      "outputs": [],
      "stateMutability": "nonpayable",
      "type": "function"
    },
    {
      "inputs": [],
      "name": "paused",
      "outputs": [
        {
          "internalType": "bool",
          "name": "",
          "type": "bool"
        }
      ],
      "stateMutability": "view",
      "type": "function"
    },
    {
      "inputs": [],
      "name": "positionCounter",
      "outputs": [
        {
          "internalType": "uint256",
          "name": "",
          "type": "uint256"
        }
      ],
      "stateMutability": "view",
      "type": "function"
    },
    {
      "inputs": [
        {
          "internalType": "uint256",
          "name": "",
          "type": "uint256"
        }
      ],
      "name": "positions",
      "outputs": [
        {
          "internalType": "uint256",
          "name": "positionId",
          "type": "uint256"
        },
        {
          "internalType": "string",
          "name": "symbol",
          "type": "string"
        },
        {
          "internalType": "uint256",
          "name": "entryPrice",
          "type": "uint256"
        },
        {
          "internalType": "uint256",
          "name": "size",
          "type": "uint256"
        },
        {
          "internalType": "bool",
          "name": "isLong",
          "type": "bool"
        },
        {
          "internalType": "uint256",
          "name": "collateralLocked",
          "type": "uint256"
        },
        {
          "internalType": "uint256",
          "name": "stopLoss",
          "type": "uint256"
        },
        {
          "internalType": "uint256",
          "name": "takeProfit",
          "type": "uint256"
        },
        {
          "internalType": "uint256",
          "name": "openTime",
          "type": "uint256"
        },
        {
          "internalType": "bool",
          "name": "isOpen",
          "type": "bool"
        }
      ],
      "stateMutability": "view",
      "type": "function"
    },
    {
      "inputs": [],
      "name": "profitSplitBps",
      "outputs": [
        {
          "internalType": "uint256",
          "name": "",
          "type": "uint256"
        }
      ],
      "stateMutability": "view",
      "type": "function"
    },
    {
      "inputs": [],
      "name": "requestPayout",
      "outputs": [],
      "stateMutability": "nonpayable",
      "type": "function"
    },
    {
      "inputs": [],
      "name": "syncBalance",
      "outputs": [],
      "stateMutability": "nonpayable",
      "type": "function"
    },
    {
      "inputs": [],
      "name": "totalLockedCollateral",
      "outputs": [
        {
          "internalType": "uint256",
          "name": "",
          "type": "uint256"
        }
      ],
      "stateMutability": "view",
      "type": "function"
    },
    {
      "inputs": [],
      "name": "totalProfitWithdrawn",
      "outputs": [
        {
          "internalType": "uint256",
          "name": "",
          "type": "uint256"
        }
      ],
      "stateMutability": "view",
      "type": "function"
    },
    {
      "inputs": [],
      "name": "tradingVault",
      "outputs": [
        {
          "internalType": "contract TradingVault",
          "name": "",
          "type": "address"
        }
      ],
      "stateMutability": "view",
      "type": "function"
    },
    {
      "inputs": [],
      "name": "treasury",
      "outputs": [
        {
          "internalType": "contract TreasuryManager",
          "name": "",
          "type": "address"
        }
      ],
      "stateMutability": "view",
      "type": "function"
    },
    {
      "inputs": [],
      "name": "unpauseTrading",
      "outputs": [],
      "stateMutability": "nonpayable",
      "type": "function"
    },
    {
      "stateMutability": "payable",
      "type": "receive"
    }
  ],
  "bytecode": "0x6101606040523480156200001257600080fd5b5060405162002a1638038062002a168339810160408190526200003591620001b4565b600180556001600160a01b038a16620000955760405162461bcd60e51b815260206004820152601a60248201527f5472616465725661756c743a20496e76616c6964206f776e657200000000000060448201526064015b60405180910390fd5b6001600160a01b038916620000ed5760405162461bcd60e51b815260206004820152601a60248201527f5472616465725661756c743a20496e76616c69642061646d696e00000000000060448201526064016200008c565b600084116200013f5760405162461bcd60e51b815260206004820152601c60248201527f5472616465725661756c743a20496e76616c6964206361706974616c0000000060448201526064016200008c565b6001600160a01b03998a1660805297891660a05295881660c05293871660e0529186166101005290941661012052610140849052600284905560039390935560079290925560089190915560095542600b556200025f565b80516001600160a01b0381168114620001af57600080fd5b919050565b6000806000806000806000806000806101408b8d031215620001d557600080fd5b620001e08b62000197565b9950620001f060208c0162000197565b98506200020060408c0162000197565b97506200021060608c0162000197565b96506200022060808c0162000197565b95506200023060a08c0162000197565b945060c08b0151935060e08b015192506101008b015191506101208b015190509295989b9194979a5092959850565b60805160a05160c05160e0516101005161012051610140516126c262000354600039600061037a01526000818161058c01528181610d5201528181610da601528181611158015281816111e0015261195e01526000818161030b0152818161099001528181610ac701528181610f0201526114ac01526000818161060c015281816116e70152611b200152600081816103ae01528181610dc80152610e03015260008181610656015281816107c6015281816108a601526110740152600081816104570152818161079401528181610bfa01528181610c4c01528181610d740152818161136801526118f901526126c26000f3fe6080604052600436106101e75760003560e01c806399fbab8811610102578063b2016bd411610095578063f1bd27a811610064578063f1bd27a8146105fa578063f5bd2ec01461062e578063f851a44014610644578063fd9c652b1461067857600080fd5b8063b2016bd41461057a578063c379c312146105ae578063ce845d1d146105c4578063efc88fc6146105da57600080fd5b8063a329dc57116100d1578063a329dc57146104f1578063a59aa5a614610507578063acacb46114610544578063b19c0e5d1461056457600080fd5b806399fbab88146104795780639b2c9f4f146104af5780639ea8741c146104c5578063a2177124146104db57600080fd5b8063601e538b1161017a578063697984d111610149578063697984d1146103fb5780636ff1c9bc14610410578063809dab6a146104305780638da5cb5b1461044557600080fd5b8063601e538b1461036857806361d027b31461039c57806363d5ab8d146103d057806365058f4c146103e657600080fd5b806338591db8116101b657806338591db8146102c4578063456068d2146102e45780634bb93ab1146102f95780635c975abb1461034557600080fd5b80630fbac3331461023e5780631031e36e146102695780631e8410da146102805780632bc61ec4146102a457600080fd5b366102395760405162461bcd60e51b815260206004820152601f60248201527f5472616465725661756c743a205573652055534443207472616e73666572730060448201526064015b60405180910390fd5b600080fd5b34801561024a57600080fd5b5061025361068d565b6040516102609190612043565b60405180910390f35b34801561027557600080fd5b5061027e610789565b005b34801561028c57600080fd5b5061029660035481565b604051908152602001610260565b3480156102b057600080fd5b5061027e6102bf366004612087565b61089b565b3480156102d057600080fd5b5061027e6102df366004612087565b610a43565b3480156102f057600080fd5b5061027e610bef565b34801561030557600080fd5b5061032d7f000000000000000000000000000000000000000000000000000000000000000081565b6040516001600160a01b039091168152602001610260565b34801561035157600080fd5b5060005460ff166040519015158152602001610260565b34801561037457600080fd5b506102967f000000000000000000000000000000000000000000000000000000000000000081565b3480156103a857600080fd5b5061032d7f000000000000000000000000000000000000000000000000000000000000000081565b3480156103dc57600080fd5b5061029660065481565b3480156103f257600080fd5b5061027e610c41565b34801561040757600080fd5b50610296610eb5565b34801561041c57600080fd5b5061027e61042b3660046120a0565b611069565b34801561043c57600080fd5b50610296611211565b34801561045157600080fd5b5061032d7f000000000000000000000000000000000000000000000000000000000000000081565b34801561048557600080fd5b50610499610494366004612087565b611239565b6040516102609a999897969594939291906120c9565b3480156104bb57600080fd5b5061029660095481565b3480156104d157600080fd5b5061029660085481565b3480156104e757600080fd5b50610296600b5481565b3480156104fd57600080fd5b5061029660075481565b34801561051357600080fd5b5061051c611319565b604080519586526020860194909452928401919091526060830152608082015260a001610260565b34801561055057600080fd5b5061027e61055f366004612172565b61135d565b34801561057057600080fd5b50610296600c5481565b34801561058657600080fd5b5061032d7f000000000000000000000000000000000000000000000000000000000000000081565b3480156105ba57600080fd5b50610296600a5481565b3480156105d057600080fd5b5061029660025481565b3480156105e657600080fd5b5061027e6105f5366004612087565b6118ee565b34801561060657600080fd5b5061032d7f000000000000000000000000000000000000000000000000000000000000000081565b34801561063a57600080fd5b5061029660045481565b34801561065057600080fd5b5061032d7f000000000000000000000000000000000000000000000000000000000000000081565b34801561068457600080fd5b5061027e611946565b6060600060015b60065481116106d75760008181526005602052604090206009015460ff16156106c557816106c18161222a565b9250505b806106cf8161222a565b915050610694565b508067ffffffffffffffff8111156106f1576106f1612243565b60405190808252806020026020018201604052801561071a578160200160208202803683370190505b509150600060015b60065481116107835760008181526005602052604090206009015460ff1615610771578084838151811061075857610758612259565b60209081029190910101528161076d8161222a565b9250505b8061077b8161222a565b915050610722565b50505090565b336001600160a01b037f00000000000000000000000000000000000000000000000000000000000000001614806107e85750336001600160a01b037f000000000000000000000000000000000000000000000000000000000000000016145b6108345760405162461bcd60e51b815260206004820152601b60248201527f5472616465725661756c743a204e6f7420617574686f72697a656400000000006044820152606401610230565b61083c6119f5565b7f443f17a2432dbcee78daedc732ece7a693501af5b2bef38f406f77aa0763cc2e42604051610891918152604060208201819052600c908201526b4d616e75616c20706175736560a01b606082015260800190565b60405180910390a1565b336001600160a01b037f0000000000000000000000000000000000000000000000000000000000000000161461090c5760405162461bcd60e51b81526020600482015260166024820152752a3930b232b92b30bab63a1d102737ba1030b236b4b760511b6044820152606401610230565b610914611a4a565b6000818152600560205260409020600981015460ff166109765760405162461bcd60e51b815260206004820152601e60248201527f5472616465725661756c743a20506f736974696f6e206e6f74206f70656e00006044820152606401610230565b60405163f66a1b7160e01b81526000906001600160a01b037f0000000000000000000000000000000000000000000000000000000000000000169063f66a1b71906109c89060018601906004016122a9565b6040805180830381865afa1580156109e4573d6000803e3d6000fd5b505050506040513d601f19601f82011682018060405250810190610a089190612334565b50905060008111610a2b5760405162461bcd60e51b815260040161023090612358565b610a358382611a74565b5050610a4060018055565b50565b610a4b611a4a565b6000818152600560205260409020600981015460ff16610aad5760405162461bcd60e51b815260206004820152601e60248201527f5472616465725661756c743a20506f736974696f6e206e6f74206f70656e00006044820152606401610230565b60405163f66a1b7160e01b81526000906001600160a01b037f0000000000000000000000000000000000000000000000000000000000000000169063f66a1b7190610aff9060018601906004016122a9565b6040805180830381865afa158015610b1b573d6000803e3d6000fd5b505050506040513d601f19601f82011682018060405250810190610b3f9190612334565b50905060008111610b625760405162461bcd60e51b815260040161023090612358565b60068201546004830154600091610b7e9184919060ff16611ce3565b905080610bd95760405162461bcd60e51b8152602060048201526024808201527f5472616465725661756c743a2053746f70206c6f7373206e6f74207472696767604482015263195c995960e21b6064820152608401610230565b610be38483611a74565b505050610a4060018055565b336001600160a01b037f00000000000000000000000000000000000000000000000000000000000000001614610c375760405162461bcd60e51b81526004016102309061238f565b610c3f611d12565b565b336001600160a01b037f00000000000000000000000000000000000000000000000000000000000000001614610c895760405162461bcd60e51b81526004016102309061238f565b610c91611a4a565b60035460025411610ce45760405162461bcd60e51b815260206004820181905260248201527f5472616465725661756c743a204e6f2070726f66697420617661696c61626c656044820152606401610230565b6000600354600254610cf691906123bf565b9050600080610d0783600954611d4b565b915091506002546003819055508160046000828254610d2691906123d2565b925050819055508260026000828254610d3f91906123bf565b90915550610d9990506001600160a01b037f0000000000000000000000000000000000000000000000000000000000000000167f000000000000000000000000000000000000000000000000000000000000000084611db5565b610ded6001600160a01b037f0000000000000000000000000000000000000000000000000000000000000000167f000000000000000000000000000000000000000000000000000000000000000083611e19565b60405163191a430f60e21b8152600481018290527f00000000000000000000000000000000000000000000000000000000000000006001600160a01b0316906364690c3c90602401600060405180830381600087803b158015610e4f57600080fd5b505af1158015610e63573d6000803e3d6000fd5b505060408051868152602081018690529081018490527f5fffcc0dcf4f07b6421c6f69f2a8767181fa2a9afc3180e3eaf638e51ec8b25d9250606001905060405180910390a1505050610c3f60018055565b600060015b60065481116110655760008181526005602052604090206009015460ff161561105357600081815260056020526040808220905163f66a1b7160e01b81526001600160a01b037f0000000000000000000000000000000000000000000000000000000000000000169163f66a1b7191610f3991600101906004016122a9565b6040805180830381865afa158015610f55573d6000803e3d6000fd5b505050506040513d601f19601f82011682018060405250810190610f799190612334565b50905080156110515760008281526005602052604081206004015460ff1615610ff157600083815260056020526040812060020154610fb890846123e5565b6000858152600560205260409020600281015460039091015491925090610fdf908361240c565b610fe99190612452565b915050611043565b60008381526005602052604081206002015461100e9084906123e5565b6000858152600560205260409020600281015460039091015491925090611035908361240c565b61103f9190612452565b9150505b61104d8185612480565b9350505b505b8061105d8161222a565b915050610eba565b5090565b336001600160a01b037f000000000000000000000000000000000000000000000000000000000000000016146110da5760405162461bcd60e51b81526020600482015260166024820152752a3930b232b92b30bab63a1d102737ba1030b236b4b760511b6044820152606401610230565b6110e2611eaf565b6110ea611a4a565b6001600160a01b0381166111405760405162461bcd60e51b815260206004820152601e60248201527f5472616465725661756c743a20496e76616c696420726563697069656e7400006044820152606401610230565b6040516370a0823160e01b81523060048201526000907f00000000000000000000000000000000000000000000000000000000000000006001600160a01b0316906370a0823190602401602060405180830381865afa1580156111a7573d6000803e3d6000fd5b505050506040513d601f19601f820116820180604052508101906111cb91906124a8565b90508015611207576112076001600160a01b037f0000000000000000000000000000000000000000000000000000000000000000168383611db5565b50610a4060018055565b6000600c54600254116112245750600090565b600c5460025461123491906123bf565b905090565b6005602052600090815260409020805460018201805491929161125b9061226f565b80601f01602080910402602001604051908101604052809291908181526020018280546112879061226f565b80156112d45780601f106112a9576101008083540402835291602001916112d4565b820191906000526020600020905b8154815290600101906020018083116112b757829003601f168201915b5050505060028301546003840154600485015460058601546006870154600788015460088901546009909901549798959794965060ff9384169592949193909291168a565b600254600c546000808061132b611211565b92506003546002541161133f57600061134f565b60035460025461134f91906123bf565b9150600a5490509091929394565b336001600160a01b037f000000000000000000000000000000000000000000000000000000000000000016146113a55760405162461bcd60e51b81526004016102309061238f565b6113ad611a4a565b6113b5611ed2565b6113bd611ef6565b6113cb600a54600854611f17565b156114275760405162461bcd60e51b815260206004820152602660248201527f5472616465725661756c743a204461696c79206c6f7373206c696d697420657860448201526518d95959195960d21b6064820152608401610230565b61143b84611433611211565b600754611f22565b6114925760405162461bcd60e51b815260206004820152602260248201527f5472616465725661756c743a20496e76616c696420706f736974696f6e2073696044820152617a6560f01b6064820152608401610230565b60405163f66a1b7160e01b81526000906001600160a01b037f0000000000000000000000000000000000000000000000000000000000000000169063f66a1b71906114e3908a908a906004016124ea565b6040805180830381865afa1580156114ff573d6000803e3d6000fd5b505050506040513d601f19601f820116820180604052508101906115239190612334565b509050600081116115465760405162461bcd60e51b815260040161023090612358565b600083116115965760405162461bcd60e51b815260206004820152601f60248201527f5472616465725661756c743a2053746f70206c6f7373207265717569726564006044820152606401610230565b8315611600578083106115fb5760405162461bcd60e51b815260206004820152602760248201527f5472616465725661756c743a20496e76616c69642073746f70206c6f737320666044820152666f72206c6f6e6760c81b6064820152608401610230565b611660565b8083116116605760405162461bcd60e51b815260206004820152602860248201527f5472616465725661756c743a20496e76616c69642073746f70206c6f737320666044820152671bdc881cda1bdc9d60c21b6064820152608401610230565b600a600061166e8288612506565b9050611678611211565b8111156116d15760405162461bcd60e51b815260206004820152602160248201527f5472616465725661756c743a20496e73756666696369656e742062616c616e636044820152606560f81b6064820152608401610230565b604051637f1c3bd160e11b8152600481018290527f00000000000000000000000000000000000000000000000000000000000000006001600160a01b03169063fe3877a290602401600060405180830381600087803b15801561173357600080fd5b505af1158015611747573d6000803e3d6000fd5b50506006805492509050600061175c8361222a565b919050555060405180610140016040528060065481526020018a8a8080601f0160208091040260200160405190810160405280939291908181526020018383808284376000920182905250938552505050602080830187905260408084018c90528a151560608501526080840186905260a084018a905260c084018990524260e085015260016101009094018490526006548352600582529091208351815590830151909182019061180e9082612560565b506040820151600282015560608201516003820155608082015160048201805491151560ff1992831617905560a0830151600583015560c0830151600683015560e083015160078301556101008301516008830155610120909201516009909101805491151591909216179055600c80548291906000906118909084906123d2565b90915550506006546040517f85bf14015475e92189ff68c544d43230034651297467043d4bf4037031f058b9906118d2908c908c908c908c908a908d90612620565b60405180910390a25050506118e660018055565b505050505050565b336001600160a01b037f000000000000000000000000000000000000000000000000000000000000000016146119365760405162461bcd60e51b81526004016102309061238f565b61193e611a4a565b610914611ed2565b6040516370a0823160e01b81523060048201526000907f00000000000000000000000000000000000000000000000000000000000000006001600160a01b0316906370a0823190602401602060405180830381865afa1580156119ad573d6000803e3d6000fd5b505050506040513d601f19601f820116820180604052508101906119d191906124a8565b9050600254811115610a40576002819055600354811115610a405760025460035550565b6119fd611ed2565b6000805460ff191660011790557f62e78cea01bee320cd4e420270b5ea74000d11b0c9f74754ebdbfc544b05a258611a323390565b6040516001600160a01b039091168152602001610891565b600260015403611a6d57604051633ee5aeb560e01b815260040160405180910390fd5b6002600155565b6000828152600560205260408120600481015490919060ff1615611acd576000826002015484611aa491906123e5565b90508260020154836003015482611abb919061240c565b611ac59190612452565b915050611b04565b6000838360020154611adf91906123e5565b90508260020154836003015482611af6919061240c565b611b009190612452565b9150505b60058201546040516339007b7760e01b815260048101919091527f00000000000000000000000000000000000000000000000000000000000000006001600160a01b0316906339007b7790602401600060405180830381600087803b158015611b6c57600080fd5b505af1158015611b80573d6000803e3d6000fd5b505050508160050154600c6000828254611b9a91906123bf565b90915550506000811315611bd7578060026000828254611bba91906123d2565b90915550506003546002541115611bd2576002546003555b611c8a565b6000811215611c8a576000611beb82612659565b905080600a6000828254611bff91906123d2565b92505081905550611c14600a54600854611f17565b15611c5d57611c216119f5565b600a54604080519182524260208301527f69e1ae2a5d411f07a576aa6ed11e74da0a4d61583898a118179051a81587666a910160405180910390a15b6002548110611c70576000600255611c88565b8060026000828254611c8291906123bf565b90915550505b505b60098201805460ff1916905560025460408051858152602081018490529081019190915284907fc19facd714548f08e33c55a1df06fc97519228fd905deed0bfe1193936cd5c199060600160405180910390a250505050565b600082600003611cf557506000611d0b565b8115611d05575081831115611d0b565b50818310155b9392505050565b611d1a611eaf565b6000805460ff191690557f5db9ee0a495bf2e6ff9c91a7834c1ba4fdd244a5e8aa4e537bd38aeae4b073aa33611a32565b600080612710831115611d965760405162461bcd60e51b81526020600482015260136024820152724d6174683a20496e76616c696420736861726560681b6044820152606401610230565b611da08484611f6a565b9150611dac82856123bf565b90509250929050565b6040516001600160a01b03838116602483015260448201839052611e1491859182169063a9059cbb906064015b604051602081830303815290604052915060e01b6020820180516001600160e01b038381831617835250505050611f83565b505050565b604080516001600160a01b038416602482015260448082018490528251808303909101815260649091019091526020810180516001600160e01b031663095ea7b360e01b179052611e6a8482611ff4565b611ea9576040516001600160a01b03848116602483015260006044830152611e9f91869182169063095ea7b390606401611de2565b611ea98482611f83565b50505050565b60005460ff16610c3f57604051638dfc202b60e01b815260040160405180910390fd5b60005460ff1615610c3f5760405163d93c066560e01b815260040160405180910390fd5b600b54611f0690620151806123d2565b4210610c3f576000600a5542600b55565b808210155b92915050565b600083600003611f3457506000611d0b565b82841115611f4457506000611d0b565b600082118015611f5357508184115b15611f6057506000611d0b565b5060019392505050565b6000612710611f798385612675565b611d0b9190612506565b600080602060008451602086016000885af180611fa6576040513d6000823e3d81fd5b50506000513d91508115611fbe578060011415611fcb565b6001600160a01b0384163b155b15611ea957604051635274afe760e01b81526001600160a01b0385166004820152602401610230565b6000806000806020600086516020880160008a5af192503d915060005190508280156120395750811561202a5780600114612039565b6000866001600160a01b03163b115b9695505050505050565b6020808252825182820181905260009190848201906040850190845b8181101561207b5783518352928401929184019160010161205f565b50909695505050505050565b60006020828403121561209957600080fd5b5035919050565b6000602082840312156120b257600080fd5b81356001600160a01b0381168114611d0b57600080fd5b60006101408c8352602081818501528c518083860152600092505b80831015612103578d83018201518584016101600152918101916120e4565b6101609250600083828701015282601f19601f830116860101935050505089604083015288606083015261213b608083018915159052565b8660a08301528560c08301528460e08301528361010083015261216361012083018415159052565b9b9a5050505050505050505050565b60008060008060008060a0878903121561218b57600080fd5b863567ffffffffffffffff808211156121a357600080fd5b818901915089601f8301126121b757600080fd5b8135818111156121c657600080fd5b8a60208285010111156121d857600080fd5b602092830198509650508701359350604087013580151581146121fa57600080fd5b959894975092956060810135946080909101359350915050565b634e487b7160e01b600052601160045260246000fd5b60006001820161223c5761223c612214565b5060010190565b634e487b7160e01b600052604160045260246000fd5b634e487b7160e01b600052603260045260246000fd5b600181811c9082168061228357607f821691505b6020821081036122a357634e487b7160e01b600052602260045260246000fd5b50919050565b60006020808352600084546122bd8161226f565b808487015260406001808416600081146122de57600181146122f857612326565b60ff1985168984015283151560051b890183019550612326565b896000528660002060005b8581101561231e5781548b8201860152908301908801612303565b8a0184019650505b509398975050505050505050565b6000806040838503121561234757600080fd5b505080516020909101519092909150565b6020808252601a908201527f5472616465725661756c743a20496e76616c6964207072696365000000000000604082015260600190565b6020808252601690820152752a3930b232b92b30bab63a1d102737ba1037bbb732b960511b604082015260600190565b81810381811115611f1c57611f1c612214565b80820180821115611f1c57611f1c612214565b818103600083128015838313168383128216171561240557612405612214565b5092915050565b80820260008212600160ff1b8414161561242857612428612214565b8181058314821517611f1c57611f1c612214565b634e487b7160e01b600052601260045260246000fd5b6000826124615761246161243c565b600160ff1b82146000198414161561247b5761247b612214565b500590565b80820182811260008312801582168215821617156124a0576124a0612214565b505092915050565b6000602082840312156124ba57600080fd5b5051919050565b81835281816020850137506000828201602090810191909152601f909101601f19169091010190565b6020815260006124fe6020830184866124c1565b949350505050565b6000826125155761251561243c565b500490565b601f821115611e1457600081815260208120601f850160051c810160208610156125415750805b601f850160051c820191505b818110156118e65782815560010161254d565b815167ffffffffffffffff81111561257a5761257a612243565b61258e81612588845461226f565b8461251a565b602080601f8311600181146125c357600084156125ab5750858301515b600019600386901b1c1916600185901b1785556118e6565b600085815260208120601f198616915b828110156125f2578886015182559484019460019091019084016125d3565b50858210156126105787850151600019600388901b60f8161c191681555b5050505050600190811b01905550565b60a08152600061263460a08301888a6124c1565b6020830196909652509215156040840152606083019190915260809091015292915050565b6000600160ff1b820161266e5761266e612214565b5060000390565b8082028115828204841417611f1c57611f1c61221456fea2646970667358221220b4a2ecb110eded13e9f733d16ba310650a31a48ddd92694ead734b08f37d4dad64736f6c63430008140033",
  "linkReferences": {},
  "deployedLinkReferences": {}
}